:020000040800F2
:10000000E815002029010008010400080304000885
:10001000070400080B0400080F040008000000009B
:1000200000000000000000000000000013040008B1
:1000300015040008000000003F0100081704000834
:100040004301000843010008430100084301000880
:100050004301000843010008430100084301000870
:100060004301000843010008430100084301000860
:100070004301000843010008430100084301000850
:100080004301000843010008430100084301000840
:100090004301000843010008FF4500084301000830
:1000A0004301000843010008430100082B420008F7
:1000B00043420008430100084301000843010008CF
:1000C0004301000843010008430100084301000800
:1000D00043010008430100084301000843010008F0
:1000E00043010008430100084301000843010008E0
:1000F00043010008430100084301000843010008D0
:1001000043010008430100084301000843010008BF
:1001100043010008DFF80CD008F0B8F800480047A9
:10012000C1030008E815002006488047064800473C
:10013000FEE7FEE7FEE7FEE7FEE7FEE7FEE7FEE797
:10014000FEE7FEE74B020008150100080FB500208E
:100150000290019000908E48006840F480308C49F5
:10016000086000BF8A480068C0F3404001900098D2
:10017000401C00909DF8040018B90098B0F5005F8D
:10018000F0D183480068C0F3404001909DF804001E
:1001900018B98048804908600FBD8048006820F089
:1001A00007007E4908600846006840F003000860C8
:1001B00077484068764948600846406840F40050F7
:1001C00048600846406840F4A060486008464068BF
:1001D000734908406E4948600846006C20F00100F1
:1001E0000864084640680390039840F48030039008
:1001F000039840F4003003906A4903980843039041
:10020000634903984860029808640846006840F013
:100210008070086000BF5E48006800F00070002831
:10022000F9D05B48406820F003005949486008460F
:10023000406840F00200486000BF5548406800F048
:100240000C000828F9D100BFA6E710B55648006891
:1002500040F47000544908604D48006840F00100C7
:100260004B49086008464068504908404849486082
:10027000084600684E49084045490860084600683D
:1002800020F48020086008464068454908404049FD
:1002900048604FF46050C862002008644548886098
:1002A0000846C06940F08050C8610846C06920F027
:1002B0008050C8613948006840F0800037490860C4
:1002C0000846006820F010000860FFF73FFF4FF07D
:1002D000006035498039086010BD10B5002100204C
:1002E00000222B4B5B6803F00C0121B1042906D0DE
:1002F00008293CD107E0274B274C23603BE0254BE6
:10030000254C236037E0224B5B68264C03EA04004F
:100310001F4B5B6803F4803200F000631BB90223BB
:1003200003EB904004E04FF4F873C3EB9043581C88
:1003300072B9174B1B6C03F0010323B11E4B4343EF
:10034000154C236012E0134B4343134C23600DE024
:100350000F4B5B6803F4003323B1174B43430E4C40
:10036000236003E00B4B43430B4C236003E0094B3A
:10037000094C236000BF00BF054B5B68C3F3031348
:100380000E4CE15C044B1B68CB40034C236010BD5A
:100390000010024000127A000000002000200240FD
:1003A000FFFFC0F700003C0888ED00E00CC07FF8BC
:1003B000FFFFF6FE00009F0400093D005492000874
:1003C00003F0E4FB03F0C7FC03F000FC03F01CFCAB
:1003D00040210A4803F028FD03F0E8FD03F060FE29
:1003E00003F0B3FE04F01CFA00F052FA00BF02F072
:1003F000A8FB0028FBD100BFFEE700000038024048
:10040000704700BFFEE700BFFEE700BFFEE700BF8A
:10041000FEE770477047704700B587B04FF48070B3
:1004200006F0A9F801A805F0D8FB4FF4C0400190F0
:100430000020049001200290039001A9C14805F01A
:100440009CFB00BF4FF40051BE4805F0EAFB00BF23
:1004500000BF4FF48041BB4805F0E3FB00BF07B08D
:1004600000BD10B5B748006820F04050B54908609D
:100470000846006840F08050086000BF4FF480419B
:10048000B04805F0CEFB00BF00BF4FF40051AD48AF
:1004900005F0C7FB00BF042004F073FA00BF4FF45F
:1004A0008041A84805F0BFFB00BF042004F069FAB2
:1004B00000BF4FF40051A34805F0B5FB00BF10BDCD
:1004C00010B5A048006820F040509E4908600846DA
:1004D000006840F08050086000BF4FF40051994818
:1004E00005F0A1FB00BF00BF4FF48041954805F027
:1004F0009AFB00BF042004F044FA00BF4FF40051FF
:10050000904805F08EFB00BF00BF4FF480418D483E
:1005100005F087FB00BF042004F033FA10BD10B5CE
:1005200000248848006820F040508649086008464A
:100530000068086000BF4FF48041824805F071FBFD
:1005400000BF012004F01DFA00BF4FF400517D48A8
:1005500005F067FB00BF012004F013FA07E0601C00
:10056000C4B2FA2C03DDFFF7ABFF012010BD4FF43E
:100570008041744805F03DFB0028F0D100BF4FF4E6
:100580000051704805F04FFB00BF0020EEE710B5AA
:1005900000BF4FF400516B4805F045FB00BF6948B0
:1005A000006820F04050674908600846006840F045
:1005B0008050086000BF4FF48041624805F033FB73
:1005C00000BF022004F0DDF900BF4FF400515D4888
:1005D00005F027FB00BF022004F0D3F900BF4FF461
:1005E0000051584805F01FFB00BF10BD10B500BFFB
:1005F0004FF40051534805F016FB00BF5148006806
:1006000020F040504F4908600846006840F0805094
:10061000086000BF4FF480414A4805F002FB00BF6C
:10062000022004F0AEF900BF4FF40051454805F038
:10063000F8FA00BF022004F0A4F900BF4FF4005103
:10064000404805F0F0FA00BF10BD70B504463D48C3
:10065000006820F040503B4908600846006840F0C0
:100660008050086000BF4FF40051364805F0DBFAB7
:1006700000BF00252AE0E00930B100BF4FF48041FF
:10068000304805F0CEFA06E000BF4FF480412D4817
:1006900005F0C9FA00BF6006040E022004F071F9EB
:1006A00000BF4FF40051274805F0BBFA00BF0220FD
:1006B00004F067F900BF4FF40051224805F0B3FA87
:1006C00000BF022004F05DF9681CC5B2082DD2DB22
:1006D00070BD70B5054600241A48006820F04050EF
:1006E0001849086008460068086000261FE000BF3F
:1006F0004FF40051134805F096FA00BF022004F0B1
:1007000040F900BF4FF400510E4805F08AFA00BFCF
:100710006006040E4FF480410A4805F06AFA08B1F9
:10072000601CC4B2012004F02CF9701CC6B2082E63
:10073000DDDB15B9FFF75AFF01E0FFF728FF204680
:1007400070BD00000038024070B505460C46FFF74A
:1007500088FED020FFF779FFFFF7E1FE18B1FFF721
:10076000AFFE012070BD2846FFF76FFFFFF7D7FEF1
:100770002046FFF76AFFFFF7D2FE18B1FFF7A0FE91
:100780000120EFE7FFF79CFE0020EBE770B5044681
:100790000025BC2C01DB012510E0622C01DB0225C9
:1007A0000CE02A2C01DB032508E0142C01DB0425D6
:1007B00004E00A2C01DB052500E0062529461A2065
:1007C000FFF7C2FF70BD70B50446B4F57A7F01DD56
:1007D0004FF47A74042C00DA04244FF47A7090FBFE
:1007E000F4F0401EC5B229461920FFF7ADFF0546BB
:1007F000264604EBD671C1F34F00FFF7C7FF70BD6B
:1008000070B50446FFF72DFED020FFF71EFFFFF75F
:1008100086FE2046FFF719FFFFF781FEFFF721FE56
:10082000D120FFF712FFFFF77AFE0020FFF751FFFC
:100830000546FFF745FE284670BD10B50446E006A4
:10084000010E1C20FFF780FF10BD10B50446E00626
:10085000010E1B20FFF778FF10BD00B587B04FF4E5
:10086000807005F088FE01A805F0B7F9042001901A
:1008700000200490012002900220039001A99F48CB
:1008800005F07BF904219D4805F0CDF907B000BDC6
:1008900010B5FFF7C1FDFFF7E0FF80216B20FFF7E8
:1008A00053FF642004F091F800216B20FFF74CFF08
:1008B0000320FFF7CAFF0020FFF7BFFF3220FFF73A
:1008C00082FF00213820FFF73FFF00216A20FFF759
:1008D0003BFF00212320FFF737FF80213720FFF760
:1008E00033FF7520FFF78CFF0446682C0ED10121E1
:1008F0006B20FFF729FF00216C20FFF725FF322036
:10090000FFF761FF7EA007F025FD04E081A007F05E
:1009100021FD012010BD0020FCE72DE9F041064635
:100920000F4614461D46FFF79CFD002141EA460193
:10093000C8B2FFF78AFEFFF7F2FD20B1FFF7C0FD56
:100940000120BDE8F0813846FFF77FFEFFF7E7FDA5
:10095000FFF787FD012101EB4601C8B2FFF775FEE5
:10096000FFF7DDFD0DE0012C04D10020FFF7B1FE03
:10097000287003E00120FFF7ACFE2870601EC4B2AF
:100980006D1C002CEFD1FFF79BFD0020D9E710B5BF
:100990002DED088B82B001AB022241216820FFF7C8
:1009A000BCFF9DF805009DF8041040EA012004B248
:1009B000204607F015FB41EC1B0B9FED5B0B53EC46
:1009C000102B07F09EFA41EC1A0B9FED590B53ECDC
:1009D000102B07F07DF941EC190B07F044FB08EEF2
:1009E000100A9FED550A28EE000ABDEEC00A10EE6F
:1009F000100A00B202B0BDEC088B10BD2DE9FC411D
:100A000004460D4616466B46062243216820FFF732
:100A100084FF0746BFB99DF801009DF8001040EA29
:100A2000012000B220809DF803009DF8021040EAEA
:100A3000012000B228809DF805009DF8041040EACE
:100A4000012000B230803846BDE8FC812DE9FC4130
:100A500004460D4616466B4606223B216820FFF7EA
:100A60005CFF0746BFB99DF801009DF8001040EA01
:100A7000012000B220809DF803009DF8021040EA9A
:100A8000012000B228809DF805009DF8041040EA7E
:100A9000012000B230803846BDE8FC812DE9F041EC
:100AA00005460E4617469846FFF7DBFC002141EA53
:100AB0004501C8B2FFF7C9FDFFF731FD20B1FFF7CF
:100AC000FFFC0120BDE8F0813046FFF7BEFDFFF7D7
:100AD00026FD00240CE018F80400FFF7B6FDFFF730
:100AE0001EFD18B1FFF7ECFC0120EBE7601CC4B25F
:100AF000BC42F0DBFFF7E4FC0020E3E700380240F3
:100B00004D50555F496E69742073756363657373E7
:100B10000D0A00004D50555F496E69742066616989
:100B20006C65640D0A000000000000000040754084
:100B3000A4703D0AD74342400000C84238B504467D
:100B4000F74890F82400C0B114B10220009001E0F1
:100B500000200090F24A1268D17BF14A5268107866
:100B60006B460122FFF79AFF10B14FF0FF3038BDFE
:100B70009DF80010EA48417423E0E948807A10B9F2
:100B80004FF0FF30F3E724B1E548407C08B1002086
:100B9000EDE714B10120009001E000200090E04A50
:100BA0001268D17BDE4A526810786B460122FFF74B
:100BB00075FF10B14FF0FF30D9E79DF80010D8480D
:100BC00041740020D3E738B500241FE0D448006802
:100BD000C07AA04204D0D2480068407DA04200D133
:100BE00012E0CF49496808786B4601222146FFF799
:100BF00094FE10B14FF0FF3038BD9DF80020214623
:100C0000C8A007F0A7FB00BF601CC4B2C44840687E
:100C10000079A042DADC0020EEE770B504460D460C
:100C2000BF480068C07AA04204D0BD480068407D3B
:100C3000A04202D14FF0FF3070BDB9484068007942
:100C4000A04202DC4FF0FF30F6E7B549496808786A
:100C50002B4601222146FFF760FEEDE738B504463A
:100C6000AF4890F82300A04201D1002038BD14B154
:100C70003020009001E000200090A948807C20B145
:100C80009DF8000040F002000090A54890F8220076
:100C900020B19DF8000040F080000090A04A12684A
:100CA000117D9F4A526810786B460122FFF7F6FECD
:100CB00010B14FF0FF30D9E7994880F82340002069
:100CC000D4E738B5044604F0700010B1012000905C
:100CD00005E014B10020009001E040200090904A0F
:100CE0001268917C8E4A526810786B460122FFF799
:100CF000D5FE20B100218A488172481E38BD9DF87A
:100D0000000020F04001864801730020009004F0AC
:100D1000400020B99DF8000040F00400009004F06D
:100D2000200020B99DF8000040F00200009004F07F
:100D3000100020B99DF8000040F00100009004F080
:100D4000080020B99DF8000040F038000090744A77
:100D50001268D17C724A526810786B460122FFF704
:100D60009DFE20B100216E488172481EC6E724B165
:100D7000082C02D00020FFF771FF6948847200211F
:100D80000175322003F021FE0020B7E738B5044694
:100D90006348807CA04201D1002038BD002C46D0A1
:100DA0005F4A126811795E4A526810786B460122D8
:100DB000FFF7B3FD10B14FF0FF30EEE79DF80000F4
:100DC00020F020000090564A12681179544A526867
:100DD00010786B460122FFF761FE10B14FF0FF3033
:100DE000DBE7032003F0F1FD022000904C4890F86F
:100DF000220020B19DF8000040F08000009048489B
:100E000090F8230020B19DF8000040F030000090E1
:100E1000434A1268117D424A526810786B4601229B
:100E2000FFF73CFE002851D04FF0FF30B5E73C4AB9
:100E3000126811793A4A526810786B460122FFF71E
:100E40006CFD10B14FF0FF30A7E73548807A00F015
:100E5000010028B19DF8000040F02000009004E05F
:100E60009DF8000020F0200000902D4A12681179B2
:100E70002B4A526810786B460122FFF70FFE10B123
:100E80004FF0FF3089E7032003F09FFD244890F8DE
:100E9000220010B18020009001E000200090204846
:100EA00090F8230020B19DF8000040F03000009041
:100EB0001B4A1268117D1A4A526810786B4601224B
:100EC000FFF7ECFD10B14FF0FF3066E71448847473
:100ED000002062E708B51248807A10B94FF0FF3061
:100EE00008BD002000900E4A1268D17B0C4A52685F
:100EF00010786B460122FFF7D1FD10B14FF0FF30A3
:100F0000EEE7074A12685179054A526810786B4635
:100F10000122FFF7C3FD68B14FF0FF30E0E70000AA
:100F200004000020252335783A20252335780D0A42
:100F300000000000F84A12681179F74A52681078E8
:100F40006B460122FFF7AAFD10B14FF0FF30C7E753
:100F5000F14890F82400002853D00C200090EE4A6D
:100F600012681179EC4A526810786B460122FFF73B
:100F700095FD10B14FF0FF30B2E7322003F025FDB0
:100F8000C0200090E448807A00F0010020B19DF874
:100F9000000040F020000090DF4A12681179DE4A1C
:100FA000526810786B460122FFF778FD10B14FF0C0
:100FB000FF3095E7D848407C10B10220009001E056
:100FC00000200090D44A1268D17BD34A526810782E
:100FD0006B460122FFF762FD10B14FF0FF307FE753
:100FE00000200090CC4A12685179CB4A52681078A0
:100FF0006B460122FFF752FD002855D04FF0FF301D
:101000006EE704200090C44A12681179C24A5268FF
:1010100010786B460122FFF741FD10B14FF0FF3011
:101020005EE7BD48807C20B9BB48807A00F00100B3
:1010300010B94020009001E060200090B64A12688C
:101040001179B54A526810786B460122FFF726FDE8
:1010500010B14FF0FF3043E7322003F0B6FCAE484A
:10106000407C10B10120009001E000200090AA4ACD
:101070001268D17BA84A526810786B460122FFF7AC
:101080000DFD10B14FF0FF302AE7A34A12685179E5
:10109000A14A52681078A04B10330122FFF7FEFCE2
:1010A00010B14FF0FF301BE7002019E770B5044680
:1010B000002624F00104984890F8240008B100208C
:1010C00070BD9548807A10B94FF0FF30F8E792482C
:1010D000057C807A2040904908740846007CA04234
:1010E00002D04FF0FF3600E0002614B98A48007D98
:1010F00018B10120FFF722FD02E00020FFF71EFDDE
:101100003CB1FFF7E7FE20B1834805744FF0FF3094
:10111000D6E73046D4E738B504467F48807A10B920
:101120004FF0FF3038BDBC2C02DB0120009015E0F1
:10113000622C02DB0220009010E02A2C02DB03204C
:1011400000900BE0142C02DB0420009006E00A2C37
:1011500002DB0520009001E0062000906E48C07A76
:101160009DF80010884201D10020DBE76A4A12682E
:101170009178694A526810786B460122FFF78EFC1D
:1011800010B14FF0FF30CDE79DF800106248C172FA
:101190000020C7E738B50446282C02DD4FF0FF30A9
:1011A00038BDDCB90020FFF759FD00208DF80000A4
:1011B00007208DF80100584A1268917C564A5268FF
:1011C00010786B460222FFF769FC10B14FF0FF3038
:1011D000E6E70021504801750020E1E70120FFF714
:1011E0003DFD20208DF80000012C06D100208DF857
:1011F00001000520FFF78FFF17E0052C06DC01201A
:101200008DF801000520FFF786FF0EE0142C06DCA8
:1012100002208DF801000A20FFF77DFF05E0032082
:101220008DF801001420FFF776FF9DF801000721DB
:1012300001EB8010C0B28DF80100374A1268917C32
:10124000354A526810786B460222FFF727FC10B12E
:101250004FF0FF30A4E708212F488172002101736D
:10126000012101750020FFF721FF002098E738B524
:1012700004462948807A10B94FF0FF3038BD26481F
:1012800090F8240010B14FF0FF30F7E72248007DBE
:1012900050B134B1282C04DCE0B2FFF77BFF002012
:1012A000ECE70020FFF776FF042C01DA042404E0C9
:1012B000B4F57A7F01DD4FF47A744FF47A7090FBC5
:1012C000F4F0401EC0B20090134A12685178124ADE
:1012D000526810786B460122FFF7E0FB10B14FF027
:1012E000FF30CBE79DF80000401C4FF47A7191FB72
:1012F000F0F081B20848C1810146C9894810FFF762
:101300000AFF0020BAE738B504460348807A28B9B6
:101310004FF0FF3038BD000004000020022C06D042
:10132000042C07D0082C08D0102C0CD108E0002089
:1013300000900BE00820009008E01020009005E0ED
:101340001820009002E04FF0FF30E3E700BFF748BD
:10135000407A9DF80010B0EBE10F01D10020D9E7F1
:10136000F24A1268D179F14A526810786B4601222C
:10137000FFF794FB10B14FF0FF30CBE79DF8000072
:10138000C110EA4841720020C4E738B50446E74876
:10139000807A10B94FF0FF3038BDFA2C09D0B4F57F
:1013A000FA7F09D0B4F57A7F09D0B4F5FA6F0CD181
:1013B00008E0002000900BE00820009008E01020DA
:1013C000009005E01820009002E04FF0FF30E3E7C6
:1013D00000BFD648007A9DF80010B0EBE10F01D1B4
:1013E0000020D9E7D14A12689179D04A5268107822
:1013F0006B460122FFF752FB10B14FF0FF30CBE7F5
:101400009DF80000C010C94908720020C4E71CB54F
:1014100080208DF80000C54A1268917CC34A52684A
:1014200010786B460122FFF739FB10B14FF0FF3007
:101430001CBD642003F0C9FA00208DF80000BB4AEF
:101440001268917CB94A526810786B460122FFF706
:1014500025FB10B14FF0FF30EAE7B44A1268917DE6
:10146000B24A526810786B460622FFF756FA10B15E
:101470004FF0FF30DCE79DF80500C007400F9DF8F6
:10148000031001F0010140EA41009DF8011001F054
:10149000010140EA010494B1012C03D10121A348C8
:1014A000C17431E0022C03D10021A048C1742BE0AB
:1014B00021469FA006F04EFF4FF0FF30B8E79B4A51
:1014C0001268D178994A526810786B460122FFF76A
:1014D00024FA10B14FF0FF30AAE79DF8000000F0A9
:1014E0000F042CB99C4806F035FF4FF0FF309FE702
:1014F000042C06D199A006F02DFF01218B48C17460
:1015000002E000218948C174FF2188488172FF20D0
:1015100086490872FF2185484172C1724FF6FF71FA
:10152000C181FF21017481740121017380F82210AF
:10153000002180F82310417501751630016041606B
:101540008160163880F8241080F82510C1844FF48B
:10155000FA60FFF71AFF10B14FF0FF3068E7022082
:10156000FFF7D1FE10B14FF0FF3061E72A20FFF7FF
:10157000D2FD10B14FF0FF305AE73220FFF777FE6F
:1015800010B14FF0FF3053E70020FFF78FFD10B18F
:101590004FF0FF304CE70020FFF7F8FB10B14FF0A1
:1015A000FF3045E70020FFF78CFB002040E7704745
:1015B0007CB504460D465D48807A00F0700010B995
:1015C0004FF0FF307CBD594A1268117B574A526870
:1015D00010786B460622FFF7A0F910B14FF0FF30EC
:1015E000F0E79DF801009DF8001040EA012000B2EC
:1015F00020809DF803009DF8021040EA012000B20F
:1016000060809DF805009DF8041040EA012000B2BA
:10161000A08015B12846FFF7CAFF0020D2E77CB5AD
:1016200004460D464148807A00F0080010B94FF09A
:10163000FF307CBD3D4A1268517B3C4A52681078AD
:101640006B460622FFF769F910B14FF0FF30F0E763
:101650009DF801009DF8001040EA012000B22080B2
:101660009DF803009DF8021040EA012000B260805E
:101670009DF805009DF8041040EA012000B2A0800A
:1016800015B12846FFF793FF0020D2E7F8B50646CC
:101690000C462648807A10B94FF0FF30F8BD234A37
:1016A0001268917B214A526810786B460222FFF73C
:1016B00034F910B14FF0FF30F0E79DF801009DF8CC
:1016C000001040EA012005B214B12046FFF76FFF79
:1016D00016484068B0F9080000EE100AF8EEC00A9B
:1016E00000EE105AB8EEC00A70EE600A0F4840686B
:1016F000C08800EE100AB8EE400A80EE801A9FED16
:101700001F0A31EE000ADFED1E0A20EE200ABDEEB0
:10171000C00A86ED000A0020C0E710B588B0044674
:101720001CB94FF0FF3008B010BD2BE004000020C2
:10173000556E737570706F7274656420736F667424
:10174000776172652070726F64756374207265765C
:101750002025642E0A000000E09F000848616C66A6
:101760002073656E7369746976697479207061722B
:101770007420666F756E642E0A00000000000C4233
:1017800000008047206830B9606820B9A06810B9AF
:10179000002008B010BDF9494968087806AB03225B
:1017A0001146FFF7BAF810B14FF0FF30F1E79DF89E
:1017B0001800082101EB201000F00F00ADF8000028
:1017C0009DF8190001EB201000F00F00ADF80200A9
:1017D0009DF81A0001EB201000F00F00ADF8040096
:1017E00020684100BDF90000403091FBF0F000B2EC
:1017F000ADF8100060684100BDF90200403091FB77
:10180000F0F000B2ADF81200A0684100BDF904008C
:10181000403091FBF0F000B2ADF81400D7494968B0
:10182000087806AB06221146FFF777F810B14FF0A3
:10183000FF30AEE79DF819009DF8181040EA01202E
:1018400000B2ADF808009DF81B009DF81A1040EAA0
:10185000012000B2ADF80A009DF81D009DF81C1093
:1018600040EA012000B2ADF80C00BDF81000BDF850
:101870000810084400B2ADF81000BDF81200BDF821
:101880000A10084400B2ADF81200BDF81400BDF80B
:101890000C10084400B2ADF81400BDF81000000AA6
:1018A0008DF81800BDF81000C0B28DF81900BDF811
:1018B0001200000A8DF81A00BDF81200C0B28DF8AF
:1018C0001B00BDF81400000A8DF81C00BDF81400C0
:1018D000C0B28DF81D00A9494968087806AB0622F8
:1018E0001146FFF7DBF810B14FF0FF3051E7002051
:1018F0004FE70146A148007A30B1012807D00228FD
:1019000009D003280FD10AE0FA2008800EE04FF436
:10191000FA7008800AE04FF47A70088006E04FF40D
:10192000FA60088002E00020088000BF00BF0020AD
:10193000704701469148407A30B1012807D002280B
:1019400008D003280CD108E0022008700BE0042026
:10195000087008E00820087005E01020087002E018
:101960004FF0FF30704700BF8448C07C18B1087842
:101970004006000E08700020F4E701467F48C07A58
:10198000082817D2DFE800F01704070A0D10131813
:10199000BC20088013E06220088010E02A20088024
:1019A0000DE0142008800AE00A20088007E00520E6
:1019B000088004E000BF00BF0020088000BF00BF17
:1019C0000020704701466D4890F8240010B14FF098
:1019D000FF3070476948C08908800020F9E7014658
:1019E00000200880401E704701464FF0FF307047CE
:1019F00001466248007A30B1012809D002280CD093
:101A0000032814D10EE09FED5E0A81ED000A11E07B
:101A10009FED5C0A81ED000A0CE09FED5B0A81ED11
:101A2000000A07E09FED590A81ED000A02E04FF03D
:101A3000FF30704700BF0020FBE701464F48407A67
:101A400030B1012808D002280AD0032810D10BE0B9
:101A50004FF4804008800EE041F69C7008800AE058
:101A60004FF48050088006E04FF40060088002E0E8
:101A70004FF0FF30704700BF4048C07C10B108886D
:101A8000401008800020F5E701463C48007C0870C3
:101A90000020704701463948807A10B10120087053
:101AA00001E0002008700020704738B50446334834
:101AB000807A10B94FF0FF3038BD304A1268117C7F
:101AC0002E4A526810786B460222FEF726FF10B1AC
:101AD0004FF0FF30F0E79DF801009DF8001040EA5C
:101AE000012000B220800020E6E72DE9FE4F0746E6
:101AF000884692461D46DDF830B0002600241F4877
:101B000090F8240010B1601EBDE8FE8F0020287000
:101B10001A48807A10B94FF0FF30F5E71748007C7B
:101B200010B94FF0FF30EFE71448007C00F04000A0
:101B300008B1B01CC6B21148007C00F0200008B10A
:101B4000B01CC6B20D48007C00F0100008B1B01CFB
:101B5000C6B20A48007C00F0080008B1B01DC6B249
:101B6000064A1268917A054A526810786B4602223A
:101B7000FEF7D3FE60B14FF0FF30C5E70400002050
:101B80000000034300008342333303423333834175
:101B90009DF801009DF8001040EA0129B14501DAE5
:101BA0000020B1E7FA4840684088B9EB600F17DDC4
:101BB000F74A1268517CF64A526810786B46012247
:101BC000FEF7ABFE10B14FF0FF309DE79DF800002F
:101BD00000F0100020B1FFF77DF96FF0010093E7EE
:101BE0005046FFF7E4FCEA4A1268D17AE84A5268A4
:101BF00010786B463246FEF790FE10B14FF0FF3082
:101C000082E799FBF6F0401E8BF800000020287058
:101C1000B4422AD0DE48007C00F0080028B3601CE3
:101C20001DF800001DF8041040EA012000B2A8F8D9
:101C30000000E01C1DF80010A01C1DF8000041EA87
:101C4000002000B2A8F80200601D1DF80010201D41
:101C50001DF8000041EA002000B2A8F8040028782E
:101C600040F008002870A01D84B2B44213D0C848C8
:101C7000007C00F0400070B1601C1DF800001DF8F1
:101C8000041040EA012000B23880287840F040007B
:101C90002870A01C84B2B44213D0BD48007C00F070
:101CA000200070B1601C1DF800001DF8041040EA0F
:101CB000012000B27880287840F020002870A01C15
:101CC00084B2B44213D0B248007C00F0100070B16E
:101CD000601C1DF800001DF8041040EA012000B24D
:101CE000B880287840F010002870A01C84B2002032
:101CF0000AE7F8B504460F461646A54890F82400B2
:101D000010B94FF0FF30F8BDA148807A10B94FF0FC
:101D1000FF30F8E79E4A1268917A9D4A526810781F
:101D20006B460222FEF7F9FD10B14FF0FF30EAE7F3
:101D30009DF801009DF8001040EA0125A54203DA54
:101D400000203070401EDEE7914840684088B5EBC7
:101D5000600F17DD8E4A1268517C8D4A52681078E8
:101D60006B460122FEF7D9FD10B14FF0FF30CAE7F4
:101D70009DF8000000F0100020B1FFF7ABF86FF005
:101D80000100C0E7E2B2824B1B68D97A804B5B68E6
:101D900018783B46FEF7C1FD10B14FF0FF30B2E7B7
:101DA00095FBF4F0401E30700020ACE70146784807
:101DB00080F82210002070477CB5054674494968B8
:101DC000087801AB04220D21FEF7A7FD08B107201A
:101DD0007CBD9DF80700C0F301109DF8041001F0D0
:101DE000E00140EAE1008DF800009DF80700C0F333
:101DF00081009DF8051001F0E00140EAE1008DF856
:101E000001009DF8070000F003009DF8061001F0A6
:101E1000E00140EAE1008DF80200002427E01DF80F
:101E2000040030B99FED5B0A05EB840080ED000AE9
:101E30001BE09FED590A05EB840080ED000A0BE0E2
:101E400005EB840090ED000ADFED540A20EE200A35
:101E500005EB840080ED000A1DF80400401EC0B2AE
:101E60000DF804000028EBD100BF601CC4B2032CA5
:101E7000D5DB0020ACE7F0B52DED028B83B0064634
:101E80000F4600256846FFF797FF002447E056F805
:101E9000241057F82420881A002801DB014600E0AE
:101EA000414200EE101AB8EEC00ADFED3D0A80EEA6
:101EB000208A684600EB840090ED000AB5EEC00A67
:101EC000F1EE10FA18D0684600EB8400D0ED000A5D
:101ED00088EE200AF7EE000A70EE608AB0EEE80A9B
:101EE0003048D0ED090AB4EEE00AF1EE10FA15DD43
:101EF0000120A040054311E02A4890ED070AB4EE06
:101F0000C80AF1EE10FA06DC90ED080AB4EEC80A31
:101F1000F1EE10FA02D20120A0400543641C032C0C
:101F2000B5DB284603B0BDEC028BF0BDF0B52DED5E
:101F3000048B81B006460F4600251549496808788C
:101F40006B4603220D21FEF7E8FC20B1072001B00B
:101F5000BDEC048BF0BD9DF8000000F01F008DF873
:101F600000009DF8010000F01F008DF801009DF8B1
:101F7000020000F01F008DF80200002461E056F816
:101F8000241057F82420881A00280DDB01460CE0A5
:101F900004000020000000007B14AE3E1D5A843F68
:101FA000000080478C920008414200EE101AB8EE03
:101FB000C00A5FED050A80EE208A1DF8040068B3B0
:101FC000FE4890ED000AB8EE400ADFEDFD0A80EE13
:101FD000801AF0EE418A05E09FEDFA0A28EE800AA9
:101FE000F0EE408A1DF80400401EC0B20DF8040057
:101FF0000028F1D188EE280AF7EE000A30EE609A48
:10200000B0EEC90AED48D0ED060AB4EEE00AF1EEF2
:1020100010FA15DD0120A040054311E0E74890EDDE
:10202000040AB4EEC80AF1EE10FA06DC90ED050AD7
:10203000B4EEC80AF1EE10FA02D20120A040054326
:10204000641C032C9BDB284681E72DE9F04F87B009
:1020500005460C46914601208DF8100000208DF8B1
:102060001100D94A1268917CD74A5268107804ABA3
:102070000222FEF713FD20B14FF0FF3007B0BDE89C
:10208000F08FC82002F0A1FC00208DF81000CE4A8D
:102090001268D17BCC4A5268107804AB0122FEF75B
:1020A000FDFC10B14FF0FF30E8E7C74A12685179E4
:1020B000C54A5268107804AB0122FEF7EFFC10B15C
:1020C0004FF0FF30DAE7C04A1268917CBE4A52688E
:1020D000107804AB0122FEF7E1FC10B14FF0FF30A5
:1020E000CCE7B94A1268D17DB74A5268107804AB80
:1020F0000122FEF7D3FC10B14FF0FF30BEE7B24A29
:1021000012681179B04A5268107804AB0122FEF7C8
:10211000C5FC10B14FF0FF30B0E70C208DF8100077
:10212000A94A12681179A84A5268107804AB0122B2
:10213000FEF7B4FC10B14FF0FF309FE70F2002F024
:1021400044FCA148806A407A8DF810009E4A1268CB
:1021500091789D4A5268107804AB0122FEF79EFCEC
:1021600010B14FF0FF3089E79748806A007A8DF808
:102170001000954A12685178934A5268107804AB5F
:102180000122FEF78BFC10B14FF0FF3076E7B9F17A
:10219000000F07D08C48806A807A40F0E0008DF80C
:1021A000100004E08848806A807A8DF81000864A22
:1021B00012689179844A5268107804AB0122FEF7C4
:1021C0006DFC10B14FF0FF3058E7B9F1000F07D0A8
:1021D0007D48806AC07A40F0E0008DF8100003E08E
:1021E0007648C07A8DF81000774A1268D179764A1D
:1021F0005268107804AB0122FEF750FC10B14FF08A
:10220000FF303BE7B9F1000F02D0C82002F0DDFB40
:1022100040208DF810006C4A126811796A4A5268A1
:10222000107804AB0122FEF739FC10B14FF0FF30FB
:1022300024E778208DF81000634A12685179624AC9
:102240005268107804AB0122FEF728FC10B14FF061
:10225000FF3013E75949888902F0B7FB00208DF859
:102260001000594A12685179574A5268107804ABE5
:102270000122FEF713FC10B14FF0FF30FEE6524A88
:102280001268917A504A5268107804AB0222FEF725
:1022900044FB10B14FF0FF30F0E69DF811009DF8BF
:1022A000101040EA012B0C209BFBF0F0C6B200207E
:1022B000A86068602860A06060602060824665E079
:1022C000414A1268D17A404A5268107804AB0C2215
:1022D000FEF723FB10B14FF0FF30CFE69DF8110061
:1022E0009DF8101040EA012000B2ADF808009DF8FA
:1022F00013009DF8121040EA012000B2ADF80A0068
:102300009DF815009DF8141040EA012000B2ADF8C8
:102310000C00BDF90810206808442060BDF90A10BF
:10232000606808446060BDF90C10A0680844A060B3
:102330009DF817009DF8161040EA012000B2ADF894
:1023400000009DF819009DF8181040EA012000B225
:10235000ADF802009DF81B009DF81A1040EA01201C
:1023600000B2ADF80400BDF90010286808442860E8
:10237000BDF90210686808446860BDF90410A868D7
:102380000844A8600AF1010000F0FF0AB24597DB9B
:102390000A48D0F800C02868C117090441EA104172
:1023A000070462460023384605F042FC324600230B
:1023B000CDE9020105F03CFC286007E08C920008A2
:1023C00000B04C4554E3853F04000020F848D0F8A5
:1023D00000C06868C117090441EA10410704624659
:1023E0000023384605F024FC32460023CDE90201E3
:1023F00005F01EFC6860EE48D0F800C0A868C11760
:10240000090441EA1041070462460023384605F0FA
:102410000FFC32460023CDE9020105F009FCA8605B
:10242000E348D0F804C02168C817000440EA114806
:102430000F04624600233846414605F0F9FB324658
:102440000023CDE9020105F0F3FB2060D848D0F865
:1024500004C06068C117090441EA104107046246DC
:102460000023384605F0E4FB32460023CDE90201A3
:1024700005F0DEFB6060CE48D0F804C0A068C1174C
:10248000090441EA1041070462460023384605F07A
:10249000CFFB32460023CDE9020105F0C9FBA06065
:1024A000A068002804DDA068A0F58030A06003E0EB
:1024B000A06800F58030A0600020DFE538B5044654
:1024C000BC4890F82400A04201D1002038BD24B3BC
:1024D000B84890F8250010B94FF0FF30F6E700201B
:1024E000FEF72CFB0020FEF751FCB249C88CFEF72A
:1024F000BEFE00200090AF49496808786B46012273
:102500002321FEF7CBFA0121AA4880F824100120EC
:10251000FEF714FBFEF7DEFC13E00020FEF70EFBD7
:10252000A448007C0090A349496808786B460122C2
:102530002321FEF7B3FA00219E4880F82410FEF70D
:10254000C9FC0020C2E72DE9F04F8DB083460F464D
:1025500002200C90974890F8240020B10020FFF74B
:10256000ADFF012600E0002603A8FFF7C2F905A889
:10257000FFF7DFF901A8FFF700FA02A8FFF722FA38
:102580008C4890F80AA004A8FFF77EFA002407E020
:10259000002239465846FFF758FD00B902E0641C96
:1025A000022CF5DB00BF022C01D1002528E000241D
:1025B00007E0012206A909A8FFF747FD00B902E0DC
:1025C000641C022CF5DB00BF022C01D1002517E0B2
:1025D00006A93846FFF74FFC00F0FF0809A9584646
:1025E000FFF7A4FC00F0FF090025B9F1000F01D1AD
:1025F00045F00105B8F1000F01D145F0020500BF1B
:10260000FF206C490872FF216A484172C1724FF67F
:10261000FF71C181FF218172017401210173BDF835
:102620000C00FEF7B2FE9DF81400FEF76CFEBDF83C
:102630000400FEF770FDBDF80800FEF718FE5046D6
:10264000FEF73FFB9DF81000FEF730FD16B10120AC
:10265000FFF734FF28460DB0BDE8F08FF8B504460B
:102660000D46164616B94FF0FF30F8BD5148807A36
:1026700010B94FF0FF30F8E720128DF80000E0B2FB
:102680008DF801009DF8010028444A4949684989AC
:10269000884202DD4FF0FF30E7E7464A1268117EBC
:1026A000444A526810786B460222FEF7F7F910B1DF
:1026B0004FF0FF30D9E7EAB23E4B1B68597D3D4BE6
:1026C0005B6818783346FEF7E9F910B14FF0FF3038
:1026D000CBE70020C9E7F8B504460D46164616B903
:1026E0004FF0FF30F8BD3348807A10B94FF0FF301B
:1026F000F8E720128DF80000E0B28DF801009DF897
:10270000010028442B4949684989884202DD4FF07D
:10271000FF30E7E7274A1268117E264A5268107890
:102720006B460222FEF7BAF910B14FF0FF30D9E73D
:10273000EAB2204B1B68597D1E4B5B681878334604
:10274000FEF7EBF810B14FF0FF30CBE70020C9E700
:102750002DE9F04385B005460E469046994615484A
:1027600090F8250020B14FF0FF3005B0BDE8F083B0
:1027700016B94FF0FF30F8E7002428E0281B102896
:1027800001DD102000E0281B87B2321939462046AF
:10279000FFF764FF10B14FF0FF30E6E701AA3946BA
:1027A0002046FFF798FF38B14FF0FF30DDE700001B
:1027B0008C9200080400002030193A4601A905F067
:1027C0007AFA10B16FF00100CFE7E01984B2AC42A1
:1027D000D4DB4FEA28208DF8000008F0FF008DF8C8
:1027E0000100F94A1268917EF74A526810786B46E8
:1027F0000222FEF753F910B14FF0FF30B5E7012187
:10280000F14880F82510A0F826900020ADE7014699
:10281000ED4890F824000870002070474FF0FF301A
:10282000704702464FF0FF30704701464FF0FF30CF
:102830007047F8B505460F461446002C70D0B5F524
:10284000FF5F01DDFF2605E0202D01DA012601E012
:10285000C5F3471607B90127282C02DD4FF0FF30DA
:10286000F8BDD948407D28BBD74890F8240038B13E
:102870000020FFF723FE0121D34880F8201003E059
:102880000021D14880F82010CF481630FFF731F8EA
:10289000CD481830FFF74DF8CB481A30FFF76DF8E8
:1028A000C9481C30FFF78EF8C748817A81771F30FE
:1028B000FFF7EAF80020FEF741F90020FEF76AFC76
:1028C00000208DF80000C04A12689178BE4A526814
:1028D00010786B460122FEF7E1F810B14FF0FF309F
:1028E000BEE740208DF80000B74A1268D17BB64A97
:1028F000526810786B460122FEF7D0F800B165E00F
:102900008DF800608DF80170AF4A1268117AAE4AF6
:10291000526810786B460222FEF7C0F808B155E005
:1029200047E0052002F051F8A748407A072101EB63
:10293000C000C0B28DF80000A34A1268D179A24A43
:10294000526810786B460122FEF7A8F800B13DE00E
:1029500020208DF80000012C03D100208DF801000B
:102960000EE0052C03DC01208DF8010008E0142C9A
:1029700003DC02208DF8010002E003208DF8010045
:102980009DF80100072101EB8010C0B28DF8010015
:102990008D4A1268917C8C4A526810786B460222EC
:1029A000FEF77CF800B111E0012187484175002055
:1029B00056E7854A1632002103E0505C00B105E07D
:1029C000491C0C29F9D34FF0FF3049E7FF207E491D
:1029D0000872FF217C484172C1724FF6FF71C181BC
:1029E000FF2181720174012101730146887FFEF786
:1029F00068F97549C88AFEF7C8FC7349087EFEF776
:102A000082FC7149488BFEF786FB6F49888BFEF785
:102A10002EFC6D49C87FFEF749FB6B4890F82000FB
:102A200010B10120FFF74AFD0021674841750020E1
:102A300016E710B588B002A905A8FFF784FD044683
:102A4000032C41D101A8FEF7D3FF9DED050AB8EE96
:102A5000C00ADDED010A20EE200ABDEEC00A8DEDB0
:102A6000050A9DED060AB8EEC00ADDED010A20EE6A
:102A7000200ABDEEC00A8DED060A9DED070AB8EEEC
:102A8000C00ADDED010A20EE200ABDEEC00A8DED80
:102A9000070A05A800F04DFA6846FEF7CEFFBDF81C
:102AA0000010029848430290BDF800100398484374
:102AB0000390BDF8001004984843049002A800F069
:102AC000CBFA002008B010BD0120FBE7014691F9C8
:102AD0000020002A01DD00201EE091F90020002ADC
:102AE00001DA042018E091F90120002A01DD01201B
:102AF00012E091F90120002A01DA05200CE091F999
:102B00000220002A01DD022006E091F90220002ABD
:102B100001DA062000E00720704710B50446204681
:102B2000FFF7D4FF0346E01CFFF7D0FF43EAC000E5
:102B300083B2A01DFFF7CAFF43EA801083B2184694
:102B400010BD70B50024FDF767FCFEF760FC00289F
:102B500045D17820FEF7B5F8C4B20CB1012070BDA4
:102B60007820FEF7A3FAC4B20CB10220F7E7642084
:102B7000FEF77DFBC4B20CB10320F0E700F03EF994
:102B8000C4B20CB10420EAE71048FFF7C6FF0546BF
:102B900000F03EF9C4B20CB10520E0E740F273103A
:102BA00000F087FDC4B20CB10620D8E7642000F025
:102BB000E9FAC4B20CB10720D1E7FFF73AFF0446A7
:102BC00034B10820CBE700000400002030000020D2
:102BD0000120FFF773FCC4B20CB10920BFE700204D
:102BE000BDE770B52DED0C8B8EB004460D46164634
:102BF000B7EE000AF0EE409A9FED7C0AB0EE408AF4
:102C00009FED7A0AF0EE408A9FED780AB0EE409A86
:102C100007A808A90DAB03AACDE9001009A90BA8C4
:102C200000F0A6FE20B101200EB0BDEC0C8B70BDF3
:102C3000BDF8200000F4807000287CD09DED030AD0
:102C4000B8EEC00ADFED6A0A80EE201AF0EE419A73
:102C50009DED040AB8EEC00ADFED650A80EE201A89
:102C6000B0EE418A9DED050AB8EEC00ADFED600ABC
:102C700080EE201AF0EE418A9DED060AB8EEC00AF9
:102C8000DFED5B0A80EE201AB0EE419AB8EE000A42
:102C900028EE000A20EE090AF0EE000A69EEA00A0A
:102CA00000EEA80A10EE101A084605F0C9F941EC2A
:102CB0001C0BB0EE4C0AF0EE6C0A05F075FBB0EEA2
:102CC00040BAF0EE60BA9FED4B0B53EC102B51EC79
:102CD0001B0B05F0A4F841EC1A0B05F0C4F92060B9
:102CE000B8EE000A28EE000A20EE080AF0EE000A0C
:102CF00068EEA00A00EEE80AF7EE000A30EE200ABD
:102D000010EE101A084605F09BF941EC1C0BB0EED2
:102D1000000A28EE800A20EE090AF0EE000A69EEA9
:102D2000A00A00EE880A10EE101A084605F088F98D
:102D300041EC1D0B00E054E0B0EE4C1AF0EE6C1AC2
:102D4000B0EE4D0AF0EE6D0A05F04AFEB0EE40BA64
:102D5000F0EE60BA9FED270B53EC102B51EC1B0BE0
:102D600005F05DF841EC1A0B05F07DF9286029EEBD
:102D7000A90A08EE080A08EEE80A09EE490A10EE68
:102D8000101A084605F05CF941EC1C0B28EE280AE5
:102D900009EE890AF0EE000A20EE200A10EE101A61
:102DA000084605F04DF941EC1D0BB0EE4C1AF0EE63
:102DB0006C1AB0EE4D0AF0EE6D0A05F011FEB0EEA1
:102DC00040BAF0EE60BA9FED0B0B53EC102B51ECB8
:102DD0001B0B05F024F841EC1A0B05F044F93060A8
:102DE00001E0022020E700201EE7000000000000B4
:102DF0000000804E6666666666A64C4010B5C82325
:102E00004FF48062F74940F6F630FFF7A1FC10BDA1
:102E100010B586B00446F4A000680390F3A00068E3
:102E20000290F3A000680190F2A00068009004F006
:102E3000030003A9085C8DF8140003A8C4F3C101C2
:102E4000405C8DF8150003A8C4F38111405C8DF837
:102E5000160004F0030002A9085C8DF8100002A817
:102E6000C4F3C101405C8DF8110002A8C4F38111C4
:102E7000405C8DF8120005AA032140F22640FFF7BE
:102E8000EDFB18B14FF0FF3006B010BD04AA0321CE
:102E900040F22A40FFF7E2FB10B14FF0FF30F3E7BA
:102EA000019805900098049004F0040058B19DF832
:102EB000140040F001008DF814009DF8100040F05F
:102EC00001008DF8100004F0200058B19DF81500A5
:102ED00040F001008DF815009DF8110040F0010050
:102EE0008DF8110004F4807058B19DF8160040F080
:102EF00001008DF816009DF8120040F001008DF8D9
:102F0000120005AA03214FF48860FFF7A7FB10B158
:102F10004FF0FF30B8E704AA032140F23140FFF739
:102F20009DFB10B14FF0FF30AEE7B34804810020A5
:102F3000AAE71FB50446B048007A00F0030054F831
:102F400020000190AC48007A00F0040010B1019814
:102F500040420190A848007AC0F3C10054F8200014
:102F60000290A548007A00F0200010B1029840427B
:102F70000290A148007AC0F3811054F82000039019
:102F80009D48008900F4807010B10398404203907E
:102F90009A49019880FB0101800F40EA810001906D
:102FA0009649029880FB0110820042EA91700290DB
:102FB0009249039880FB0110820042EA91700390CD
:102FC0000198000E8DF800000198000C8DF80100AA
:102FD0000198000A8DF802000198C0B28DF8030034
:102FE0006A4604214FF47470FFF738FB18B14FF0B4
:102FF000FF3004B010BD0298000E8DF8000002985A
:10300000000C8DF801000298000A8DF80200029869
:10301000C0B28DF803006A4604214FF47570FFF7C3
:103020001DFB10B14FF0FF30E3E70398000E8DF861
:1030300000000398000C8DF801000398000A8DF839
:1030400002000398C0B28DF803006A4604214FF4D1
:103050007670FFF703FBCCE770B588B0064601A891
:10306000FEF7EBFCBDF804000021C90341EA50451E
:10307000C4036148007A00F0030056F82000059070
:103080005D48007A00F0040010B1059840420590B8
:103090005948007AC0F3C10056F8200006905648FF
:1030A000007A00F0200010B1069840420690524885
:1030B000007AC0F3811056F8200007904E4800892E
:1030C00000F4807010B10798404207900598C1172E
:1030D000A0FB042301FB043100FB0510810041EA41
:1030E000927005900698C117A0FB042301FB0431E0
:1030F00000FB0510810041EA927006900798C11705
:10310000A0FB042301FB043100FB0510810041EA10
:10311000927007900598000E8DF808000598000C35
:103120008DF809000598000A8DF80A000598C0B2CC
:103130008DF80B000698000E8DF80C000698000C18
:103140008DF80D000698000A8DF80E000698C0B2A2
:103150008DF80F000798000E8DF810000798000CEE
:103160008DF811000798000A8DF812000798C0B278
:103170008DF8130002AA0C214FF42570FFF76EFAA8
:1031800008B070BD30B585B004461DA207CA02ABB9
:1031900007C3C82C03DD4FF0FF3005B030BDC82099
:1031A00090FBF4F0401E85B2280A8DF80000E8B2CA
:1031B0008DF801006A46022140F21620FFF74EFA10
:1031C00010B14FF0FF30E8E702AA0C2140F6C12011
:1031D000FFF744FA10B14FF0FF30DEE70648848174
:1031E0000020DAE7B49200084CCD6C000CC92C002A
:1031F0003656760026466600C800002009E3CA025B
:10320000FEF2ABC4AAF1DFDFBBAFDFDF0146F94856
:103210008089088000207047F0B52DED028B83B0C7
:1032200006460F4606F0070010B1B7F5C86F05DD7A
:103230004FF0FF3003B0BDEC028BF0BD00EE107A12
:10324000B8EE400ADFEDEC0A80EE208A01A8FEF716
:1032500070FB9DF80400022806D0042817D0082827
:1032600028D010284CD138E09FEDE40A28EE000A5F
:10327000BCEEC00A10EE100A84B29FEDE10A28EEFF
:10328000000ABCEEC00A10EE100A85B23BE09FEDCA
:10329000DD0A28EE000ABCEEC00A10EE100A84B265
:1032A0009FEDD90A28EE000ABCEEC00A10EE100A03
:1032B00085B228E09FEDD50A28EE000ABCEEC00AD0
:1032C00010EE100A84B29FEDD20A28EE000ABCEE7E
:1032D000C00A10EE100A85B215E09FEDCE0A28EE66
:1032E000000ABCEEC00A10EE100A84B29FEDCA0AB2
:1032F00028EE000ABCEEC00A10EE100A85B202E009
:103300004FF0FF3096E700BF20128DF80800E0B2C2
:103310008DF8090028128DF80A00E8B28DF80B002C
:1033200006F00100A0B102AA02214FF4EA70FFF7F3
:1033300095F910B14FF0FF307CE70DF10A02022140
:103340004FF49270FFF78AF910B14FF0FF3071E738
:1033500006F00200A0B102AA02214FF4EC70FFF7C0
:103360007DF910B14FF0FF3064E70DF10A02022140
:103370004FF49470FFF772F910B14FF0FF3059E736
:1033800006F00400A0B102AA02214FF4EE70FFF78C
:1033900065F910B14FF0FF304CE70DF10A02022140
:1033A0004FF49670FFF75AF910B14FF0FF3041E734
:1033B00000203FE738B504460020009004F00100EB
:1033C00020B19DF8000040F03000009004F00200B1
:1033D00020B19DF8000040F00C00009004F00400C3
:1033E00020B19DF8000040F0030000906A460121E2
:1033F0004FF4A470FFF732F938BD38B50446012CFC
:1034000001DA012402E0042C00DD0424601EC0B2B5
:1034100000906A46012140F24F10FFF71FF938BDB6
:1034200038B50446052094FBF0F085B228128DF8DB
:103430000000E8B28DF801006A4602214FF4EF70F7
:10344000FFF70CF938BD38B50446052094FBF0F0C1
:1034500085B228128DF80000E8B28DF801006A46A6
:1034600002214FF4ED70FFF7F9F838BDF8B50546C5
:103470000E464FF47A7095FBF0F000FB06F4200E38
:103480008DF80000200C8DF80100200A8DF8020054
:10349000E0B28DF803006A4604214FF4AE70FFF7E6
:1034A000DDF8F8BD38B50446052094FBF0F084B291
:1034B00020128DF80000E0B28DF801006A4602216A
:1034C0004FF4AD70FFF7CAF838BD38B50446052093
:1034D00094FBF0F084B220128DF80000E0B28DF879
:1034E00001006A4602214FF4AC70FFF7B7F838BD0F
:1034F00038B5044614B94FF0FF3038BD6A46042190
:103500004FF45870FFF7E7F810B14FF0FF30F4E7D1
:103510009DF8000000069DF8011040EA01409DF86A
:10352000021040EA01209DF80310084320600020AB
:10353000E3E738B50446200E8DF80000200C8DF826
:103540000100200A8DF80200E0B28DF803006A46FF
:1035500004214FF45870FFF781F838BD38B50446A0
:1035600014B94FF0FF3038BD6A4604214FF4717032
:10357000FFF7B1F810B14FF0FF30F4E79DF800000D
:1035800000069DF8011040EA01409DF8021040EA53
:1035900001209DF80310084300EB800080002060AC
:1035A0000020E0E738B504461420B4FBF0F4200E08
:1035B0008DF80000200C8DF80100200A8DF8020023
:1035C000E0B28DF803006A4604214FF47170FFF7F2
:1035D00045F838BD38B5044604B320208DF8000006
:1035E00028208DF8010030208DF8020038208DF859
:1035F000030018E0C8000020000048430000804697
:1036000000004046000000460000C0450000804524
:1036100000004045000000450000C044A3220421F2
:10362000684604F036FB6A46042140F69E20FFF708
:1036300015F8FDF74FFC38BD38B5044664B1C0201D
:103640008DF80000C2208DF80100C4208DF8020022
:10365000C6208DF8030004E08B220421684604F0A4
:1036600018FB6A46042140F69820FEF7F7FFFDF7A5
:1036700031FC38BD3EB504466CB1FDA1D1E9002056
:103680008968CDE9002002916A4609214FF49760CC
:10369000FEF7E4FF3EBDF9A2D2E900109268CDE941
:1036A000010200916A4609214FF49760FEF7D6FFA8
:1036B000F0E73EB5044602208DF80000CA208DF8E0
:1036C0000100E3208DF8020009208DF803006A460E
:1036D00004216820FEF7C2FFA3208DF8000004F04B
:1036E000400048B1C0208DF80100C8208DF80200CC
:1036F000C2208DF8030006E0A3208DF801008DF8AC
:1037000002008DF8030004F4C07048B1C4208DF8A5
:103710000400CC208DF80500C6208DF8060006E0D8
:10372000A3208DF804008DF805008DF80600A32075
:103730008DF807008DF808008DF809006A460A2107
:1037400040F6A720FEF78AFF04F0030018B12020FE
:103750008DF8000002E0D8208DF800006A460121B3
:1037600040F6B620FEF77AFF04F0200018B10120E1
:10377000FFF780FF02E00020FFF77CFF04F4C07039
:1037800008B304F4807060B1B2208DF800008B2083
:103790008DF80100B6208DF802009B208DF8030003
:1037A0000BE0B0208DF8000080208DF80100B420DF
:1037B0008DF8020090208DF803006A46042140F63F
:1037C000A220FEF74BFF04F0010020B3F8208DF893
:1037D00000006A4601214FF40B60FEF73FFFFA211B
:1037E0000720FFF719FD0720FFF7E4FD0120FFF791
:1037F00004FE6420FFF714FE4FF4FA70FFF723FE77
:10380000C821A148FFF732FE2820FFF74BFE0A200F
:10381000FFF75BFE08E0D8208DF800006A46012122
:103820004FF40B60FEF71AFF04F0020018B1D92024
:103830008DF8000002E0D8208DF800006A460121D2
:1038400040F23D70FEF70AFF04F0040018B10120B9
:10385000FFF7F2FE02E00020FFF7EEFE04F010009A
:1038600018B10120FFF7B6FE02E00020FFF7B2FE1C
:1038700044F0080085494881FDF72CFB002083496E
:10388000887304F0400018B10846807B801D88735F
:1038900004F4C07020B17D48807B801D7B49887313
:1038A00004F0140020B17948807B10307749887388
:1038B00004F0030020B17548807B001D73498873B4
:1038C00000203EBD014671484089088000207047B5
:1038D0002DE9F0410446E07800F0C006E07800F001
:1038E0003F05607800F0010098B1EF102846E91715
:1038F00005EB5171C910A5EBC101491C01F0FF088E
:103900006248006820B161484146026838469047E5
:1039100000BF607800F0080030B15C48406818B122
:10392000B0115A4A516888470020BDE8F08110B5AF
:1039300086B0044656A207CA03AB07C357A207CAFC
:103940008DE80700012C09D0022C0ED103AA0B210F
:1039500040F68220FEF782FE06B010BD6A460B21BB
:1039600040F68220FEF77AFEF6E74FF0FF30F3E7ED
:103970002DE9F04F8DB00746884615469946DDE99A
:10398000166B0024002030804049887B5A4605A9E8
:10399000FEF7AFF918B1601E0DB0BDE8F08F3B48DF
:1039A000807A00F01400002861D09DF81400000611
:1039B0009DF8151040EA01409DF8161040EA0120DC
:1039C0009DF81710084328609DF8180000069DF820
:1039D000191040EA01409DF81A1040EA01209DF8B4
:1039E0001B10084368609DF81C0000069DF81D1020
:1039F00040EA01409DF81E1040EA01209DF81F108A
:103A00000843A8609DF8200000069DF8211040EAB8
:103A100001409DF8221040EA01209DF82310084340
:103A2000E86004F11000C4B22868001401906868CE
:103A300000140290A86800140390E8680014049031
:103A400001984043029901FB0100039901FB010029
:103A5000049901FB010ABAF1706F02DBBAF1885FC9
:103A600022DDFDF737FA00203080401E94E721E088
:103A7000B8AAB38DB4980D355D000000B8AAAAAA03
:103A8000B088C3C5C700000009E3CA02C80000200F
:103A9000D8B1B9F38BA391B609B4D900DAB1B9F3AF
:103AA0008BA391B6DAB4DA00B6F9000040F4807066
:103AB000308000BF3448807A00F0400020B305A970
:103AC000601C085C095D40EA012000B2A8F8000013
:103AD00005A9E01C095C05AAA01C105C41EA0020B5
:103AE00000B2A8F8020005A9601D095C201D105C49
:103AF00041EA002000B2A8F80400A01DC4B2B6F943
:103B0000000040F0080030801F48408900F4C07079
:103B100008B305A9601C085C095D40EA012000B2F9
:103B2000388005A9E01C095C05AAA01C105C41EACC
:103B3000002000B2788005A9601D095C201D105C82
:103B400041EA002000B2B880A01DC4B2B6F900005E
:103B500040F0700030800C48807A00F0030018B10B
:103B600005A90819FFF7B4FE4846FDF720FD00201F
:103B700012E70146044801600020704701460248F0
:103B80004160002070470000C800002000B587B0E9
:103B9000802002F0F0FC01A802F01FF84FF48050E2
:103BA00001900020049001200290039001A9064892
:103BB00001F0E3FF00BF4FF48051034802F031F8F9
:103BC00000BF07B000BD00000034024000B587B060
:103BD0004FF4807002F0CFFC01A801F0FEFF20201E
:103BE00001900020049001200290039001A9054853
:103BF00001F0C3FF00BF2021024802F012F800BF0D
:103C000007B000BD0038024000B587B04FF48070A7
:103C100002F0B1FC01A801F0E0FF4020019000207B
:103C2000049002900120039001A9364801F0A5FFFD
:103C300007B000BD10B53448007820B101281FD06E
:103C4000022848D138E040212E4801F0D2FF60B967
:103C50002E480088401C2D490880084600884628C8
:103C60000DDB01202849087009E028480088022857
:103C700002DB01202649087000202449088030E03A
:103C80004021204801F0B5FF68B920480088401C59
:103C90001E49088008460088B0F5967F0BDB02209D
:103CA0001949087007E00020174908701749088073
:103CB00001201849087014E04021124801F099FFD2
:103CC000012807D100201049087010490880012000
:103CD0001049087005E000200B4908700B49088066
:103CE00000BF00BF10BD0A480078012802D10020A3
:103CF0000749087007480078012802D100200549CB
:103D000008707047003802403A0000203C00002054
:103D10003E0000203F00002010B541F2011002F0EB
:103D20002AFC0721002001F0ECFA4FF460514FF417
:103D3000806002F0D8FA10BD00B587B001A801F08C
:103D40004CFF022001900320029001A9324801F0AB
:103D500014FF07B000BD00B58FB0FFF7DDFFFFF720
:103D6000EBFF2E4801F0E6FA2D4800902D48019017
:103D700000200290012003900020049080200590F4
:103D800040000690800007902020089000020990D3
:103D900000200A906946214801F082FB00211F485B
:103DA00001F0E7FB1D4801F0B8FB0BA800F014FF81
:103DB00000208DF82C0001208DF82D0000200D90A2
:103DC0004FF460200C9000200E900BA800F0EAFE4B
:103DD00005210A2000F0C6FF00210A2001F008F8A2
:103DE00000F013FF00F0FFFE00BF20224021022060
:103DF00001F06CF90028F8D0012000F038FF03E052
:103E00004FF4A00000F057FF022000F030FF002820
:103E1000F6D10FB000BD000000380240080002409B
:103E20004C0802404200002030B589B004460D46DF
:103E30002B48844206D1802002F09DFB012002F035
:103E4000A6FB1FE02748844206D1801502F093FBB1
:103E5000012002F09CFB15E02348844206D1401566
:103E600002F089FB012002F092FB0BE01F48844224
:103E700006D1001502F07FFB012002F088FB01E073
:103E800009B030BDB5F5803F09DA03A801F0A5FE01
:103E900003950120059003A9204601F06EFE19212B
:103EA000052001F006FF2020019000208DF8080079
:103EB0000C208DF8090001208DF80A0001A801F0FE
:103EC000ABFB16208DF8000000208DF802000120C9
:103ED0008DF80300684600F0A8FD00BFD0E70000A1
:103EE0000034024000380240003C024000400240E2
:103EF00010B586B00446684601F06FFE6348844200
:103F000003D102200190049025E06148844222D12F
:103F10000220019004900420009009200590694639
:103F20005C4801F02AFE082000900A2005906946AE
:103F3000584801F022FE10200090092005906946A3
:103F4000544801F01AFE202000900920059069468F
:103F5000504801F012FE06B010BD70B586B00446A0
:103F60000E464FF4F06002F006FB012002F00FFB5A
:103F7000304602F099F94548844203D1C01402F05A
:103F800006FB05E04248844202D1401402F0FFFAE9
:103F9000684602F065F803990198884202D90398AF
:103FA000450000E0039D284606B070BD00B589B00D
:103FB0004FF480613648FFF7D0FF37490860344836
:103FC000FFF796FF3448006842F21071B0FBF1F041
:103FD000401E324908800022084601882C4800F023
:103FE00027FA05A803F0B9FA7020ADF814000120F3
:103FF000ADF816000420ADF818000020ADF81A0046
:104000000220ADF81C000820ADF81E004001ADF8FC
:1040100020000020ADF8220005A91D4803F0F7F8A4
:1040200005A91B4803F039F905A9194803F081F9DE
:1040300005A9174803F0C6F9684603F0E7FA4FF4FC
:104040000060ADF800004010ADF802008010ADF83F
:1040500004000B20ADF806004FF48050ADF80800C6
:104060004000ADF80A004000ADF80C0001208DF8CA
:104070000E006946064803F099FA054802F0F0FB85
:10408000034803F05CFA09B000BD0000002C0140B9
:104090000034014000340240480000204400002069
:1040A00000B58DB04FF4A061880500F0DDF86B49D4
:1040B0000860032007900020089003200C9007A9B7
:1040C000674801F05AFD03A802F0B0FB4FF6FF70FD
:1040D000ADF810000020ADF80C00ADF81200ADF8FE
:1040E0000E0003A94FF0804002F052FB00231A4655
:1040F00003214FF0804003F0D6FA684602F0C9FE73
:104100000020ADF80000ADF802000120ADF8040079
:104110000020ADF80600ADF8080069464FF0804079
:1041200002F0C0FE0121880703F098FA01218807F8
:1041300003F078FA00214FF0804002F086FB4FF048
:10414000804002F08DFB0DB000BD00B58DB04FF486
:10415000A061444800F088F840490860C0200790FA
:104160000020089003200C9007A93D4801F005FDB0
:1041700003A802F05BFB4FF6FF70ADF810000020C3
:10418000ADF80C00ADF81200ADF80E0003A93548EB
:1041900002F0FEFA00231A460321324803F083FAA4
:1041A000684602F076FE0020ADF80000ADF802008F
:1041B0000120ADF804000020ADF80600ADF80800BD
:1041C0006946284802F06EFE0121264803F046FAAF
:1041D0000121244803F026FA0021224802F035FB91
:1041E000204802F03DFB0DB000BD70B50546022D24
:1041F00002D0032D14D10AE04FF0804002F027FBDB
:1042000004B200214FF0804002F01FFB0AE0154885
:1042100002F01DFB04B20021124802F016FB01E07F
:10422000002400BF00BF204670BD10B501218807E3
:1042300003F004FA012803D10121800703F00EFAEC
:1042400010BD10B50121074803F0F8F9012803D18A
:104250000121044803F002FA10BD00004C000020C8
:10426000003402400004004070B586B004460E469B
:104270004FF4F06002F07FF9012002F088F9304637
:1042800002F009F8B4F1804F03D1012002F075F873
:1042900013E06248844203D1022002F06EF80CE081
:1042A0005F48844203D1042002F067F805E05D48CE
:1042B000844202D1082002F060F8684601F0D0FE86
:1042C000DDE90101884202D90298450000E0029D23
:1042D000284606B070BD10B586B00446684601F0A9
:1042E0007CFCB4F1804F24D1012000900220019089
:1042F00004900320059069464B4801F03EFC0220E3
:104300000090032005906946474801F036FC0420E0
:104310000090032005906946434801F02EFC4FF4BD
:1043200000600090032005906946404801F025FC9C
:1043300071E03A48844223D140200090022001904D
:104340000490032005906946374801F016FC802050
:104350000090032005906946334801F00EFC0120CF
:104360000090032005906946304801F006FC0220C9
:1043700000900320059069462C4801F0FEFB4AE0BE
:104380002748844223D140200090022001900490CD
:10439000032005906946254801F0EFFB802000903E
:1043A000032005906946214801F0E7FBA015009025
:1043B0000320059069461D4801F0DFFB6015009061
:1043C000032005906946194801F0D7FB23E0154802
:1043D000844220D101200090022001900490059099
:1043E0006946114801F0C9FB0220009008200590A1
:1043F00069460D4801F0C1FB04200090072005909C
:104400006946094801F0B9FB08200090059069460B
:10441000054801F0B2FB06B010BD000000040040EA
:1044200000080040000C0040003402400038024008
:1044300070B506460C461546284802F0F7F927489D
:104440008480058000202549C8804880304602F0DD
:104450009FF970BD38B505460C46E8B28DF80000EE
:1044600000208DF8010001208DF80200012C02D1FE
:104470008DF8030002E000208DF80300684600F08C
:10448000D4FA38BD70B505460E461446012002F038
:1044900072F8284600F04EFF3146284601F000F839
:1044A0002146284601F065F870BD2DE9F04104462B
:1044B0000D4616461F46204601F034F86760206816
:1044C00000F0100010B1A660E56001E0A560E660B4
:1044D000204601F022F8BDE8F0810000D80000205D
:1044E0000268B2F5485F02DD4FF44852026002688C
:1044F00012F5485F01DA344A02600A68B2F5485F93
:1045000002DD4FF448520A600A6812F5485F01DA8A
:104510002D4A0A6070470146002901DD0A4600E085
:104520004A421046704770B505460C46002D0CDD1A
:104530000021264802F042FA2846FFF7ECFF86B237
:104540003146224802F041FA0BE02846FFF7E3FF2C
:1045500086B231461D4802F031FA00211B4802F0B4
:1045600034FA002C0CDD2046FFF7D5FF86B2314629
:10457000164802F031FA0021144802F034FA0BE038
:104580000021124802F028FA2046FFF7C4FF86B245
:1045900031460E4802F027FA70BD70B504460D464C
:1045A00095ED000AD4ED000A30EE600ABDEEC00AB7
:1045B00010EE100AFFF7AFFF142804DD044801785D
:1045C0000078FFF7B0FF70BD00CEFFFF0034014060
:1045D0005000002070EEC01A714991ED002A61EE82
:1045E000821A9FED702A31EE422A6F49D1ED002ADE
:1045F00042EE821AFDEEE11A11EE900A704710B5F4
:10460000202001F037F8002858D04021674801F0F9
:10461000F0FA002852D1202001F03AF82021634816
:1046200001F00BFB0220FFF7E0FD4042604908600B
:104630000420FFF7DAFD5F49086004E05E4A5F4945
:104640005F48FCF703FA5F4A5F496048FEF7C9FA22
:104650000028F3D15E4A5F495F48FCF7CFF95F4815
:10466000D0ED000AF8EEE00A5D4890ED001A70EE19
:10467000810AB0EE600A5748B0F9000000EE900AD7
:10468000B8EEE01A5148D0ED000AFFF7A3FF5549F4
:1046900008600846046854480068201A53490860B6
:1046A000514800682044524908605048FFF718FFFD
:1046B0004F4801684D480068FFF735FF10BD10B541
:1046C0000346DFED4C0AB0EE600A8818C01A4A4C67
:1046D0002060F7EE000A30EEC01A2046D0ED000A46
:1046E000F8EEE00A61EE200A444890ED001AB8EEB8
:1046F000C11A40EE010AFDEEE00A4148C0ED000A91
:1047000000683E4C20603F4800683D4C24682044CF
:104710003C4C20602046006842F21074A04201DD4B
:10472000204608E037480068374CA04201DA2046AE
:1047300001E034480068334C2060344890ED001AA2
:104740002F48D0ED000AF8EEE00A61EE200A30486A
:10475000D0ED001A204690ED001AB8EEC11A41EED5
:10476000810AFDEEE00A2B48C0ED000A006810BD8A
:1047700070B52DED048B0446204603F031FC41EC6E
:10478000190B9FED250B53EC102B03F048FB41EC6C
:10479000180B03F036FC05462846BDEC048B70BDB3
:1047A0005C00002000000000600000200038024093
:1047B00090000020940000208E0000208C0000203B
:1047C0008A000020800000207C000020780000206B
:1047D0008800002086000020840000207000002057
:1047E000540000206C00002074000020980000207D
:1047F0009C0000203333333FAC000020A400002095
:10480000B0000020A0000020F0D8FFFF64000020CE
:1048100068000020A8000020333333333333E3BF74
:1048200000B58BB0802001F0A6FE012001F0AFFEA4
:104830004FF4804001F0ABFE05A801F0CEF94FF433
:10484000007005900220069005200A9005A93448C2
:1048500001F093F94FF4806005900220069001204A
:10486000079005200A9005A92D4801F086F92D48EA
:1048700001900020ADF80800ADF80A00ADF80C007A
:10488000ADF810000C20ADF80E0001A9264803F089
:1048900068F8254803F0C7F80BB000BD70B50446B2
:1048A0000D462946204603F032F900BF402120463C
:1048B00003F07BF90028F9D070BD70B506460C46B0
:1048C000002500BF615D3046FFF7E8FF6D1C605DAD
:1048D0000028F7D100BF4021304603F066F90028D8
:1048E000F9D070BD70B504460D46E1B20E4803F034
:1048F0000EF900BF80210C4803F057F90028F9D0C9
:10490000204670BD10B5044600BF2021064803F0C4
:104910004CF90028F9D0044803F0FDF810BD000060
:104920000034024020A107000038014030B50146A4
:10493000B1F1807F01D3012030BD21F07F40401EC6
:104940004FF0E022506150170F22002804DB1307BC
:104950001C0E304B1C5406E013071D0E2E4B00F0AE
:104960000F04241F1D5500BF00204FF0E02290616E
:10497000052010611046006920F00200106100203F
:10498000DAE731B586B0684601F06AFB2349009842
:10499000B0FBF1F52846FFF7C9FF002408E000BF8F
:1049A0004FF0E020006900F480300028F8D0641C4B
:1049B00006988442F3D34FF0E020006920F0010014
:1049C0004FF0E021086107B030BD31B586B06846D0
:1049D00001F046FB4FF47A710098B0FBF1F52846E0
:1049E000FFF7A4FF002408E000BF4FF0E0200069BB
:1049F00000F480300028F8D0641C06988442F3D379
:104A00004FF0E020006920F001004FF0E021086144
:104A100007B030BD00E400E018ED00E040420F00B8
:104A200030490143304A1160704770B500210023BE
:104A30000F22C47804B32C4C246804F4E064C4F559
:104A4000E064210AC1F10403CA40447804FA03F186
:104A50008478144021430901244C0678A155047838
:104A600004F01F050124AC4005786D11AD0005F17F
:104A7000E025C5F8004109E0047804F01F05012491
:104A8000AC401B4D0678761145F8264070BD194A9A
:104A90000A400243144B1B1F1A6070471249091D3C
:104AA00009680143104A121D116070470E49091D23
:104AB000096881430C4A121D11607047042808D10F
:104AC0004FF0E021096941F004014FF0E02211614B
:104AD00007E04FF0E021096921F004014FF0E022E6
:104AE000116170470000FA050CED00E000E400E001
:104AF00080E100E080FFFF1F10B5FB49FB48FC4A46
:104B000012689047F848006810BD10B54FF4805007
:104B100001F04FFD10BDF748006840F48070F54982
:104B200008607047F348006820F48070F14908601D
:104B30007047F048001D006840F00200ED49091D73
:104B400008607047EB48001D006820F00200E9494A
:104B5000091D08607047E749091D096821F46021B3
:104B6000E44A121D11601146096801431160704743
:104B7000E049091D096821F40061DE4A121D116037
:104B800011460968014311607047DA492831096804
:104B900021F47001D74A2832116011460968014397
:104BA0001160704700B50346187810B1FFF7B3FFE6
:104BB00001E0FFF7B7FF587810B1FFF7BAFF01E047
:104BC000FFF7C0FF5868FFF7C6FF9868FFF7D0FFF0
:104BD000D868FFF7DAFF00BD002101704170416025
:104BE0008160C1607047C348001D006840F001004B
:104BF000C049091D08607047BE48001D006820F0CC
:104C00000100BC49091D08607047BA48001D0068D2
:104C100040F48070B749091D08607047B548001D11
:104C2000006820F48070B349091D0860704780282F
:104C300005D8B04909680143AE4A116006E0AD49A4
:104C4000543109680143AB4A5432116070478028DF
:104C500005D8A84909688143A64A116006E0A5491C
:104C6000543109688143A34A5432116070470146A8
:104C700001290CD19F4850300068D0B99D48001DD3
:104C8000006840F004009B4A121D106011E00229E8
:104C90000FD19848001D006800F0040038B1954815
:104CA0005030006808B1002070470120FCE7002068
:104CB000FAE70020F8E70146B1F5A00F07D18D48CB
:104CC000001D006808438B4A121D106017E06FF446
:104CD000A000814207D18748001D00680840854A2E
:104CE000121D10600BE0B1F5800F08D18148001D46
:104CF0000068084008B1012070470020FCE7002050
:104D0000FAE77C49096821F460417A4A116011464A
:104D10000968014311607047B0F5006F05D175490E
:104D200009680143734A11601BE06FF40061884217
:104D300005D17049096801406E4A116011E0B0F573
:104D4000805F05D16B49096801436A4A116008E038
:104D50006FF48051884204D1664909680140654A70
:104D60001160704730B50A460021092816DC01465B
:104D7000604B0C331B6801EB41050724AC40A34397
:104D80005C4C0C34236023461B6801EB410402FA9F
:104D900004F42343574C0C34236028E0112817DC1B
:104DA000A0F10A01534B08331B6801EB41050724AE
:104DB000AC40A3434F4C0834236023461B6801EBEF
:104DC000410402FA04F423434A4C083423600EE001
:104DD000484B58331B6801EB41050724AC40A34303
:104DE000444C5834236023461B681343236030BD72
:104DF00010B5052915DC3F4A3032126801EB8104F9
:104E00001F23A3409A433B4B30331A601A46126863
:104E100001EB810300FA03F31A43364B30331A6077
:104E200032E00B2917DC334A2C3212688B1F03EB5C
:104E300083041F23A3409A432E4B2C331A601A4637
:104E400012688B1F03EB830300FA03F31A43294B09
:104E50002C331A6018E0274A28321268A1F10C039B
:104E600003EB83041F23A3409A43224B28331A6089
:104E70001A461268A1F10C0303EB830300FA03F353
:104E80001A431C4B28331A6010BDB0F5801F07D1A0
:104E90001849091D09680143164A121D116021E0D5
:104EA0006FF48011884207D11249091D0968014039
:104EB000104A121D116015E0B0F5004F07D10D49E1
:104EC000091D096801430B4A121D11600AE06FF4C5
:104ED0000041884206D10749091D09680140054A79
:104EE000121D116070470000B400002068F2FF1F1F
:104EF000BC00002004080240FA48006880B27047F5
:104F0000F8484838006840F48060F649483908603D
:104F10007047F4484838006820F48060F149483907
:104F200008607047EF494439096821F4E041ED4ACF
:104F3000443A116011460968014311607047014607
:104F4000B1F5021F07D1E748443800680843E54A35
:104F5000443A106017E06FF40210814207D1E14833
:104F6000443800680840DF4A443A10600BE0B1F56D
:104F7000001F08D1DB4844380068084008B1012010
:104F800070470020FCE70020FAE710B5D54A143A34
:104F9000126801EB81041F23A3409A43D14B143BB9
:104FA0001A601A46126801EB810300FA03F31A43F0
:104FB000CC4B143B1A6010BDCA491439096821F45E
:104FC0004011C84A143A1160114609680143116042
:104FD000704708B500220092C24A4C3A0092009AEB
:104FE00002440092009A116008BD08B501460020F5
:104FF0000090BC484C38009001F12800009A104401
:1050000000900098006880B208BDB0F5007F10D114
:10501000B44A483A12680243B24B483B1A601A46F7
:10502000126822F01F021A601A4612680A431A60B8
:1050300007E0AC4A483A126822F40072A94B483B98
:105040001A607047A749483909680143A54A483A98
:1050500011607047A349483909688143A14A483A19
:10506000116070479F492839086070479D4924396D
:10507000086070479B484438006840F40000994934
:105080004439086000BF9848006840F48060964941
:10509000086000BF704793484438006820F400005F
:1050A00090494439086000BF8F48006820F4806050
:1050B0008D49086000BF704701468A484C38006837
:1050C000084008B1012070470020FCE70346012B8F
:1050D00008D184484C380068084008B10120704766
:1050E0000020FCE77F480C300068104008B1012028
:1050F000F5E70020F3E77B494C3909688143794A99
:105100004C3A1160704777494C3909688143754AB8
:105110004C3A1160704773480C30006840F40060EE
:1051200070490C31086000BF6F48006840F480602F
:105130006D49086000BF70476A480C30006820F471
:10514000006068490C31086000BF6748006820F4BF
:1051500080606549086000BF704762480C30006895
:1051600040F480605F490C31086070475D480C3046
:10517000006820F480605B490C3108607047594832
:105180000C30006820F0100056490C310860704760
:1051900054480C30006840F0100052490C3108604F
:1051A000704750480C30006840F008004D490C3101
:1051B000086070474B480C30006820F008004949EF
:1051C0000C310860704747480C30006840F004001C
:1051D00044490C310860704742480C30006820F0A8
:1051E000040040490C31086070473E490C310968A1
:1051F00021F003013B4A0C3211601146096801435A
:105200001160704737491031096821F00801354AAB
:10521000103211601146096801431160704700B5F2
:105220000346187810B1FFF776FF01E0FFF784FF1F
:10523000587810B1FFF791FF01E0FFF797FF9878DA
:1052400020B14FF40070FFF7F2FC03E04FF4007060
:10525000FFF7FDFCD87820B14FF48070FFF7E7FC32
:1052600003E04FF48070FFF7F2FC1879012802D1B7
:10527000FFF78EFF01E0FFF782FF587910B1FFF7CB
:1052800090FF01E0FFF796FF987910B1FFF79BFFC1
:1052900001E0FFF7A1FF9868FFF7A7FFD868FFF7C5
:1052A000B1FF00BD0021017041708170C1700171BA
:1052B00041718171032181600021C16070470948FB
:1052C0000C30006840F0800006490C3108607047DF
:1052D00004480C30006820F0800002490C3108605E
:1052E000704700004C080240201800400F49096830
:1052F0000F4A11400D4A11601146096801431160BF
:10530000704770B505460C4601F012F83DB900F043
:10531000FFFF204601F003F8FFF731FF04E02046CD
:1053200000F0EDFFFFF734FF70BD000050080240B1
:105330000100F0FF016821F001010160002101601E
:1053400041608160C1608C49884208D18A4908392E
:10535000496841F00F01884A083A516059E086498E
:105360001431884208D184490839496841F0F00174
:10537000814A083A51604CE07F492831884208D17F
:105380007D490839496841F470617B4A083A5160A7
:105390003FE079493C31884208D17749083949686A
:1053A00041F47041744A083A516032E07249503118
:1053B000884208D170490839496841F470216E4A21
:1053C000083A516025E06C496431884208D16A4945
:1053D0000839496841F47001674A083A516018E099
:1053E00065497831884208D163490839496841F0F4
:1053F0007061614A083A51600BE05F498C31884224
:1054000007D15D490839496841F070415A4A083A64
:1054100051607047026822F48042026002680A43C9
:1054200002607047026822F44052026002680A4338
:1054300002607047026822F02002026002680A439C
:1054400002607047026822F44062026002680A4308
:1054500002607047026822F44072026002680A43E8
:1054600002607047026822F08002026002680A430C
:1054700002607047026822F04002026002680A433C
:105480000260704741607047026822F010020260BB
:1054900002680A4302607047C160704781607047CC
:1054A00010B504460B4620461968FFF7F7FF204663
:1054B0005968FFF7F1FF20469968FFF7E5FF20469E
:1054C000D968FFF7DFFF20461969FFF7D3FF2046B1
:1054D0005969FFF7C7FF20469969FFF7BBFF2046D0
:1054E000D969FFF7AFFF2046196AFFF7A3FF2046EF
:1054F000596AFFF797FF2046996AFFF78BFF10BDA7
:105500000021016041608160C16001614161816190
:10551000C1610162416281627047016841F001012D
:1055200001607047016821F0010101607047026865
:105530000A430260704702688A4302607047416014
:1055400070470146486880B27047024610680840BC
:1055500008B9002070470120FCE74160704702460F
:105560001068084008B9002070470120FCE741603E
:1055700070470161704700000800024000204C495C
:105580000860091D0860091D0860091D08606FF0AA
:105590007F40474914310860704710B5034600202A
:1055A000434819B9104404689C43046010BD10B509
:1055B00000223F4A3E4B08331B6883433C4C08346F
:1055C0002360231D1B688343241D236010290AD1F7
:1055D000231F1B680343241F2360231D1B680343F1
:1055E000241D236004E0324A0A4413680343136015
:1055F00010BD10B50A4600212D490B461B68834398
:105600000C4623600B1D1B6883430C1D2360114453
:105610000B6803430B6010BD10B504462179206868
:10562000FFF7E7FF61792068FFF7C1FF2279A179D1
:105630002068FFF7B2FF10BD0021016001710C214D
:105640004171002181717047194910310968014386
:10565000174A10321160704701461548143000682F
:10566000084008B1012070470020FCE710491431C0
:105670000860704701460E4814300068084028B1A1
:105680000B480068084008B1012070470020FCE783
:10569000074914310860704705491831096800212D
:1056A000034A1832116011460968014311607047BE
:1056B0000004014010B50446FE48844203D1802016
:1056C00000F077FF15E0FC48844203D1801500F01C
:1056D00070FF0EE0F948844203D1401500F069FFE5
:1056E00007E0F748844203D1001500F062FF00E0B4
:1056F00010BD00BFFCE730B501460020002275E078
:105700000123834003EA0102002A6ED00C2808D945
:10571000E84B1B6845000224AC402343E54C236062
:1057200007E0E44B1B6845000324AC402343E14CF5
:10573000236000F008035BB1DE4B24331B68440791
:10574000E50E0F24AC40A343DA4C243423600AE076
:10575000D84B20331B684407E50E0F24AC40A3430D
:10576000D44C20342360D34B1B1D1B680124844080
:10577000A343D04C241D23600F2801D00D280AD14B
:10578000CC4B0C331B6845000124AC402343C94C6F
:105790000C34236016E00E280AD1C64B0C331B686C
:1057A00045000224AC402343C24C0C34236009E082
:1057B000C04B0C331B6845000324AC40A343BD4CD5
:1057C0000C342360BB4B08331B6801248440234303
:1057D000B84C08342360B74B2C331B6845000424B5
:1057E000AC402343B34C2C342360401C41FA00F3FB
:1057F000002B85D130BD30B501460020002268E085
:105800000123834003EA0102002A61D0032801D06A
:10581000042808D1A84B1B6845000224AC40234350
:10582000A54C236007E0A44B1B6845000324AC4053
:105830002343A14C236000F008035BB19E4B24334B
:105840001B684407E50E0F24AC40A3439A4C243454
:1058500023600AE0984B20331B684407E50E0F24B1
:10586000AC40A343944C20342360934B1B1D1C6815
:10587000012383409C43904B1B1D1C6004280AD1CC
:105880008D4B0C331B6845000124AC4023438A4CEC
:105890000C34236009E0884B0C331B68450003245B
:1058A000AC40A343844C0C342360834B08331C6806
:1058B000012383401C43804B08331C607E4B2C33F8
:1058C0001B6845000424AC4023437B4C2C342360EC
:1058D000401C41FA00F3002B92D130BD30B5014697
:1058E000002000223DE00123834003EA0102BAB315
:1058F000724B1B6845000324AC4023436F4C23606C
:105900006E4B24331B684407E50E0F24AC40A343C1
:105910006A4C24342360694B1B1D1C68012383409F
:105920009C43664B1B1D1C60644B0C331B6845007D
:105930000324AC40A343614C0C342360231F1C6838
:10594000012383401C435D4B08331C605B4B2C33AD
:105950001B6845000424AC402343584C2C3423607E
:10596000401C41FA00F3002BBDD130BD30B50146DB
:105970000020002256E00123834003EA0102002AAE
:105980004FD040B94E4B1B6845000024AC40234328
:105990004B4C236007E04A4B1B6845000324AC4096
:1059A0002343474C236000F008034BB1444B5B6A30
:1059B0004407E50E0F24AC40A343414C636208E06A
:1059C0003F4B1B6A4407E50E0F24AC40A3433C4CFD
:1059D00023623B4B5C68012383409C43384B5C60F3
:1059E00038B9DB6845000224AC402343344CE36003
:1059F00009E00C2807D3324BDB6845000324AC4098
:105A0000A3432F4CE3602E4B9C68012383401C432F
:105A10002B4B9C60DB6A45000424AC402343284C9C
:105A2000E362401C41FA00F3002BA4D130BD70B5F5
:105A3000014600220020002313E00124844004EAF0
:105A400001036BB18407E50EFF2404FA05F21D4C37
:105A5000850854F8254094431A4D860845F8264099
:105A6000401C41FA00F4002CE7D170BD00B54FF6A0
:105A7000FF70FFF740FE4FF6FF70FFF7BCFE4FF6DA
:105A8000FF70FFF72BFF4FF6FF70FFF76FFF00BDB2
:105A900030B50346002002F00804BCB1586A540730
:105AA000E50E0F24AC40A0435407E40E01FA04F4C1
:105AB000204309E00034024000380240003C02402C
:105AC000004002400400014058620BE0186A54078D
:105AD000E50E0F24AC40A0435407E40E01FA04F491
