:020000040800F2
:10000000281500202901000885040008870400083D
:100010008B0400088F04000893040008000000000F
:10002000000000000000000000000000970400082D
:1000300099040008000000003F0100089B0400082C
:100040004301000843010008430100084301000880
:100050004301000843010008430100084301000870
:100060004301000843010008430100084301000860
:100070004301000843010008430100084301000850
:100080004301000843010008430100084301000840
:10009000430100084301000851040008430100081F
:1000A000430100084301000843010008AD0A0008AD
:1000B000C30A000843010008430100084301000887
:1000C0004301000843010008430100084301000800
:1000D00043010008430100084301000843010008F0
:1000E00043010008430100084301000843010008E0
:1000F00043010008430100084301000843010008D0
:1001000043010008430100084301000843010008BF
:1001100043010008DFF80CD003F002FC0048004760
:10012000C1030008281500200648804706480047FC
:10013000FEE7FEE7FEE7FEE7FEE7FEE7FEE7FEE797
:10014000FEE7FEE74B020008150100080FB500208E
:100150000290019000908E48006840F480308C49F5
:10016000086000BF8A480068C0F3404001900098D2
:10017000401C00909DF8040018B90098B0F5005F8D
:10018000F0D183480068C0F3404001909DF804001E
:1001900018B98048804908600FBD8048006820F089
:1001A00007007E4908600846006840F003000860C8
:1001B00077484068764948600846406840F40050F7
:1001C00048600846406840F4A060486008464068BF
:1001D000734908406E4948600846006C20F00100F1
:1001E0000864084640680390039840F48030039008
:1001F000039840F4003003906A4903980843039041
:10020000634903984860029808640846006840F013
:100210008070086000BF5E48006800F00070002831
:10022000F9D05B48406820F003005949486008460F
:10023000406840F00200486000BF5548406800F048
:100240000C000828F9D100BFA6E710B55648006891
:1002500040F47000544908604D48006840F00100C7
:100260004B49086008464068504908404849486082
:10027000084600684E49084045490860084600683D
:1002800020F48020086008464068454908404049FD
:1002900048604FF46050C862002008644548886098
:1002A0000846C06940F08050C8610846C06920F027
:1002B0008050C8613948006840F0800037490860C4
:1002C0000846006820F010000860FFF73FFF4FF07D
:1002D000006035498039086010BD10B5002100204C
:1002E00000222B4B5B6803F00C0121B1042906D0DE
:1002F00008293CD107E0274B274C23603BE0254BE6
:10030000254C236037E0224B5B68264C03EA04004F
:100310001F4B5B6803F4803200F000631BB90223BB
:1003200003EB904004E04FF4F873C3EB9043581C88
:1003300072B9174B1B6C03F0010323B11E4B4343EF
:10034000154C236012E0134B4343134C23600DE024
:100350000F4B5B6803F4003323B1174B43430E4C40
:10036000236003E00B4B43430B4C236003E0094B3A
:10037000094C236000BF00BF054B5B68C3F3031348
:100380000E4CE15C044B1B68CB40034C236010BD5A
:100390000010024000127A000000002000200240FD
:1003A000FFFFC0F700003C0888ED00E00CC07FF8BC
:1003B000FFFFF6FE00009F0400093D0062390008BF
:1003C00000F06CF800F051F900F088F800F0A6F8A1
:1003D0004FF40041284800F0B1F900F086FA36E009
:1003E0000421254801F067FCD0B94FF44851234857
:1003F00002F046FB4FF41651204802F048FB4FF440
:10040000C8511E4802F04AFB4FF448611B4802F0F5
:100410004CFB00BF4FF40051194801F066FC16E098
:100420000021164802F02CFB0021144802F02FFB9B
:100430000021124802F032FB0021104802F035FB87
:1004400000BF4FF400510E4801F04DFC00BFC7E75C
:1004500010B5202001F070F968B14FF40041064852
:1004600001F029FC38B94FF40051054801F047FC70
:10047000202001F06FF910BD003802400034014027
:10048000003C0240704700BFFEE700BFFEE700BF30
:10049000FEE700BFFEE770477047704700B587B0C2
:1004A000802002F0CAF801A801F0F9FB4FF4805057
:1004B00001900020049001200290039001A90648B9
:1004C00001F0BDFB00BF4FF48051034801F00BFC6D
:1004D00000BF07B000BD00000034024000B587B087
:1004E0004FF4007002F0A9F801A801F0D8FB4FF416
:1004F000005001900020049001200290039001A977
:10050000054801F09CFB00BF4FF40051024801F088
:10051000EAFB00BF07B000BD003C024000B587B059
:100520004FF4807002F089F801A801F0B8FB0420B4
:1005300001900020049002900120039001A9364808
:1005400001F07DFB07B000BD10B53448007820B144
:1005500001281FD0022848D138E004212E4801F09C
:10056000AAFB60B92E480088401C2D490880084627
:10057000008846280DDB01202849087009E028483A
:100580000088022802DB0120264908700020244947
:10059000088030E00421204801F08DFB68B9204834
:1005A0000088401C1E49088008460088B0F5967FE8
:1005B0000BDB02201949087007E00020174908707A
:1005C0001749088001201849087014E004211248D6
:1005D00001F071FB012807D1002010490870104973
:1005E000088001201049087005E000200B490870C0
:1005F0000B49088000BF00BF10BD0A4800780128E1
:1006000002D100200749087007480078012802D16C
:10061000002005490870704700380240040000209F
:1006200006000020080000200900002010B541F25B
:10063000011002F002F80721002000F0C4FE4FF480
:1006400060514FF4806001F0B0FE10BD00B587B07E
:1006500001A801F024FB022001900320029001A9CF
:10066000324801F0ECFA07B000BD00B58FB0FFF7DB
:10067000DDFFFFF7EBFF2E4800F0BEFE2D48009097
:100680002D4801900020029001200390002004904A
:100690008020059040000690800007902020089060
:1006A0000002099000200A906946214800F05AFF94
:1006B00000211F4800F0BFFF1D4800F090FF0BA86D
:1006C00000F0ECFA00208DF82C0001208DF82D00B0
:1006D00000200D904FF460200C9000200E900BA88D
:1006E00000F0C2FA05210A2000F09EFB00210A203A
:1006F00000F0E0FB00F0EBFA00F0D7FA00BF202298
:100700004021022000F044FD0028F8D0012000F034
:1007100010FB03E04FF4A00000F02FFB022000F0DC
:1007200008FB0028F6D10FB000BD000000380240E1
:10073000080002404C0802400C00002030B589B08F
:1007400004460D462B48844206D1802001F075FFF7
:10075000012001F07EFF1FE02748844206D180156A
:1007600001F06BFF012001F074FF15E02348844283
:1007700006D1401501F061FF012001F06AFF0BE096
:100780001F48844206D1001501F057FF012001F0F7
:1007900060FF01E009B030BDB5F5803F09DA03A87C
:1007A00001F07DFA03950120059003A9204601F090
:1007B00046FA3D21052001F0DEFA202001900020BC
:1007C0008DF808000C208DF8090001208DF80A0032
:1007D00001A800F083FF16208DF8000000208DF89E
:1007E000020001208DF80300684600F080F900BF88
:1007F000D0E700000034024000380240003C0240D4
:10080000004002407FB506460C461546684602F099
:100810006FF8ADF80440ADF800500020ADF80600C8
:10082000ADF802006946304602F014F87FBD10B5FD
:1008300086B00446684601F032FA6348844203D128
:1008400002200190049025E06048844222D10220D9
:1008500001900490042000900920059069465C48AE
:1008600001F0EDF9082000900A20059069465848EB
:1008700001F0E5F9102000900920059069465448E0
:1008800001F0DDF9202000900920059069465048CC
:1008900001F0D5F906B010BD70B586B004460E461D
:1008A0004FF4F06001F0C9FE012001F0D2FE3046A5
:1008B00001F05CFD4448844203D1C01401F0C9FE3C
:1008C00005E04248844202D1401401F0C2FE68466D
:1008D00001F028FC03990198884202D90398450049
:1008E00000E0039D284606B070BD00B589B04FF406
:1008F00080613648FFF7D0FF364908603348FFF77C
:1009000096FF3448006842F21071B0FBF1F0401ECF
:10091000314908800022084601882C48FFF772FF01
:1009200005A802F07CFE7020ADF814000120ADF89F
:1009300016000420ADF818000020ADF81A000220BF
:10094000ADF81C000820ADF81E004001ADF82000F5
:100950000020ADF8220005A91C4802F0BAFC05A948
:100960001A4802F0FCFC05A9184802F044FD05A94C
:10097000164802F089FD684602F0AAFE4FF40060B6
:10098000ADF800004010ADF802008010ADF8040092
:100990000B20ADF806004FF48050ADF80800400081
:1009A000ADF80A004000ADF80C0001208DF80E00F3
:1009B0006946064802F05CFE044801F0B3FF0348B4
:1009C00002F01FFE09B000BD002C014000340140C0
:1009D00000340240140000201000002000B58DB04B
:1009E000802001F02AFE4FF4A06001F0B6FC012047
:1009F00001F025FD032007900020089007A9364844
:100A000001F01DF903A801F073FF4FF6FF70ADF878
:100A100010000020ADF80C00ADF81200ADF80E008B
:100A200003A94FF0804001F015FF00231A4603216F
:100A30004FF0804002F099FE684602F08CFA0A20DE
:100A4000ADF808006946400702F08EFA01218807D8
:100A500002F066FE00214FF0804001F058FF4FF099
:100A6000804001F05FFF0DB000BD704770B50546D6
:100A7000022D02D0042D14D10AE04FF0804001F085
:100A800048FF04B200214FF0804001F040FF0AE02F
:100A9000124801F03EFF04B20021104801F037FF78
:100AA00001E0002400BF00BF204670BD10B5012149
:100AB000880702F025FE18B10121880702F030FEF8
:100AC00010BD10B50121064802F01AFE18B101212F
:100AD000034802F025FE10BD00340240000800402B
:100AE0000004004030490143304A1160704770B53E
:100AF000002100230F22C47804B32C4C246804F492
:100B0000E064C4F5E064210AC1F10403CA404478FA
:100B100004FA03F18478144021430901244C067837
:100B2000A155047804F01F050124AC4005786D112F
:100B3000AD0005F1E025C5F8004109E0047804F0B6
:100B40001F050124AC401B4D0678761145F8264060
:100B500070BD194A0A400243144B1B1F1A607047AC
:100B60001249091D09680143104A121D116070479E
:100B70000E49091D096881430C4A121D1160704716
:100B8000042808D14FF0E021096941F004014FF039
:100B9000E022116107E04FF0E021096921F0040132
:100BA0004FF0E022116170470000FA050CED00E003
:100BB00000E400E080E100E080FFFF1F10B5FB498A
:100BC000FB48FC4A12689047F848006810BD10B511
:100BD0004FF4805001F04FFD10BDF748006840F41D
:100BE0008070F54908607047F348006820F4807011
:100BF000F14908607047F048001D006840F00200AD
:100C0000ED49091D08607047EB48001D006820F0A1
:100C10000200E949091D08607047E749091D096894
:100C200021F46021E44A121D116011460968014354
:100C300011607047E049091D096821F40061DE4A2E
:100C4000121D116011460968014311607047DA49AD
:100C50002831096821F47001D74A28321160114601
:100C6000096801431160704700B50346187810B158
:100C7000FFF7B3FF01E0FFF7B7FF587810B1FFF7B8
:100C8000BAFF01E0FFF7C0FF5868FFF7C6FF98689A
:100C9000FFF7D0FFD868FFF7DAFF00BD0021017031
:100CA000417041608160C1607047C348001D0068A9
:100CB00040F00100C049091D08607047BE48001D92
:100CC000006820F00100BC49091D08607047BA485F
:100CD000001D006840F48070B749091D0860704726
:100CE000B548001D006820F48070B349091D0860F4
:100CF0007047802805D8B04909680143AE4A1160A1
:100D000006E0AD49543109680143AB4A54321160E1
:100D10007047802805D8A84909688143A64A116010
:100D200006E0A549543109688143A34A5432116051
:100D30007047014601290CD19F4850300068D0B956
:100D40009D48001D006840F004009B4A121D106081
:100D500011E002290FD19848001D006800F004003E
:100D600038B195485030006808B100207047012024
:100D7000FCE70020FAE70020F8E70146B1F5A00FF4
:100D800007D18D48001D006808438B4A121D106072
:100D900017E06FF4A000814207D18748001D00686A
:100DA0000840854A121D10600BE0B1F5800F08D194
:100DB0008148001D0068084008B1012070470020EC
:100DC000FCE70020FAE77C49096821F460417A4A8F
:100DD000116011460968014311607047B0F5006F5A
:100DE00005D1754909680143734A11601BE06FF42E
:100DF0000061884205D17049096801406E4A11605E
:100E000011E0B0F5805F05D16B49096801436A4A7A
:100E1000116008E06FF48051884204D16649096886
:100E20000140654A1160704730B50A460021092823
:100E300016DC0146604B0C331B6801EB41050724AF
:100E4000AC40A3435C4C0C34236023461B6801EB8D
:100E5000410402FA04F42343574C0C34236028E085
:100E6000112817DCA0F10A01534B08331B6801EB72
:100E700041050724AC40A3434F4C0834236023466C
:100E80001B6801EB410402FA04F423434A4C083482
:100E900023600EE0484B58331B6801EB41050724E3
:100EA000AC40A343444C5834236023461B6813438F
:100EB000236030BD10B5052915DC3F4A3032126879
:100EC00001EB81041F23A3409A433B4B30331A604C
:100ED0001A46126801EB810300FA03F31A43364BFA
:100EE00030331A6032E00B2917DC334A2C32126897
:100EF0008B1F03EB83041F23A3409A432E4B2C33F9
:100F00001A601A4612688B1F03EB830300FA03F37F
:100F10001A43294B2C331A6018E0274A28321268EA
:100F2000A1F10C0303EB83041F23A3409A43224B3C
:100F300028331A601A461268A1F10C0303EB8303ED
:100F400000FA03F31A431C4B28331A6010BDB0F5A6
:100F5000801F07D11849091D09680143164A121D4F
:100F6000116021E06FF48011884207D11249091DF8
:100F700009680140104A121D116015E0B0F5004FDC
:100F800007D10D49091D096801430B4A121D116063
:100F90000AE06FF40041884206D10749091D09683B
:100FA0000140054A121D1160704700001800002022
:100FB00068F2FF1F2000002004080240FA48006881
:100FC00080B27047F8484838006840F48060F649BD
:100FD000483908607047F4484838006820F4806059
:100FE000F149483908607047EF494439096821F4EC
:100FF000E041ED4A443A116011460968014311602D
:1010000070470146B1F5021F07D1E7484438006830
:101010000843E54A443A106017E06FF40210814239
:1010200007D1E148443800680840DF4A443A10607C
:101030000BE0B1F5001F08D1DB48443800680840D8
:1010400008B1012070470020FCE70020FAE710B546
:10105000D54A143A126801EB81041F23A3409A4336
:10106000D14B143B1A601A46126801EB810300FA57
:1010700003F31A43CC4B143B1A6010BDCA49143910
:10108000096821F44011C84A143A116011460968F0
:1010900001431160704708B500220092C24A4C3AE1
:1010A0000092009A02440092009A116008BD08B5AF
:1010B000014600200090BC484C38009001F1280007
:1010C000009A104400900098006880B208BDB0F506
:1010D000007F10D1B44A483A12680243B24B483BF1
:1010E0001A601A46126822F01F021A601A46126825
:1010F0000A431A6007E0AC4A483A126822F40072C8
:10110000A94B483B1A607047A74948390968014311
:10111000A54A483A11607047A34948390968814394
:10112000A14A483A116070479F49283908607047C2
:101130009D492439086070479B484438006840F452
:10114000000099494439086000BF9848006840F49D
:1011500080609649086000BF704793484438006833
:1011600020F4000090494439086000BF8F480068AF
:1011700020F480608D49086000BF704701468A48AE
:101180004C380068084008B1012070470020FCE797
:101190000346012B08D184484C380068084008B148
:1011A000012070470020FCE77F480C3000681040A9
:1011B00008B10120F5E70020F3E77B494C390968C5
:1011C0008143794A4C3A1160704777494C39096834
:1011D0008143754A4C3A1160704773480C3000687F
:1011E00040F4006070490C31086000BF6F4800682F
:1011F00040F480606D49086000BF70476A480C3059
:10120000006820F4006068490C31086000BF67483E
:10121000006820F480606549086000BF704762483C
:101220000C30006840F480605F490C310860704702
:101230005D480C30006820F480605B490C31086028
:10124000704759480C30006820F0100056490C31A6
:101250000860704754480C30006840F01000524954
:101260000C310860704750480C30006840F00800AE
:101270004D490C31086070474B480C30006820F035
:10128000080049490C310860704747480C30006835
:1012900040F0040044490C310860704742480C306B
:1012A000006820F0040040490C31086070473E4956
:1012B0000C31096821F003013B4A0C3211601146E0
:1012C000096801431160704737491031096821F0FE
:1012D0000801354A10321160114609680143116056
:1012E000704700B50346187810B1FFF776FF01E0AC
:1012F000FFF784FF587810B1FFF791FF01E0FFF787
:1013000097FF987820B14FF40070FFF7F2FC03E0EC
:101310004FF40070FFF7FDFCD87820B14FF48070D7
:10132000FFF7E7FC03E04FF48070FFF7F2FC187959
:10133000012802D1FFF78EFF01E0FFF782FF587905
:1013400010B1FFF790FF01E0FFF796FF987910B119
:10135000FFF79BFF01E0FFF7A1FF9868FFF7A7FFEA
:10136000D868FFF7B1FF00BD0021017041708170A6
:10137000C170017141718171032181600021C160DF
:10138000704709480C30006840F0800006490C3175
:101390000860704704480C30006820F08000024963
:1013A0000C310860704700004C08024020180040D3
:1013B0000F4909680F4A11400D4A1160114609682A
:1013C00001431160704770B505460C4601F012F8F4
:1013D0003DB900F0FFFF204601F003F8FFF731FFB1
:1013E00004E0204600F0EDFFFFF734FF70BD000081
:1013F000500802400100F0FF016821F00101016086
:101400000021016041608160C1608C49884208D13F
:101410008A490839496841F00F01884A083A516001
:1014200059E086491431884208D18449083949680D
:1014300041F0F001814A083A51604CE07F4928317F
:10144000884208D17D490839496841F470617B4A76
:10145000083A51603FE079493C31884208D17749E8
:101460000839496841F47041744A083A516032E0E1
:1014700072495031884208D170490839496841F4AD
:1014800070216E4A083A516025E06C496431884207
:1014900008D16A490839496841F47001674A083A35
:1014A000516018E065497831884208D163490839AC
:1014B000496841F07061614A083A51600BE05F4948
:1014C0008C31884207D15D490839496841F0704143
:1014D0005A4A083A51607047026822F4804202601A
:1014E00002680A4302607047026822F440520260B8
:1014F00002680A4302607047026822F0200202601C
:1015000002680A4302607047026822F44062026087
:1015100002680A4302607047026822F44072026067
:1015200002680A4302607047026822F0800202608B
:1015300002680A4302607047026822F040020260BB
:1015400002680A430260704741607047026822F0F7
:101550001002026002680A4302607047C16070476F
:101560008160704710B504460B4620461968FFF7A6
:10157000F7FF20465968FFF7F1FF20469968FFF70B
:10158000E5FF2046D968FFF7DFFF20461969FFF71E
:10159000D3FF20465969FFF7C7FF20469969FFF737
:1015A000BBFF2046D969FFF7AFFF2046196AFFF756
:1015B000A3FF2046596AFFF797FF2046996AFFF775
:1015C0008BFF10BD0021016041608160C16001613D
:1015D00041618161C161016241628162704701685C
:1015E00041F0010101607047016821F001010160D3
:1015F000704702680A430260704702688A430260CB
:101600007047416070470146486880B270470246A3
:101610001068084008B9002070470120FCE74160CD
:10162000704702461068084008B900207047012042
:10163000FCE741607047016170470000080002400C
:1016400000204C490860091D0860091D0860091D3B
:1016500008606FF07F40474914310860704710B54B
:1016600003460020434819B9104404689C430460B1
:1016700010BD10B500223F4A3E4B08331B68834320
:101680003C4C08342360231D1B688343241D2360C6
:1016900010290AD1231F1B680343241F2360231D25
:1016A0001B680343241D236004E0324A0A44136884
:1016B0000343136010BD10B50A4600212D490B46A7
:1016C0001B6883430C4623600B1D1B6883430C1D62
:1016D000236011440B6803430B6010BD10B5044632
:1016E00021792068FFF7E7FF61792068FFF7C1FFE4
:1016F0002279A1792068FFF7B2FF10BD00210160B7
:1017000001710C214171002181717047194910311B
:1017100009680143174A10321160704701461548A5
:1017200014300068084008B1012070470020FCE731
:10173000104914310860704701460E4814300068A3
:10174000084028B10B480068084008B101207047E4
:101750000020FCE70749143108607047054918313B
:1017600009680021034A18321160114609680143D3
:10177000116070470004014010B50446FE488442E1
:1017800003D1802000F077FF15E0FC48844203D1AC
:10179000801500F070FF0EE0F948844203D1401537
:1017A00000F069FF07E0F748844203D1001500F01C
:1017B00062FF00E010BD00BFFCE730B5014600202D
:1017C000002275E00123834003EA0102002A6ED063
:1017D0000C2808D9E84B1B6845000224AC40234381
:1017E000E54C236007E0E44B1B6845000324AC4054
:1017F0002343E14C236000F008035BB1DE4B24334C
:101800001B684407E50E0F24AC40A343DA4C243494
:1018100023600AE0D84B20331B684407E50E0F24F1
:10182000AC40A343D44C20342360D34B1B1D1B6816
:1018300001248440A343D04C241D23600F2801D0F1
:101840000D280AD1CC4B0C331B6845000124AC4059
:101850002343C94C0C34236016E00E280AD1C64B32
:101860000C331B6845000224AC402343C24C0C34AB
:10187000236009E0C04B0C331B6845000324AC40D7
:10188000A343BD4C0C342360BB4B08331B680124BD
:1018900084402343B84C08342360B74B2C331B6877
:1018A00045000424AC402343B34C2C342360401C3B
:1018B00041FA00F3002B85D130BD30B50146002040
:1018C000002268E00123834003EA0102002A61D07C
:1018D000032801D0042808D1A84B1B684500022426
:1018E000AC402343A54C236007E0A44B1B68450094
:1018F0000324AC402343A14C236000F008035BB1F8
:101900009E4B24331B684407E50E0F24AC40A343D1
:101910009A4C243423600AE0984B20331B68440718
:10192000E50E0F24AC40A343944C20342360934B2A
:101930001B1D1C68012383409C43904B1B1D1C6096
:1019400004280AD18D4B0C331B6845000124AC40A0
:1019500023438A4C0C34236009E0884B0C331B680A
:1019600045000324AC40A343844C0C342360834BD8
:1019700008331C68012383401C43804B08331C60E0
:101980007E4B2C331B6845000424AC4023437B4C26
:101990002C342360401C41FA00F3002B92D130BD5F
:1019A00030B50146002000223DE00123834003EAD8
:1019B0000102BAB3724B1B6845000324AC402343B9
:1019C0006F4C23606E4B24331B684407E50E0F24D5
:1019D000AC40A3436A4C24342360694B1B1D1C6834
:1019E000012383409C43664B1B1D1C60644B0C33DE
:1019F0001B6845000324AC40A343614C0C342360B6
:101A0000231F1C68012383401C435D4B08331C606B
:101A10005B4B2C331B6845000424AC402343584CDB
:101A20002C342360401C41FA00F3002BBDD130BDA3
:101A300030B501460020002256E00123834003EA2E
:101A40000102002A4FD040B94E4B1B6845000024CC
:101A5000AC4023434B4C236007E04A4B1B684500D6
:101A60000324AC402343474C236000F008034BB1F0
:101A7000444B5B6A4407E50E0F24AC40A343414C42
:101A8000636208E03F4B1B6A4407E50E0F24AC403D
:101A9000A3433C4C23623B4B5C68012383409C4343
:101AA000384B5C6038B9DB6845000224AC40234306
:101AB000344CE36009E00C2807D3324BDB68450067
:101AC0000324AC40A3432F4CE3602E4B9C680123BE
:101AD00083401C432B4B9C60DB6A45000424AC40D4
:101AE0002343284CE362401C41FA00F3002BA4D1AD
:101AF00030BD70B5014600220020002313E0012410
:101B0000844004EA01036BB18407E50EFF2404FA64
:101B100005F21D4C850854F8254094431A4D86085B
:101B200045F82640401C41FA00F4002CE7D170BD76
:101B300000B54FF6FF70FFF740FE4FF6FF70FFF75E
:101B4000BCFE4FF6FF70FFF72BFF4FF6FF70FFF75D
:101B50006FFF00BD30B50346002002F00804BCB1A1
:101B6000586A5407E50E0F24AC40A0435407E40E16
:101B700001FA04F4204309E0003402400038024036
:101B8000003C0240004002400400014058620BE06B
:101B9000186A5407E50E0F24AC40A0435407E40E26
:101BA00001FA04F42043186230BD70B503460020EA
:101BB0000024186801F0030456000325B540A8432B
:101BC000550004FA05F528431860012905D01129AC
:101BD00003D0022901D0122908D158680125954067
:101BE000A843C1F3001595402843586070BD30B537
:101BF0000B460021C16855000324AC40A1435400AA
:101C000003FA04F42143C16030BD10B50B46002136
:101C1000816801249440A14303FA02F421438160C6
:101C200010BD30B50B460021C16A55000324AC40FD
:101C3000A143540003FA04F42143C16230BDF0B55E
:101C400006460C46002500271FE00121A940206818
:101C500000EA0107C7B12A4630466169FFF77AFFFB
:101C60002A4630466168FFF7A0FF2A463046A16841
:101C7000FFF7BDFF2A463046E168FFF7C6FF2A4658
:101C800030462169FFF7CDFF6D1C2068E840002831
:101C9000DBD1F0BD10B5012000F0F7FC10BD4FF610
:101CA000FF7101600021C16041600F21416100218D
:101CB00081600161704702461069084008B1012047
:101CC00070470020FCE70146086980B27047024671
:101CD0005069084008B1012070470020FCE7014628
:101CE000486980B2704781617047816270470A46D7
:101CF0001304836170478162704741617047426994
:101D00004A4042617047002241F48032C261C161A1
:101D1000C261C269C2697047F0B503461546002228
:101D200000200BB9CA4E08E0012B01D1C94E04E0D6
:101D3000022B01D1C84E00E0C84E344601F008061F
:101D400066B101F00702606A97000F26BE40B043FB
:101D5000960005FA06F6304360620BE001F00702D8
:101D6000206A97000F26BE40B043960005FA06F69B
:101D700030432062F0BD10B5B94A831052F82320D9
:101D80008307DC0E3F23A3409A43B54B841043F8EE
:101D900024201A46831052F823208307DB0E01FA11
:101DA00003F31A43AE4B841043F8242010BD0A46B7
:101DB0000021AB4B1B1F1B68C3F30B010AB101438E
:101DC00000E08143A64B1B1F1960704702460020AC
:101DD000092A11D1A24B1B1F186820F40070112989
:101DE00002D140F4007003E020F0F00040EA01105E
:101DF0009B4B1B1F186011E0082A0FD1984B1B1F2B
:101E0000186820F48070102902D140F4807002E03C
:101E100020F00F000843924B1B1F18607047904939
:101E2000091F496981438E4A121F516170478C49CD
:101E3000091F496901438A4A121F51617047884945
:101E4000091F0862704710B5814B984201D10023E9
:101E50000AE0804B984201D1012305E07E4B984275
:101E600001D1022300E003231A4602F00203ABB9BA
:101E7000774B984207D17A4B1B1F9B690B43784CD9
:101E8000241FA3611FE0734B98421CD1744B1B1F8E
:101E90009B690B43724C241FA36114E06E4B984264
:101EA00007D16F4B1B1FDB690B436D4C241FE36194
:101EB00009E06A4B984206D1694B1B1FDB690B4353
:101EC000674C241FE36110BD10B5614B984201D1EE
:101ED00000230AE05F4B984201D1012305E05E4BED
:101EE000984201D1022300E003231A4602F00203C4
:101EF000ABB9574B984207D1594B1B1F9B698B437A
:101F0000574C241FA3611FE0524B98421CD1544BE5
:101F10001B1F9B698B43524C241FA36114E04E4B43
:101F2000984207D14E4B1B1FDB698B434C4C241F3F
:101F3000E36109E0494B984206D1494B1B1FDB691D
:101F40008B43474C241FE36110BD10B5404B9842B2
:101F500001D100230AE03F4B984201D1012305E063
:101F60003D4B984201D1022300E003231A4602F0C0
:101F70000203ABB9364B984207D1394B1B1F5B6A42
:101F80000B43374C241F63621FE0324B98421CD135
:101F9000334B1B1F5B6A0B43314C241F636214E0FD
:101FA0002D4B984207D12E4B1B1F9B6A0B432C4C89
:101FB000241FA36209E0294B984206D1284B1B1F1E
:101FC0009B6A0B43264C241FA36210BD10B5204B07
:101FD000984201D100230AE01E4B984201D101230F
:101FE00005E01D4B984201D1022300E003231A466D
:101FF00002F00203ABB9164B984207D1184B1B1FD6
:102000005B6A8B43164C241F63621FE0114B98429E
:102010001CD1134B1B1F5B6A8B43114C241F636243
:1020200014E00D4B984207D10D4B1B1F9B6A8B434D
:102030000B4C241FA36209E0084B984206D1084BC1
:102040001B1F9B6A8B43064C241FA36210BD00001C
:102050000034024000380240003C02400040024090
:1020600004000140F948006840F00100F7490860A9
:1020700008464068F6490840F44948600846006848
:10208000F4490840F14908600846006820F48020BF
:10209000086008464068F0490840EC4948604FF441
:1020A0006050C86200200864EC4888607047E749C7
:1020B000096821F48031E54A11601146096821F46C
:1020C00080211160B0F5803F05D11146096841F4C7
:1020D0008031116008E0B0F5802F05D1DB49096837
:1020E00041F4A021D94A1160704701460022002323
:1020F0004A11012A02D0022A06D102E0D34803681D
:1021000005E0D248036A02E0D048436A00BF00BF3E
:1021100001F01F0201209040184008B101207047D3
:102120000020FCE7F0B5002200BF002100250024BC
:10213000C64E7668CA4F06EA0701C44E766806F4B2
:10214000803501F000661EB9022606EB914104E0DD
:102150004FF4F876C6EB9146711C65B9BB4E366CF0
:1021600006F001061EB1BF4E01FB06F30FE0BE4EA6
:1021700001FB06F30BE0B54E766806F400361EB19F
:10218000B84E01FB06F302E0B74E01FB06F3AF4E7B
:10219000766806F00C0222B1042A05D0082A08D17C
:1021A00005E0B14E066007E0AF4E066004E0036054
:1021B00002E0AD4E066000BF00BFA44E7668C6F3D5
:1021C0000312AA4EB45C0668E64046609F4E7668ED
:1021D000C6F30222A54EB45C4668E64086609B4E7C
:1021E0007668C6F3C222A14EB45C4668E640C6607B
:1021F000964EF66A06F00F029D4EB45C4668B6FB3A
:10220000F4F64661914EF66AC6F3041202F00F0628
:10221000984F37F81640B3FBF4F60661F0BD30B5C1
:1022200087B000200690002400256846FFF77AFF5B
:1022300091490098B1FBF0F04FF40051B1FBF0F47C
:1022400000BF3120FFF751FF05460698401C06905D
:102250000698A04201D0002DF3D03120FFF745FFB2
:1022600010B1012007B030BD0020FBE701208349F9
:10227000C864704700208149C86470470146002047
:10228000724A106820F0F80040EAC1001060704700
:1022900001207A490860704700207849086070473B
:1022A00030B587B000200690002400256846FFF76F
:1022B00039FF71490098B1FBF0F04FF40051B1FBC8
:1022C000F0F400BF2120FFF710FF05460698401CE0
:1022D00006900698A04201D0002DF3D02120FFF7F0
:1022E00004FF10B1012007B030BD0020FBE710B59E
:1022F0000A460023554C6168236C574C214023F05B
:10230000010308B1012802D11143034302E040EA6E
:10231000020421434D4C6160236410BD01205749E4
:10232000086670470020554908667047014600203E
:10233000464A506820F00300084350607047434805
:10234000406800F00C007047014600203F4A50688A
:1023500020F0F000084350607047014600203B4ADF
:10236000506820F4E0600843506070470146002048
:10237000364A506820F4605040EAC100506070470F
:10238000324989680143314A916070472F49896811
:1023900081432E4A91607047014600202B4AD06A43
:1023A00020F000500843D062704702460020274BBF
:1023B000D86A20F4806020F4784010430843D86243
:1023C000704701460020214AD06A20F4F870084383
:1023D000D06270471D48C06A20F480701B49C862F3
:1023E000704701460020194AD06A20F00F000843C8
:1023F000D062704715488030006840F001001349F2
:10240000C1F88000704711488030006820F001005A
:102410000E49C1F8800070470021194A11696FF315
:102420000801B0F5007F02DB40F2FF1001E0C0F3CD
:10243000080040F480621143114A1161704703495A
:10244000C9690143014AD161704700000010024090
:102450000CC07FF8FFFFF6FEFFFFC0F700009F04EF
:1024600000003C0800093D0000127A0072390008A3
:1024700082390008923900080020A107000042427A
:102480000070004010B504460B464FF08050FFF737
:10249000D6FFA248006840F48070A0490860A048B8
:1024A000006A20F005009E490862012C02D0042C2D
:1024B00011D109E09A48006A40F001009849086289
:1024C0001846FFF7A9FF07E09548006A40F00500AD
:1024D0009349086200E000BF00BF10BD0120914990
:1024E0000860704700208F49086070478C48006A78
:1024F00000F0100008B1012070470020FCE730B563
:1025000087B000200690002400256846FFF70AFEE9
:1025100085490098B1FBF0F04FF40051B1FBF0F4A5
:1025200000BF4120FFF7E1FD05460698401C0690DC
:102530000698A04201D0002DF3D04120FFF7D5FD31
:1025400010B1012007B030BD0020FBE70120754924
:102550007431086070470020724974310860704718
:1025600030B587B000200690002400256846FFF7AC
:10257000D9FD6D490098B1FBF0F04FF40051B1FB6B
:10258000F0F400BF6120FFF7B0FD05460698401C3F
:1025900006900698A04201D0002DF3D06120FFF7ED
:1025A000A4FD10B1012007B030BD0020FBE75C495D
:1025B000096A21F440715A4A11621146096A0143BD
:1025C0001162704701205749303108607047002080
:1025D000544930310860704700B503464FF08050D1
:1025E000FFF72DFF4D48006840F480704B490860AC
:1025F0004B48406B20F00700494948630846406B50
:102600001843486300BD4648406B40F4806044492D
:1026100048630846406B20F4806048637047404838
:10262000406B40F040003E49486370473C48406B77
:1026300020F040003A4948637047394949690143ED
:10264000374A51617047364949698143344A51617B
:102650007047334989690143314A91617047304974
:10266000896981432E4A916170472D49C969814327
:102670002B4AD16170472A49896A0143284A9162ED
:102680001146896A8143916270472549C9680143AF
:10269000234AD1601146C9688143D16070472049FF
:1026A000096901431E4A116111460969814311619B
:1026B000704701201B4934310860002008607047D2
:1026C00001460020164A506820F0704008435060D0
:1026D000704701460020124A506820F0F06008431D
:1026E000506070470E48406A40F080700C49486264
:1026F0000846406A20F080704862704701460848EA
:102700008068084008B1012070470020FCE70449B8
:1027100089680143024A91607047000000700040E0
:10272000001002400C0442420020A10710B50446EC
:10273000F748844203D1C014FFF7A7FF28E0B4F1A3
:10274000804F03D10120FFF7AAFF21E0F148844226
:1027500003D10220FFF7A3FF1AE0EF48844203D120
:102760000420FFF79CFF13E0EC48844203D10820CB
:10277000FFF795FF0CE0EA48844203D11020FFF7F1
:102780008EFF05E0E748844202D14014FFF77DFF49
:1027900010BD0A460021016821F07001114301605B
:1027A00070470A460021016821F44011114301607D
:1027B0007047016841F4802101607047016821F48D
:1027C0008021016070478185704701857047818253
:1027D00070470186704721B1026842F400620260CE
:1027E00003E0026822F400620260704721B10268CF
:1027F00042F48052026003E0026822F480520260D8
:10280000704721B1026842F40052026003E002689E
:1028100022F400520260704721B1026842F4804203
:10282000026003E0026822F480420260704721B136
:10283000026842F40042026003E0026822F40042AF
:1028400002607047026822F44072026002680A4324
:102850000260704730B504460D46B148844207D047
:1028600069882046FFF795FFE9882046FFF7EAFFD1
:10287000A9882046FFF7A7FF29882046FFF7A5FF74
:10288000A348844202D0A748844203D1297A204633
:10289000FFF79FFF01212046FFF799FFA0488442E0
:1028A00003D0697A2046FFF796FF994884420BD0FF
:1028B0009C48844208D0B4F1804F05D095488442AA
:1028C00002D09548844203D1697B2046FFF7AFFFD1
:1028D000B4F1804F0BD1A97A2046FFF787FFE97A40
:1028E0002046FFF78EFF297B2046FFF795FF30BD7E
:1028F0004FF6FF71818000210180C180418001720B
:1029000041728172C1720173417381737047818416
:1029100070470146888C70470146888D7047014694
:10292000088D7047016841F001010160704701683E
:1029300021F00101016070470A460021018B4FF62A
:10294000F77319401143018370470A460021018B38
:102950004FF2FF7319404FF6FF7303EA0223194346
:10296000018370470A460021C36999B24FF6F77395
:1029700019401143C16170470A460021C36999B2E9
:102980004FF2FF7319404FF6FF7303EA0223194316
:10299000C16170470A460021B0F854104FF6F77332
:1029A00019401143A0F8541070470A460021B0F8AE
:1029B00054104FF2FF7319404FF6FF7303EA0223DE
:1029C0001943A0F854107047082904D1C26942F491
:1029D0008032C26104E019B9C26922F48032C26156
:1029E0007047082904D1C26942F40012C26104E0B0
:1029F00019B9C26922F40012C2617047082904D1D2
:102A0000C26942F08062C26104E019B9C26922F071
:102A10008062C2617047016841F0800101607047C7
:102A2000016821F0800101607047016821F0020116
:102A300001607047016841F002010160704721B1F7
:102A4000026842F00402026003E0026822F004021D
:102A50000260704781827047416841F00401416023
:102A60007047416821F0040141607047416841F0BE
:102A7000010141607047416821F0010141607047E8
:102A80000A46416B6FF30F011143416370470A46D9
:102A9000816B6FF30F011143816370470A46C16B6D
:102AA0006FF30F011143C16370470A46016C6FF366
:102AB0000F01114301647047A0F858107047A0F847
:102AC0005C107047A0F860107047A0F86410704761
:102AD000A0F8681070470A46416B89B241EA02418A
:102AE000416370470A46816B89B241EA02418163C2
:102AF00070470A46C16B89B241EA0241C16370471F
:102B00000A46016C89B241EA024101647047000043
:102B1000002C01400004004000080040000C004070
:102B200000100040003401400146486B80B27047FD
:102B30000146886B80B270470146C86B80B270470F
:102B40000146086C80B270470146B1F858007047E2
:102B50000146B1F85C0070470146B1F8600070476B
:102B60000146B1F8640070470146B1F8680070474B
:102B70000146486B000C70470146886B000C70479B
:102B80000146C86B000C70470146086C000C70478A
:102B90000A46002101894FF68F73194011430181C4
:102BA000704770B50C46154600220021066A26F0D3
:102BB00001060662028B016A4FF60C7632404FF630
:102BC000FF7606EA03162E433243FD4EB0420ED086
:102BD000FC4EB0420BD0B0F1804F08D0FA4EB0425C
:102BE00005D0FA4EB04202D0F94EB04205D121F0E4
:102BF000020144F00106314304E021F00A0144F0EF
:102C0000010631430283016270BDF0B50C461546E2
:102C1000002200210026076A27F010070762028BB6
:102C2000016A260140F6FF473A404FF6FF7707EA70
:102C300003373A434FF6FF7707EA05273A43E04F59
:102C4000B8420ED0DF4FB8420BD0B0F1804F08D061
:102C5000DD4FB84205D0DD4FB84202D0DC4FB8425C
:102C600005D121F0200146F01007394304E021F09E
:102C7000A00144F01007394302830162F0BDF0B5B2
:102C80000C461546002200210026076A27F48077AB
:102C90000762C769BAB2016A26024FF60C773A405A
:102CA0004FF6FF7707EA03172F433A43C44FB84262
:102CB0000ED0C44FB8420BD0B0F1804F08D0C24FF5
:102CC000B84205D0C14FB84202D0C14FB84205D179
:102CD00021F4007146F48077394304E021F4206147
:102CE00044F480773943C2610162F0BDF0B50C460F
:102CF0001546002200210026076A27F48057076244
:102D0000C769BAB2016A260340F6FF473A404FF658
:102D1000FF7707EA05273A434FF6FF7707EA0337BD
:102D20003A43A74FB8420ED0A64FB8420BD0B0F1ED
:102D3000804F08D0A44FB84205D0A44FB84202D06B
:102D4000A34FB84205D121F4005146F480573943CE
:102D500004E021F4005144F480573943C261016218
:102D6000F0BD0A4601894FF2FF0319404FF6FF7389
:102D700003EA02231943018170470A4601894CF690
:102D8000FF731940114301817047B1F5004F04D121
:102D9000028942F40042028103E00289C2F30E027A
:102DA0000281704701894FF6F87211400181704726
:102DB000028B4FF6F3731A400283028B0A4302839D
:102DC0007047028B4FF2FF331A400283028B4FF69B
:102DD000FF7303EA01231A4302837047C2694FF667
:102DE000F3731A40C261C2690A43C2617047C26983
:102DF0004FF2FF331A40C261C26942EA0122C26146
:102E0000704730B504460D4629462046FFF7C0FE00
:102E1000208940F00700208130BDF0B504460D4602
:102E200016461F46602D06D13B46012231462046FC
:102E3000FFF7EBFE05E03B46012231462046FFF757
:102E4000B0FE29462046FFF7A3FE208940F0070088
:102E50002081F0BD2DE9F0410546884616461F4603
:102E6000002439462846FFF77CFF31462846FFF705
:102E70008CFF41462846FFF780FF2C894FF6F870FB
:102E8000044044F007044FF68F70044044F070048F
:102E90002C81BDE8F081F0B504460F4615461E466C
:102EA00031462046FFF75DFF29462046FFF76DFFBC
:102EB00039462046FFF761FF208940F48040208199
:102EC000F0BD02894FF6F8731A40028102890A4365
:102ED0000281704702894FF67F731A40028102898E
:102EE0000A430281704742683A4B1A404260426886
:102EF0000A4342607047416841F4004141607047B5
:102F0000416821F4004141607047416841F400216B
:102F100041607047416821F4002141607047416879
:102F200041F4001141607047416821F40011416093
:102F30007047416841F4000141607047416821F4E5
:102F4000000141607047026822F0080202600268D6
:102F50000A43026070470021018041800121818085
:102F60000021C1800181704730B505460C4620889C
:102F700050B92389A28861882846FFF712FEE188AC
:102F80002846FFF715FF31E0208804280AD123895D
:102F9000A28861882846FFF738FEE1882846FFF7B7
:102FA00010FF23E02088082816D12389A288618891
:102FB0002846FFF764FEE1882846FFF70FFF15E07B
:102FC000002C014000340140000400400008004093
:102FD000000C00408FFFFFFE2389A28861882846ED
:102FE000FFF784FEE1882846FFF701FF30BDF0B50A
:102FF00005460C4600260127608808B9022600E035
:103000000026A088012801D1022700E0012720889E
:10301000A0B92389A28861882846FFF7C2FDE1880C
:103020002846FFF7C5FE23893A4631462846FFF772
:10303000ECFDE1882846FFF7C4FE13E02389A2884F
:1030400061882846FFF7E1FDE1882846FFF7B9FED1
:1030500023893A4631462846FFF7A3FDE1882846F2
:10306000FFF7A6FEF0BD10B50B46016A022494409E
:10307000A14303FA02F42143016210BD10B50B46CF
:10308000016A08249440A14303FA02F42143016237
:1030900010BD026A01238B401A4302627047026A24
:1030A00001238B409A4302627047026A04238B40DB
:1030B0001A4302627047026A04238B409A430262F9
:1030C00070470246106A084008B10120704700208E
:1030D000FCE770B50346002000241846183001258F
:1030E0009540ACB21D6AE643B6B235401D620AB1E6
:1030F000082A09D100EB6200056825F0700505601B
:1031000005680D4305600EE0151FC5F34E05284404
:10311000056825F4E045056005684FF6FF7606EA88
:1031200001263543056070BD0A460021018B4FF62C
:103130008F7319401143018370470A460021018BA8
:1031400048F6FF7319404FF6FF7303EA0223194351
:10315000018370470A460021C36999B24FF68F7305
:1031600019401143C16170470A460021C36999B2F1
:1031700048F6FF7319404FF6FF7303EA0223194321
:10318000C16170470A460021B0F854104FF68F73A2
:1031900019401143A0F8541070470A460021B0F8B6
:1031A000541048F6FF7319404FF6FF7303EA0223E9
:1031B0001943A0F8541070470A460021018B4FF6BE
:1031C000FB7319401143018370470A460021018BAC
:1031D0004FF6FF3319404FF6FF7303EA02231943FA
:1031E000018370470A460021C36999B24FF6FB7309
:1031F00019401143C16170470A460021C36999B261
:103200004FF6FF3319404FF6FF7303EA02231943C9
:10321000C16170470A460021B0F854104FF6FB73A5
:1032200019401143A0F8541070470A460021B0F825
:1032300054104FF6FF3319404FF6FF7303EA022391
:103240001943A0F8541070470A460021018B4FF62D
:103250007F7319401143018370470A460021018B97
:10326000C1F30E014FF6FF7303EA022319430183F2
:1032700070470A460021C36999B24FF67F7319401F
:103280001143C16170470A460021C36999B2C1F375
:103290000E014FF6FF7303EA02231943C161704721
:1032A0000A460021B0F854104FF67F7319401143BD
:1032B000A0F8541070470A460021B0F85410C1F32A
:1032C0000E014FF6FF7303EA02231943A0F85410CE
:1032D0007047F0B505460C46002700260021284619
:1032E000FFF7DDFE6E682F8B4FF68F7007404FF6AD
:1032F000FC70074020880743218900222846FFF7F9
:10330000B2FE608820B100212846FFF7C2FE03E02C
:1033100000212846FFF7C3FEF748854202D0F74850
:10332000854217D1618900222846FFF7A7FEA088B1
:1033300020B100212846FFF7B8FE03E0002128460F
:10334000FFF7B9FE26F4807626F40076A0890643BE
:10335000E08906436E602F83E0886863F0BDF0B5B6
:1033600005460C460027002604212846FFF797FE55
:103370006E682F8B48F6FF7007404FF6FF400740FE
:1033800020884FF6FF7101EA0020074321890422BB
:103390002846FFF768FE608820B104212846FFF721
:1033A00078FE03E004212846FFF779FED2488542E3
:1033B00002D0D248854219D1618904222846FFF7FC
:1033C0005DFEA08820B104212846FFF76EFE03E0D1
:1033D00004212846FFF76FFE26F4806626F4006677
:1033E000A08946EA8006E08946EA80066E602F835F
:1033F000E088A863F0BDF0B505460C46002700261E
:1034000008212846FFF74BFE6E68E86987B24FF641
:103410008F7007404FF6FC700740208807432189D2
:1034200008222846FFF71FFE608820B108212846A1
:10343000FFF72FFE03E008212846FFF730FEAE48D5
:10344000854202D0AD48854219D1618908222846BB
:10345000FFF714FEA08820B108212846FFF725FEBB
:1034600003E008212846FFF726FE26F4805626F4BE
:103470000056A08946EA0016E08946EA00166E600A
:10348000EF61E088E863F0BDF0B505460C46002723
:1034900000260C212846FFF702FE6E68E86987B215
:1034A00048F6FF7007404FF6FF40074020884FF670
:1034B000FF7101EA0020074321890C222846FFF70B
:1034C000D2FD608820B10C212846FFF7E2FD03E021
:1034D0000C212846FFF7E3FD874885421AD1618910
:1034E0000C222846FFF7CAFDA08820B10C212846EF
:1034F000FFF7DBFD03E00C212846FFF7DCFD26F497
:10350000804626F40036A08946EA8016E08946EA1D
:10351000002607E07948854204D126F48046A08938
:1035200046EA80166E60EF61E0882864F0BDF0B571
:1035300004460D460026002710212046FFF7AFFD68
:103540006768B4F854604FF68F70064028880643C9
:10355000298910222046FFF786FD688820B11021B6
:103560002046FFF796FD03E010212046FFF797FD68
:103570006148844202D06148844204D127F48037F4
:10358000A88947EA00276760A4F85460E888A4F88F
:103590005800F0BDF0B504460D4600260027142162
:1035A0002046FFF77CFD6768B4F8546048F6FF706A
:1035B000064028884FF6FF7101EA0020064329895A
:1035C00014222046FFF74FFD688820B114212046C1
:1035D000FFF75FFD03E014212046FFF760FD46483A
:1035E000844202D04548844204D127F48027A88928
:1035F00047EA80276760A4F85460E888A4F85C0074
:10360000F0BDB0F8441041F40041A0F844107047F8
:10361000B0F84410C1F30E01A0F844107047002127
:10362000018041808180C180018141818181C1818E
:103630007047016841F4803101607047016821F4EE
:10364000803101607047016841F4003101607047CA
:10365000016821F400310160704721B1026842F431
:103660008062026003E0026822F4806202607047B8
:1036700010B504460B4618885988084399880843B2
:10368000D988084319890843598908439989084307
:10369000A4F84400987B20B100212046FFF7DDFF0D
:1036A00003E001212046FFF7D8FFD87B18B1204660
:1036B000FFF7BFFF02E02046FFF7C0FF187C18B1FC
:1036C0002046FFF7C0FF02E02046FFF7C1FF10BD14
:1036D0000021018041808180C180018141818181FF
:1036E0008173C1730174704782890A438281704774
:1036F00082898A4382817047002C01400034014056
:1037000010B5024600230024106900EA01039089E5
:1037100000EA010413B10CB1012010BD0020FCE748
:10372000CA430261704702461069084008B101208F
:1037300070470020FCE7CA430261704741EA020378
:10374000A0F84830704782890A4382817047828995
:103750008A4382817047416841F08001416070472F
:10376000416821F0800141607047F0B50C46154674
:103770001E460021002200230189028B036A4FF6B6
:10378000F877394021434FF6FC473A4040F20117A1
:103790003A4323F022034FF6FF7707EA06172F4339
:1037A0003B43018102830362F0BD10B50022564BFA
:1037B0001A400B781B064C8843EA44438C88234309
:1037C0001A43B0F1804F08D0504B984205D0504B6F
:1037D000984202D04F4B984200D1026710BD10B5FD
:1037E0000022494B1A400B781B064C8843EA44439D
:1037F0008C8823431A43B0F1804F08D0434B984242
:1038000005D0434B984202D0424B984200D14267C8
:1038100010BD10B500223C4B1A400B781B064C889B
:1038200043EA44438C8823431A43B0F1804F08D0C5
:10383000364B984205D0364B984202D0354B9842D1
:1038400000D1826710BD10B500222F4B1A400B78B3
:103850001B064C8843EA44438C8823431A43B0F147
:10386000804F08D0294B984205D0294B984202D06E
:10387000284B984200D1C26710BD10B50022224BE0
:103880001A400B781B064C8843EA44438C88234338
:103890001A43214B984202D0204B984200D1C26675
:1038A00010BD016F41F4803101677047016F21F451
:1038B000803101677047416F41F480314167704743
:1038C000416F21F4803141677047816F41F480314D
:1038D00081677047816F21F4803181677047C16FC4
:1038E00041F48031C1677047C16F21F48031C167F5
:1038F0007047C16E41F48031C1667047C16E21F4DA
:103900008031C16670470000000081C000040040A3
:1039100000080040000C0040002C01400034014031
:10392000064C074D06E0E06840F0010394E807000C
:1039300098471034AC42F6D3FCF7F0FBB4390008DA
:10394000D439000802E008C8121F08C1002AFAD1C1
:1039500070477047002001E001C1121F002AFBD10F
:103960007047000000000000000001020304060789
:103970000809000000000102030401020304060715
:10398000080901020406080A0C102020202020202B
:103990002020010002000400060008000A000C00BC
:1039A0001000200040008000000100010001000123
:1039B00000010000D43900080000002024000000AD
:1039C00044390008F83900082400002004150000DC
:1039D000543900080020A10700000000000000008A
:1039E00000000000000000000000000000000000D7
:0839F000D101FF1FA502FF1F1A
:0400000508000115D9
:00000001FF
