:020000040800F2
:10000000D8190020290100085524000857240008A9
:100010005B2400085F24000863240008000000003F
:10002000000000000000000000000000672400083D
:1000300069240008000000003F0100086B2400084C
:100040004301000843010008430100084301000880
:100050004301000843010008430100084301000870
:100060004301000843010008430100084301000860
:100070004301000843010008430100084301000850
:100080004301000843010008430100084301000840
:100090004301000843010008430100084301000830
:1000A0004301000843010008430100084301000820
:1000B0004301000843010008430100084301000810
:1000C0004301000843010008430100084301000800
:1000D00043010008430100084301000843010008F0
:1000E00043010008430100084301000843010008E0
:1000F00043010008430100084301000843010008D0
:1001000043010008430100084301000843010008BF
:1001100043010008DFF80CD007F060FA0048004700
:1001200075210008D8190020064880470648004776
:10013000FEE7FEE7FEE7FEE7FEE7FEE7FEE7FEE797
:10014000FEE7FEE74B020008150100080FB500208E
:100150000290019000908E48006840F480308C49F5
:10016000086000BF8A480068C0F3404001900098D2
:10017000401C00909DF8040018B90098B0F5005F8D
:10018000F0D183480068C0F3404001909DF804001E
:1001900018B98048804908600FBD8048006820F089
:1001A00007007E4908600846006840F003000860C8
:1001B00077484068764948600846406840F40050F7
:1001C00048600846406840F4A060486008464068BF
:1001D000734908406E4948600846006C20F00100F1
:1001E0000864084640680390039840F48030039008
:1001F000039840F4003003906A4903980843039041
:10020000634903984860029808640846006840F013
:100210008070086000BF5E48006800F00070002831
:10022000F9D05B48406820F003005949486008460F
:10023000406840F00200486000BF5548406800F048
:100240000C000828F9D100BFA6E710B55648006891
:1002500040F47000544908604D48006840F00100C7
:100260004B49086008464068504908404849486082
:10027000084600684E49084045490860084600683D
:1002800020F48020086008464068454908404049FD
:1002900048604FF46050C862002008644548886098
:1002A0000846C06940F08050C8610846C06920F027
:1002B0008050C8613948006840F0800037490860C4
:1002C0000846006820F010000860FFF73FFF4FF07D
:1002D000006035498039086010BD10B5002100204C
:1002E00000222B4B5B6803F00C0121B1042906D0DE
:1002F00008293CD107E0274B274C23603BE0254BE6
:10030000254C236037E0224B5B68264C03EA04004F
:100310001F4B5B6803F4803200F000631BB90223BB
:1003200003EB904004E04FF4F873C3EB9043581C88
:1003300072B9174B1B6C03F0010323B11E4B4343EF
:10034000154C236012E0134B4343134C23600DE024
:100350000F4B5B6803F4003323B1174B43430E4C40
:10036000236003E00B4B43430B4C236003E0094B3A
:10037000094C236000BF00BF054B5B68C3F3031348
:100380000E4CE15C044B1B68CB40034C236010BD5A
:100390000010024000127A000000002000200240FD
:1003A000FFFFC0F700003C0888ED00E00CC07FF8BC
:1003B000FFFFF6FE00009F0400093D000C8E0008C0
:1003C00010B50446FE48844203D1802000F077FF38
:1003D00015E0FC48844203D1801500F070FF0EE068
:1003E000F948844203D1401500F069FF07E0F7485F
:1003F000844203D1001500F062FF00E010BD00BF91
:10040000FCE730B501460020002275E0012383405F
:1004100003EA0102002A6ED00C2808D9E84B1B68B9
:1004200045000224AC402343E54C236007E0E44B45
:100430001B6845000324AC402343E14C236000F0DB
:1004400008035BB1DE4B24331B684407E50E0F2421
:10045000AC40A343DA4C243423600AE0D84B203369
:100460001B684407E50E0F24AC40A343D44C203452
:100470002360D34B1B1D1B6801248440A343D04C35
:10048000241D23600F2801D00D280AD1CC4B0C333A
:100490001B6845000124AC402343C94C0C34236045
:1004A00016E00E280AD1C64B0C331B684500022407
:1004B000AC402343C24C0C34236009E0C04B0C33E6
:1004C0001B6845000324AC40A343BD4C0C3423609F
:1004D000BB4B08331B68012484402343B84C0834C9
:1004E0002360B74B2C331B6845000424AC402343E6
:1004F000B34C2C342360401C41FA00F3002B85D10F
:1005000030BD30B501460020002268E00123834061
:1005100003EA0102002A61D0032801D0042808D18F
:10052000A84B1B6845000224AC402343A54C236024
:1005300007E0A44B1B6845000324AC402343A14CB7
:10054000236000F008035BB19E4B24331B68440713
:10055000E50E0F24AC40A3439A4C243423600AE0F8
:10056000984B20331B684407E50E0F24AC40A3438F
:10057000944C20342360934B1B1D1C680123834043
:100580009C43904B1B1D1C6004280AD18D4B0C33DF
:100590001B6845000124AC4023438A4C0C34236083
:1005A00009E0884B0C331B6845000324AC40A3438F
:1005B000844C0C342360834B08331C680123834034
:1005C0001C43804B08331C607E4B2C331B6845005A
:1005D0000424AC4023437B4C2C342360401C41FA60
:1005E00000F3002B92D130BD30B50146002000222F
:1005F0003DE00123834003EA0102BAB3724B1B685A
:1006000045000324AC4023436F4C23606E4B2433DE
:100610001B684407E50E0F24AC40A3436A4C243406
:100620002360694B1B1D1C68012383409C43664B60
:100630001B1D1C60644B0C331B6845000324AC403D
:10064000A343614C0C342360231F1C6801238340A7
:100650001C435D4B08331C605B4B2C331B6845000F
:100660000424AC402343584C2C342360401C41FAF2
:1006700000F3002BBDD130BD30B501460020002273
:1006800056E00123834003EA0102002A4FD040B91B
:100690004E4B1B6845000024AC4023434B4C236069
:1006A00007E04A4B1B6845000324AC402343474CFA
:1006B000236000F008034BB1444B5B6A4407E50E2E
:1006C0000F24AC40A343414C636208E03F4B1B6ADC
:1006D0004407E50E0F24AC40A3433C4C23623B4B44
:1006E0005C68012383409C43384B5C6038B9DB680D
:1006F00045000224AC402343344CE36009E00C285D
:1007000007D3324BDB6845000324AC40A3432F4C96
:10071000E3602E4B9C68012383401C432B4B9C6061
:10072000DB6A45000424AC402343284CE362401CB0
:1007300041FA00F3002BA4D130BD70B50146002270
:100740000020002313E00124844004EA01036BB17C
:100750008407E50EFF2404FA05F21D4C850854F8C1
:10076000254094431A4D860845F82640401C41FA1E
:1007700000F4002CE7D170BD00B54FF6FF70FFF715
:1007800040FE4FF6FF70FFF7BCFE4FF6FF70FFF71D
:100790002BFF4FF6FF70FFF76FFF00BD30B503462C
:1007A000002002F00804BCB1586A5407E50E0F247B
:1007B000AC40A0435407E40E01FA04F4204309E0DE
:1007C0000034024000380240003C02400040024039
:1007D0000400014058620BE0186A5407E50E0F242C
:1007E000AC40A0435407E40E01FA04F4204318621D
:1007F00030BD70B5034600200024186801F00304E2
:1008000056000325B540A843550004FA05F52843D2
:100810001860012905D0112903D0022901D012291D
:1008200008D1586801259540A843C1F300159540AB
:100830002843586070BD30B50B460021C168550093
:100840000324AC40A143540003FA04F42143C160E3
:1008500030BD10B50B460021816801249440A143AE
:1008600003FA02F42143816010BD30B50B4600212C
:10087000C16A55000324AC40A143540003FA04F4B8
:100880002143C16230BDF0B506460C460025002765
:100890001FE00121A940206800EA0107C7B12A46EC
:1008A00030466169FFF77AFF2A4630466168FFF7F4
:1008B000A0FF2A463046A168FFF7BDFF2A46304612
:1008C000E168FFF7C6FF2A4630462169FFF7CDFFF2
:1008D0006D1C2068E8400028DBD1F0BD10B5012078
:1008E00000F0F7FC10BD4FF6FF7101600021C16000
:1008F00041600F2141610021816001617047024622
:100900001069084008B1012070470020FCE701464B
:10091000086980B2704702465069084008B101205A
:1009200070470020FCE70146486980B2704781614A
:100930007047816270470A46130483617047816281
:1009400070474161704742694A40426170470022E6
:1009500041F48032C261C161C261C269C26970473B
:10096000F0B503461546002200200BB9CA4E08E038
:10097000012B01D1C94E04E0022B01D1C84E00E089
:10098000C84E344601F0080666B101F00702606AFD
:1009900097000F26BE40B043960005FA06F6304396
:1009A00060620BE001F00702206A97000F26BE404C
:1009B000B043960005FA06F630432062F0BD10B54C
:1009C000B94A831052F823208307DC0E3F23A3404B
:1009D0009A43B54B841043F824201A46831052F8EA
:1009E00023208307DB0E01FA03F31A43AE4B841076
:1009F00043F8242010BD0A460021AB4B1B1F1B6887
:100A0000C3F30B010AB1014300E08143A64B1B1F56
:100A10001960704702460020092A11D1A24B1B1F02
:100A2000186820F40070112902D140F4007003E02E
:100A300020F0F00040EA01109B4B1B1F186011E0F2
:100A4000082A0FD1984B1B1F186820F480701029BA
:100A500002D140F4807002E020F00F000843924B76
:100A60001B1F186070479049091F496981438E4ACE
:100A7000121F516170478C49091F496901438A4A15
:100A8000121F516170478849091F0862704710B5ED
:100A9000814B984201D100230AE0804B984201D15A
:100AA000012305E07E4B984201D1022300E003239D
:100AB0001A4602F00203ABB9774B984207D17A4B42
:100AC0001B1F9B690B43784C241FA3611FE0734BD2
:100AD00098421CD1744B1B1F9B690B43724C241F03
:100AE000A36114E06E4B984207D16F4B1B1FDB696B
:100AF0000B436D4C241FE36109E06A4B984206D119
:100B0000694B1B1FDB690B43674C241FE36110BD5E
:100B100010B5614B984201D100230AE05F4B984227
:100B200001D1012305E05E4B984201D1022300E090
:100B300003231A4602F00203ABB9574B984207D180
:100B4000594B1B1F9B698B43574C241FA3611FE00C
:100B5000524B98421CD1544B1B1F9B698B43524CE8
:100B6000241FA36114E04E4B984207D14E4B1B1F2C
:100B7000DB698B434C4C241FE36109E0494B9842ED
:100B800006D1494B1B1FDB698B43474C241FE36194
:100B900010BD10B5404B984201D100230AE03F4BF5
:100BA000984201D1012305E03D4B984201D1022337
:100BB00000E003231A4602F00203ABB9364B984219
:100BC00007D1394B1B1F5B6A0B43374C241F6362F1
:100BD0001FE0324B98421CD1334B1B1F5B6A0B4307
:100BE000314C241F636214E02D4B984207D12E4BE9
:100BF0001B1F9B6A0B432C4C241FA36209E0294B4B
:100C0000984206D1284B1B1F9B6A0B43264C241F7E
:100C1000A36210BD10B5204B984201D100230AE019
:100C20001E4B984201D1012305E01D4B984201D192
:100C3000022300E003231A4602F00203ABB9164B6D
:100C4000984207D1184B1B1F5B6A8B43164C241F1D
:100C500063621FE0114B98421CD1134B1B1F5B6A50
:100C60008B43114C241F636214E00D4B984207D153
:100C70000D4B1B1F9B6A8B430B4C241FA36209E087
:100C8000084B984206D1084B1B1F9B6A8B43064CAE
:100C9000241FA36210BD000000340240003802404F
:100CA000003C02400040024004000140F948006856
:100CB00040F00100F749086008464068F6490840DE
:100CC000F449486008460068F4490840F149086062
:100CD0000846006820F48020086008464068F04913
:100CE0000840EC4948604FF46050C8620020086436
:100CF000EC4888607047E749096821F48031E54A8B
:100D000011601146096821F480211160B0F5803F1F
:100D100005D11146096841F48031116008E0B0F551
:100D2000802F05D1DB49096841F4A021D94A11601F
:100D300070470146002200234A11012A02D0022AEC
:100D400006D102E0D348036805E0D248036A02E016
:100D5000D048436A00BF00BF01F01F02012090404D
:100D6000184008B1012070470020FCE7F0B50022D0
:100D700000BF002100250024C64E7668CA4F06EA4F
:100D80000701C44E766806F4803501F000661EB98E
:100D9000022606EB914104E04FF4F876C6EB91464B
:100DA000711C65B9BB4E366C06F001061EB1BF4E14
:100DB00001FB06F30FE0BE4E01FB06F30BE0B54E60
:100DC000766806F400361EB1B84E01FB06F302E069
:100DD000B74E01FB06F3AF4E766806F00C0222B167
:100DE000042A05D0082A08D105E0B14E066007E0C4
:100DF000AF4E066004E0036002E0AD4E066000BF47
:100E000000BFA44E7668C6F30312AA4EB45C06680F
:100E1000E64046609F4E7668C6F30222A54EB45C5B
:100E20004668E64086609B4E7668C6F3C222A14EB5
:100E3000B45C4668E640C660964EF66A06F00F025D
:100E40009D4EB45C4668B6FBF4F64661914EF66A78
:100E5000C6F3041202F00F06984F37F81640B3FBA2
:100E6000F4F60661F0BD30B587B00020069000248E
:100E700000256846FFF77AFF91490098B1FBF0F032
:100E80004FF40051B1FBF0F400BF3120FFF751FFE8
:100E900005460698401C06900698A04201D0002DF9
:100EA000F3D03120FFF745FF10B1012007B030BD6E
:100EB0000020FBE701208349C86470470020814976
:100EC000C864704701460020724A106820F0F8009C
:100ED00040EAC1001060704701207A4908607047FD
:100EE000002078490860704730B587B00020069030
:100EF000002400256846FFF739FF71490098B1FBCF
:100F0000F0F04FF40051B1FBF0F400BF2120FFF7E7
:100F100010FF05460698401C06900698A04201D096
:100F2000002DF3D02120FFF704FF10B1012007B0FE
:100F300030BD0020FBE710B50A460023554C616820
:100F4000236C574C214023F0010308B1012802D142
:100F50001143034302E040EA020421434D4C616027
:100F6000236410BD01205749086670470020554989
:100F70000866704701460020464A506820F003008A
:100F80000843506070474348406800F00C007047C9
:100F9000014600203F4A506820F0F00008435060AE
:100FA0007047014600203B4A506820F4E060084347
:100FB0005060704701460020364A506820F4605067
:100FC00040EAC10050607047324989680143314AA4
:100FD000916070472F49896881432E4A916070471C
:100FE000014600202B4AD06A20F000500843D0620E
:100FF000704702460020274BD86A20F4806020F416
:10100000784010430843D862704701460020214AC7
:10101000D06A20F4F8700843D06270471D48C06A57
:1010200020F480701B49C862704701460020194AAD
:10103000D06A20F00F000843D06270471548803016
:10104000006840F001001349C1F880007047114862
:101050008030006820F001000E49C1F88000704720
:101060000021194A11696FF30801B0F5007F02DB16
:1010700040F2FF1001E0C0F3080040F48062114329
:10108000114A116170470349C9690143014AD1619D
:1010900070470000001002400CC07FF8FFFFF6FE12
:1010A000FFFFC0F700009F0400003C0800093D005E
:1010B00000127A001C8E00082C8E00083C8E00085E
:1010C0000020A107000042420070004010B5044615
:1010D0000B464FF08050FFF7D6FFA248006840F45F
:1010E0008070A0490860A048006A20F005009E4971
:1010F0000862012C02D0042C11D109E09A48006A40
:1011000040F00100984908621846FFF7A9FF07E080
:101110009548006A40F005009349086200E000BF6E
:1011200000BF10BD012091490860704700208F4921
:10113000086070478C48006A00F0100008B1012078
:1011400070470020FCE730B587B0002006900024EF
:1011500000256846FFF70AFE85490098B1FBF0F0CC
:101160004FF40051B1FBF0F400BF4120FFF7E1FD67
:1011700005460698401C06900698A04201D0002D16
:10118000F3D04120FFF7D5FD10B1012007B030BDED
:101190000020FBE70120754974310860704700208A
:1011A000724974310860704730B587B000200690EE
:1011B000002400256846FFF7D9FD6D490098B1FB72
:1011C000F0F04FF40051B1FBF0F400BF6120FFF7E5
:1011D000B0FD05460698401C06900698A04201D036
:1011E000002DF3D06120FFF7A4FD10B1012007B05E
:1011F00030BD0020FBE75C49096A21F440715A4A7E
:1012000011621146096A0143116270470120574972
:101210003031086070470020544930310860704711
:1012200000B503464FF08050FFF72DFF4D48006892
:1012300040F480704B4908604B48406B20F0070039
:10124000494948630846406B1843486300BD464817
:10125000406B40F48060444948630846406B20F48A
:101260008060486370474048406B40F040003E4912
:10127000486370473C48406B20F040003A4948635F
:101280007047394949690143374A516170473649C6
:1012900049698143344A516170473349896901433F
:1012A000314A916170473049896981432E4A916181
:1012B00070472D49C96981432B4AD16170472A493A
:1012C000896A0143284A91621146896A8143916281
:1012D00070472549C9680143234AD1601146C9684E
:1012E0008143D16070472049096901431E4A116159
:1012F0001146096981431161704701201B4934314E
:10130000086000200860704701460020164A5068B7
:1013100020F0704008435060704701460020124A98
:10132000506820F0F0600843506070470E48406AF3
:1013300040F080700C4948620846406A20F0807096
:1013400048627047014608488068084008B101209B
:1013500070470020FCE7044989680143024A916014
:101360007047000000700040001002400C04424230
:101370000020A10710B50446EF48844204D14FF481
:101380008040FFF7A6FF16E0EC48844204D14FF4FA
:101390000030FFF7A8FF0EE0E948844204D14FF483
:1013A0000030FFF796FF06E0E648844203D14FF491
:1013B0008020FFF78EFF10BD0A460021818A21F4AC
:1013C00040711143818270470A460021818921F0D2
:1013D0000C011143818170470A460021818921F463
:1013E000C0611143818170470A460021018A21F4BE
:1013F00040511143018270470A460021818921F43E
:1014000080511143818170472DE9F04786B0044631
:10141000894600BF4FF0000A00BF00BFD046A0467B
:101420006846FFF7A3FCC448804505D0C448804502
:1014300002D0C448804502D1DDF80CA001E0DDF8FF
:1014400008A00AEBCA0000EB0A104FEA8901B0FBC2
:10145000F1F66420B6FBF0F005012809642101FBD8
:101460001067322000EB0710B0FBF1F000F00F0026
:101470000543258106B0BDE8F08770B505460C46EA
:1014800028462168FFF7C0FFA1882846FFF7B4FF70
:10149000E1882846FFF7A8FF21892846FFF79CFF2F
:1014A00061892846FFF790FFA1892846FFF784FF4E
:1014B00070BD4FF41651016000218180C18001810F
:1014C0000C2141810021818170470A460021018A57
:1014D00021F480711143018270470A460021018A7C
:1014E00021F400711143018270470A460021018AEC
:1014F00021F480611143018270470A460021018A6C
:1015000021F4006111430182704730B505460C4655
:1015100021882846FFF7F1FF61882846FFF7E5FF9D
:10152000A1882846FFF7D9FFE1882846FFF7CDFFBD
:1015300030BD0021018041808180C1807047818958
:1015400041F4005181817047818921F400518181EA
:10155000704770B502460023002400250020104685
:10156000C1F3421301F01F04012606FA04F5012B12
:1015700001D10C3004E0022B01D1103000E0143016
:1015800006682E43066070BD70B502460023002435
:10159000002500201046C1F3421301F01F0401266C
:1015A00006FA04F5012B01D10C3004E0022B01D125
:1015B000103000E014300668AE43066070BD828AC9
:1015C0000A4382827047828A8A4382827047028AF3
:1015D00022F00F020282028A0A4302827047828945
:1015E00022F40062828182890A4382817047818964
:1015F00041F0020181817047818921F002018181DE
:101600007047028A22F020020282028A0A43028282
:101610007047018A41F4804101827047018A21F4B8
:10162000804101827047C1F3080282807047014601
:101630008888C0F308007047818941F001018181E9
:101640007047028BD2B20283028B42EA01220283EC
:101650007047028B02F47F420283028B0A430283AB
:101660007047818A41F0200181827047818A21F090
:10167000200181827047818A41F010018182704788
:10168000818A21F0100181827047818A41F008012E
:1016900081827047818A21F0080181827047828AA5
:1016A00022F004028282828A0A4382827047818AFF
:1016B00041F0020181827047818A21F0020181821A
:1016C000704702461088084008B10120704700208A
:1016D000FCE7CA430280704730B502460B4600243F
:1016E00000210025C3F3421503F01F01012000FA79
:1016F00001F1012D02D19089014006E0022D02D1B5
:10170000108A014001E0908A01401C12012000FA79
:1017100004F41088044011B10CB1012030BD002048
:10172000FCE710B5002200230A1201249440A3B262
:10173000DC43048010BD000000380140004400403C
:10174000005001400054014010B50446F74884425F
:1017500004D14FF40010FFF7C6FD03E04FF4800002
:10176000FFF7C1FD10BD0A46002101896FF3090191
:101770001143018170470A460021018921F400418B
:101780001143018170470A460021018821F48061DC
:101790001143018070470A460021018821F00A01A7
:1017A0001143018070472DE9F04F87B004460D4684
:1017B00093460026B0460427DFF874A3B14601A87B
:1017C000FFF7D4FAA68826F03F06DDF80CA0D9482A
:1017D000BAFBF0F01FFA80F8B8F1200F01DD4FF0EE
:1017E000200846EA0806A680208820F00100208014
:1017F000D4F8209029F03F090026CF4885420ED822
:101800006800BAFBF0F087B2042F00DA04273E43E9
:1018100008F1010000F03F0040EA090937E0BBF59C
:10182000804F05D005EB4500BAFBF0F087B208E029
:1018300005EBC50000EB0510BAFBF0F087B247F4EA
:101840008047C7F30B00012801DA47F0010747F48E
:1018500000400643B94885420DD84FF4967008FB06
:1018600000F04FF47A7190FBF1F0401C00F03F0063
:1018700040EA09090BE0C8EB0810C0004FF47A7188
:1018800090FBF1F0401C00F03F0040EA0909C4F869
:101890002090A683208840F00100208007B0BDE89A
:1018A000F08F70B505460C46E28828462168FFF7A0
:1018B0007AFFA1882846FFF76EFF61892846FFF767
:1018C00062FFA1892846FFF756FF21892846FFF7C6
:1018D0004AFF70BD41F288310160002181804BF6E2
:1018E000FF71C1800021018141814FF480418181DC
:1018F0007047018841F0010101807047018821F0A3
:10190000010101807047818841F400618180704746
:10191000818821F4006181807047818841F4805181
:1019200081807047818821F48051818070470188CF
:1019300041F4807101807047018821F48071018039
:101940007047018841F4007101807047018821F4DB
:10195000007101807047018841F480610180704707
:10196000018821F48061018070470A460021818945
:1019700021F0FE0102F0FE03194381817047818945
:1019800041F0010181817047818921F0010181814C
:101990007047018841F0400101807047018821F0C3
:1019A00040010180704782880A43828070478288A4
:1019B0008A4382807047018270470146088AC0B21C
:1019C0007047012A02D141F0010101E021F001013B
:1019D0000182704708B502460020009000920098EE
:1019E000084400900098008808BD018841F4004137
:1019F00001807047018821F4004101807047B1F5F2
:101A0000006F04D1028842F40062028003E0028881
:101A100022F4006202807047B1F5005F04D10288B1
:101A200042F40052028003E0028822F40052028055
:101A30007047018841F4805101807047018821F48A
:101A4000805101807047B1F5006F04D1028842F4E3
:101A50000062028003E0028822F400620280704784
:101A6000018841F0200101807047018821F02001A8
:101A7000018070470146088B00127047018841F0D1
:101A8000100101807047018821F01001018070472A
:101A9000018821F0800101807047018841F08001B8
:101AA00001807047B1F5804F04D1828B42F48042AF
:101AB000828303E0828B22F48042828370470A464D
:101AC0000021016A21F4701141EA824101627047EC
:101AD0000A460021016A21F0707141EA82510162D7
:101AE00070470A460021016A21F0406111430162FA
:101AF0007047016A41F0805101627047016A21F02C
:101B00008051016270470A460021016A21F0C041FC
:101B100041EAC20101627047016A41F0004101627D
:101B20007047016A21F00041016270470054004093
:101B300000127A0040420F00A0860100801A0600C1
:101B400030B50246002400250023958A138B1B0420
:101B500045EA030020F07F4404EA0100884201D1F5
:101B6000012030BD0020FCE70146002300228B8AC3
:101B70000A8B120443EA020020F07F4070470CB544
:101B800002460020019000900192080F009021F081
:101B90007F41009820B9090C01981830019002E0AB
:101BA00001981430019001980068084008B900209D
:101BB0000CBD0120FCE7002221F07F42D343838249
:101BC000704710B502460023908801F0E06400EAF7
:101BD000144321F07F41908A084010B10BB10120DD
:101BE00010BD0020FCE7002221F07F42D343838216
:101BF0007047000000B587B08020FFF742FB01A8C6
:101C0000FEF771FE0C20019000200490012002904C
:101C1000039001A9FE48FEF736FE00BF0421FC48F0
:101C2000FEF785FE00BF00BF0821F948FEF781FEE0
:101C300000BF07B000BDF0B589B006460F46154697
:101C40001C2D01DD09B0F0BD002101AAE81C1154D2
:101C500088208DF804008DF805608DF8065000246A
:101C600005E0395DE01C01AA1154601CC4B2AC420D
:101C7000F7DB00240AE001A9E81C085C095D0844C0
:101C8000C1B201AAE81C1154601CC4B2E81C844211
:101C9000F1DB002406E001A8015DDE4805F078F8DC
:101CA000601CC4B2281D8442F5DB00BFCAE72DE9E1
:101CB000FE4304460D4617461E46DDE90A89200A02
:101CC0008DF80000E0B28DF80100280A8DF80200BE
:101CD000E8B28DF80300380A8DF80400F8B28DF8E8
:101CE0000500300A8DF80600F0B28DF807004FEAC3
:101CF00018208DF8080008F0FF008DF809004FEA61
:101D000019208DF80A0009F0FF008DF80B000C2255
:101D10006946A120FFF78FFFBDE8FE832DE9F04F54
:101D200087B004460D4616461F46DDE911ABDDF8C7
:101D300040904FF0000806E000200DF8080008F180
:101D4000010000F0FF08B8F11C0FF5DB200A8DF848
:101D50000000E0B28DF80100280A8DF80200E8B218
:101D60008DF80300300A8DF80400F0B28DF80500FC
:101D7000380A8DF80600F8B28DF807004FEA1920EE
:101D80008DF8080009F0FF008DF809004FEA1A20CD
:101D90008DF80A000AF0FF008DF80B004FEA1B20B7
:101DA0008DF812000BF0FF008DF813001398000A55
:101DB0008DF814001398C0B28DF815001498000A1D
:101DC0008DF816001498C0B28DF817001C226946D1
:101DD000AF20FFF730FF07B0BDE8F08F0EB50A4621
:101DE000002123E001EB410302EB830393ED000AA2
:101DF000D0ED000A20EE200A01EB410302EB830341
:101E0000D3ED010A90ED011A00EE810A01EB4103C6
:101E100002EB8303D3ED020A90ED021A00EE810A71
:101E20006B4603EB810383ED000A491C0329D9DBD0
:101E3000002109E06B4603EB810393ED000A00EB00
:101E4000810383ED000A491C0329F3DB0EBD70B545
:101E50002DED0A8B9CB00446B0EE408AF0EE608A0D
:101E6000B0EE419A242113A805F09EF824210AA877
:101E700005F09AF8242101A805F096F8B7EE000ABB
:101E800028EE000ADFED640A20EE200AB0EE408A58
:101E9000B7EE000A28EE800ADFED5F0A20EE200A86
:101EA000F0EE408AB7EE000A29EE000ADFED5A0A8A
:101EB00020EE200AB0EE409A19EE100A05F051FA11
:101EC00041EC1B0BB0EE4B0AF0EE6B0A06F028F863
:101ED000B0EE40AAF0EE60AA51EC1A0B05F06CFAD5
:101EE000139019EE100A05F03CFA41EC1C0BB0EE11
:101EF0004C0AF0EE6C0A06F077F8B0EE40BAF0EE5D
:101F000060BA51EC1B0B81F0004141EC1A0B05F05B
:101F100053FA14909FED410A8DED150A19EE100A3F
:101F200005F01FFA41EC1B0BB0EE4B0AF0EE6B0A0A
:101F300006F05AF8B0EE40AAF0EE60AA51EC1A0B87
:101F400005F03AFA169019EE100A05F00AFA41EC7B
:101F50001B0BB0EE4B0AF0EE6B0A05F0E1FFB0EEA2
:101F600040AAF0EE60AA51EC1A0B05F025FA179082
:101F70009FED2A0A8DED180A9FED280A8DED190AAA
:101F80009FED260A8DED1A0AB7EE000A8DED1B0AA9
:101F9000B7EE000A8DED0A0A9FED200A8DED0B0ABF
:101FA0009FED1E0A8DED0C0A9FED1C0A8DED0D0AAA
:101FB00018EE900A05F0D5F941EC1B0BB0EE4B0A78
:101FC000F0EE6B0A05F0ACFFB0EE40AAF0EE60AAAE
:101FD00051EC1A0B05F0F0F90E9018EE900A05F08E
:101FE000C0F941EC1C0BB0EE4C0AF0EE6C0A05F0A7
:101FF000FBFFB0EE40BAF0EE60BA51EC1B0B81F083
:10200000004141EC1A0B05F0D7F90F9008E00000F1
:102010000034024000380140DA0F4940000000005F
:102020001FED020A8DED100A18EE900A05F099F9DD
:1020300041EC1B0BB0EE4B0AF0EE6B0A05F0D4FF3F
:10204000B0EE40AAF0EE60AA51EC1A0B05F0B4F91C
:10205000119018EE900A05F084F941EC1B0BB0EEDC
:102060004B0AF0EE6B0A05F05BFFB0EE40AAF0EE13
:1020700060AA51EC1A0B05F09FF9129018EE100AA5
:1020800005F06FF941EC1B0BB0EE4B0AF0EE6B0A5A
:1020900005F046FFB0EE40AAF0EE60AA51EC1A0B34
:1020A00005F08AF901901FED230A8DED020A18EE62
:1020B000100A05F056F941EC1B0BB0EE4B0AF0EE9E
:1020C0006B0A05F091FFB0EE40AAF0EE60AA51EC69
:1020D0001A0B05F071F903901FED300A8DED040A1B
:1020E000B7EE000A8DED050A1FED340A8DED060AE4
:1020F00018EE100A05F035F941EC1C0BB0EE4C0A55
:10210000F0EE6C0A05F070FFB0EE40BAF0EE60BA87
:1021100051EC1B0B81F0004141EC1A0B05F04CF91E
:1021200007901FED420A8DED080A18EE100A05F01F
:1021300018F941EC1B0BB0EE4B0AF0EE6B0A05F000
:10214000EFFEB0EE40AAF0EE60AA51EC1A0B05F0DB
:1021500033F9099013A92046FFF740FE06460AA965
:10216000FFF73CFE054601A9FFF738FE1CB0BDECA9
:102170000A8B70BD2DED048BA6B004F0CBFD00F0F2
:10218000C0FE00F07FF901F047FCFFF733FD00BF10
:1021900003F09BFD0028FBD142E100241FED610A02
:1021A0008DED1F0A1FED630A8DED1E0A1FED650AF6
:1021B0008DED1D0A60229B4905A804F0DCFE00F0AD
:1021C000EAF904E023AA24A925A801F003FD1DAA29
:1021D0001EA91FA803F0C9FD0028F3D120AA21A938
:1021E00022A801F0CFFCBDF98000BDF98410CDE933
:1021F0000010BDF98830BDF98C20BDF99010BDF9F3
:102200009400FFF754FD9DED1D0AF2EE040A20EE46
:10221000200ABDEEC00A10EE100A00B29DED1F0AA2
:10222000DFED810A20EE200ABDEEC00A10EE101A82
:1022300009B29DED1E0ADFED7C0A20EE200ABDEEFC
:10224000C00A10EE102A12B2BDF98030CDE9013279
:10225000CDE90310BDF984000090BDF98830BDF9C7
:102260008C20BDF99010BDF99400FFF757FD0C23A9
:102270006EA20121002000F051FA0C236CA2012172
:10228000002000F04BFA1F9805F06BF841EC180B9A
:102290000C230222B0EE480AF0EE680A01211E204B
:1022A00000F053FB0C2364A20F21002000F036FA4B
:1022B0001E9805F056F841EC180B0C230222B0EEE4
:1022C000480AF0EE680A0F21172000F03EFB0C23AD
:1022D0005BA21921002000F021FA1D9805F041F8B9
:1022E00041EC180B0C230222B0EE480AF0EE680A0B
:1022F0001921142000F029FB9DED1D0AB1EE400AC2
:102300008DED1D0A002426E09DED1D0ADFED4D0A2E
:1023100080EE201AB0EE418A9DED1F0ADFED490ADA
:1023200080EE201AF0EE418A9DED1E0ADFED450A8F
:1023300080EE201AB0EE419A04EB440105AA02EBAC
:102340008100B0EE481AF0EE680AB0EE490AFFF7D5
:102350007EFD601CC4B2082CD6DB00245BE03A484A
:1023600050F82400401E00EB400005A901EB80005E
:1023700090ED000ADFED350A30EE200ABCEEC00A0F
:1023800010EE100AC5B2304850F82400401E00EB91
:10239000400001EB800090ED010ADFED2D0A30EEE8
:1023A000200ABCEEC00A10EE100AC6B22649601C14
:1023B00051F82000401E00EB400005A901EB800011
:1023C00090ED000ADFED210A30EE200ABCEEC00AD3
:1023D00010EE100AC7B21C49601C51F82000401EC4
:1023E00000EB400005A901EB800090ED010ADFED54
:1023F000180A30EE200ABCEEC00A10EE100A00F0F7
:10240000FF08012043463A4631460090284600F036
:102410005BFCA01CC4B21C2CA1DB00F099F800BF2F
:10242000BBE600005C8E00080000C84220000000EF
:102430007069746368000000726F6C6C00000000CB
:102440007961770000003443080000200000B442A6
:1024500000001842704700BFFEE700BFFEE700BF64
:10246000FEE700BFFEE770477047704738B5054686
:102470000C468DF800508DF801400221684600F0AE
:102480003EFE38BD10B5AE210020FFF7EFFFD5218D
:102490000020FFF7EBFF50210020FFF7E7FFA82106
:1024A0000020FFF7E3FF3F210020FFF7DFFFD321EC
:1024B0000020FFF7DBFF00210846FFF7D7FF402190
:1024C0000020FFF7D3FF8D210020FFF7CFFF14215D
:1024D0000020FFF7CBFF20210020FFF7C7FF0221DC
:1024E0000020FFF7C3FFA1210020FFF7BFFFC0219D
:1024F0000020FFF7BBFFDA210020FFF7B7FF122112
:102500000020FFF7B3FF81210020FFF7AFFFEF218D
:102510000020FFF7ABFFD9210020FFF7A7FFF12133
:102520000020FFF7A3FFDB210020FFF79FFF3021F2
:102530000020FFF79BFFA4210020FFF797FFA621B3
:102540000020FFF793FFAF210020FFF78FFF10BDA2
:1025500070B500241CE004F1B000C1B20020FFF708
:1025600085FF00210846FFF781FF10210020FFF7BB
:102570007DFF002508E0FE4800EBC500015D40201E
:10258000FFF774FF681CC5B2802DF4DB601CC4B279
:10259000082CE0DB70BD00200CE0002106E00022EA
:1025A000F34B03EBC1031A544A1CD1B28029F6DB6A
:1025B000421CD0B20828F0DB7047F0B51446002664
:1025C0007F2801DC3F2900DDF0BD0B46CF1701EB72
:1025D0005777FF10C7F10707FAB2CF1701EB57770C
:1025E000FF10A1EBC707FDB2C5F107070123BB40F0
:1025F000DEB24CB1DE4B03EBC0039B5C3343DC4FDC
:1026000007EBC007BB5408E0D94B03EBC0039B5C4E
:10261000B343D74F07EBC007BB5400BFD4E72DE946
:10262000F84F80460F4616461C46BA462046E3172A
:1026300004EB5373DB1021464FEAE47C04EB5C7C33
:102640004FEAEC0CA4EBCC0CBCF1000F02D04FF025
:10265000010C01E04FF0000C6344224604EBD27CF5
:102660004FEA6C0C03FB0CF303F0FF0BA6F1200008
:10267000C6B200254EE00C2C07D106EB4600BD4942
:1026800001EB8000405D009013E0102C05D1BA48AA
:1026900000EB0610405D00900BE0182C07D106EB14
:1026A000C600B64901EB8000405D009001E0BDE846
:1026B000F88F4FF0000927E0009800F0800028B163
:1026C000394640460A9AFFF778FF09E00A9808B9A8
:1026D000012000E00020024639464046FFF76DFF2A
:1026E00000984006000E0090781CC7B2A7EB0A00C5
:1026F000A04205D1574608F1010000F0FF0806E0AE
:1027000009F1010000F0FF09B9F1080FD4DB00BFA7
:10271000681CC5B25D45AEDB00BFC8E7F8B506462C
:102720000F4615461C4621E004EBD4714910C1F157
:102730008001B14202DA00263819C7B2C4F1400064
:10274000B84204DA002006460746FFF724FF0120BE
:1027500000902A78234639463046FFF760FF20462E
:1027600004EBD07106EB6101CEB26D1C28787E2897
:1027700002DC28782028D7DAF8BD10B502460120FF
:1027800000E050430B1EA1F10104E1B2F9D110BDEC
:102790002DE9FF4F81B0804691461D460E9E4FF0B9
:1027A000000A002429E0281B401EC1B20A20FFF7BE
:1027B000E4FFB9FBF0F00A21B0FBF1F201FB1207D4
:1027C000BAF1000F06D1681EA04203DD07B912E07E
:1027D0004FF0010A0120B34606EBDB71491001FB03
:1027E00004810090C8B207F13001CAB233460299A1
:1027F000FFF715FF00BF601CC4B2AC42D3DB05B0CD
:10280000BDE8F08F2DE9F84305460F461646984679
:10281000089C002E0DDBA14604EBD97105EB61018C
:10282000C8B24346324639460094FFF7B1FFBDE8CF
:10283000F883012023462D22394600902846FFF7D1
:10284000EEFEA14604EBD97105EB6101C8B2434627
:10285000724239460094FFF79BFF00BFE7E72DE97E
:10286000F04F2DED068B81B005468A46B0EE408ACA
:10287000F0EE608A16461F46109C4FF0000951EC9E
:10288000180B04F04FFD8046404604F03EFD41EC3D
:102890001A0B53EC182B04F043FC41EC190B334694
:1028A0004246514628460094FFF7ACFF0120A3465C
:1028B00004EBDB714A10711C02FB01510090C8B29D
:1028C00023462E225146FFF7AAFE204604EBD07184
:1028D0004A10B11C02FB0151CDB22FE09FED280B35
:1028E00053EC102B51EC190B04F01DFC41EC190BAF
:1028F00051EC190B04F016FD8046404604F005FD2E
:1029000041EC1A0B53EC192B04F00AFC41EC190BA7
:102910000120A34604EBDB71491001FB0951009033
:10292000C8B208F13001CAB223465146FFF777FE1C
:1029300009F1010000F0FF09781EC7B2002FCDD1C8
:1029400001B0BDEC068BBDE8F08F2DE9F0432DED15
:10295000048B81B005468846B0EE408AF0EE608A6E
:1029600017461C4600269FED080B53EC102B0FE07A
:10297000C4000020BC8E0008309300082099000895
:1029800000000000000024400000000000000000E3
:1029900051EC180B04F0F8FC55D2012023462D22EF
:1029A000414600902846FFF73AFE51EC180B81F0A3
:1029B000004141EC180B51EC180B81F0004141EC47
:1029C000190B04F0AFFC06466420B6FBF0F080B1B2
:1029D000A14604EBD97105EB6101C8B23B46032265
:1029E000B0EE480AF0EE680A41460094FFF737FF60
:1029F00024E00A20B6FBF0F080B1A14604EBD971C7
:102A000005EB6101C8B23B460222B0EE480AF0EE87
:102A1000680A41460094FFF722FF0FE0A14604EB4D
:102A2000D97105EB6101C8B23B460122B0EE480AFC
:102A3000F0EE680A41460094FFF711FF01B0BDECCB
:102A4000048BBDE8F08351EC180B04F06BFC0646D8
:102A50006420B6FBF0F080B1A14604EBD97105EB20
:102A60006101C8B23B460322B0EE480AF0EE680AA4
:102A700041460094FFF7F3FE24E00A20B6FBF0F095
:102A800080B1A14604EBD97105EB6101C8B23B46A8
:102A90000222B0EE480AF0EE680A41460094FFF7C1
:102AA000DEFE0FE0A14604EBD97105EB6101C8B26F
:102AB0003B460122B0EE480AF0EE680A4146009417
:102AC000FFF7CDFE00BFB9E72DE9FF4F06460D46E3
:102AD00090461F46464518D1BD4206DD0396029535
:102AE00046463D46DDF80C80029F781B00F0FF094A
:102AF000002407E02819C1B230460D9AFFF75DFDAA
:102B0000601CC4B24C45F5DDDCE0BD4219D1464540
:102B100006DD0396029546463D46DDF80C80029F91
:102B2000A8EB060000F0FF09002407E03119C8B245
:102B300029460D9AFFF741FD601CC4B24C45F5DDF6
:102B4000C0E0464506DD0396029546463D46DDF863
:102B50000C80029F781BA8EB0601884204DAE81B70
:102B6000A8EB060188424FDB781BC821484390FB45
:102B7000F9FB0195002444E00BFB04F0C82190FB15
:102B8000F1F0284400F0FF0A0BFB04F090FBF1F297
:102B900001FB1200642804DB0AF1010000F0FF0AC7
:102BA0000DE00BFB04F0C82190FBF1F201FB1200D9
:102BB00010F1640F03DCAAF1010000F0FF0A0D9888
:102BC0003119CAB231190090C8B253460199FFF7C2
:102BD0007BFF781B484506DBBD4204DA0AF10100A1
:102BE000C0B201900BE0E81B484506DBBD4204DDA6
:102BF000AAF10100C0B2019001E0CDF804A0601C70
:102C0000C4B24C45B8DD5DE0BD4206DD03960295D9
:102C100046463D46DDF80C80029F781B00F0FF0918
:102C2000A8EB0600C821484390FBF9FB019600245D
:102C300046E00BFB04F0C82190FBF1F0304400F0BB
:102C4000FF0A0BFB04F090FBF1F201FB1200642879
:102C500004DB0AF1010000F0FF0A0DE00BFB04F0B9
:102C6000C82190FBF1F201FB120010F1640F03DCAC
:102C7000AAF1010000F0FF0A0D9800902819C3B2D4
:102C80002819C1B252460198FFF71EFFA8EB0600B3
:102C9000484506DB464504DA0AF10100C0B201905E
:102CA0000CE0A6EB0800484506DB464504DDAAF12A
:102CB0000100C0B2019001E0CDF804A0601CC4B2D4
:102CC0004C45B6DDBDE8FF8F2DE9FF4F05460E46AA
:102CD00017469846BD4219D1464506DD0395029632
:102CE0003D464646039FDDF80880A8EB060000F04D
:102CF000FF09002407E03019C1B228460D9AFFF7FA
:102D00005CFC601CC4B24C45F5DDDFE0464518D1E3
:102D1000BD4206DD039502963D464646039FDDF81B
:102D20000880781B00F0FF09002407E02919C8B2C9
:102D300031460D9AFFF741FC601CC4B24C45F5DDED
:102D4000C4E0BD4206DD039502963D464646039F1C
:102D5000DDF80880781B00F0FF09A8EB0600791B5E
:102D6000884204DAA6EB0800791B884252DBA8EB04
:102D70000600C821484390FBF9FB0196002446E079
:102D80000BFB04F0C82190FBF1F0304400F0FF0A87
:102D90000BFB04F090FBF1F201FB1200642804DB52
:102DA0000AF1010000F0FF0A0DE00BFB04F0C8215E
:102DB00090FBF1F201FB120010F1640F03DCAAF1A9
:102DC000010000F0FF0A0D982919CAB229190090D4
:102DD000C8B253460199FFF777FEA8EB06004845B5
:102DE00006DB464504DA0AF10100C0B201900CE0AE
:102DF000A6EB0800484506DB464504DDAAF10100C4
:102E0000C0B2019001E0CDF804A0601CC4B24C45F2
:102E1000B6DD5BE0464506DD039502963D46464637
:102E2000039FDDF80880A8EB060000F0FF09781B7F
:102E3000C821484390FBF9FB0195002444E00BFBBB
:102E400004F0C82190FBF1F0284400F0FF0A0BFBCE
:102E500004F090FBF1F201FB1200642804DB0AF19C
:102E6000010000F0FF0A0DE00BFB04F0C82190FB0D
:102E7000F1F201FB120010F1640F03DCAAF1010072
:102E800000F0FF0A0D9800903019C3B23019C1B29A
:102E900052460198FFF718FE781B484506DBBD42F5
:102EA00004DA0AF10100C0B201900BE0E81B4845CA
:102EB00006DBBD4204DDAAF10100C0B2019001E0D1
:102EC000CDF804A0601CC4B24C45B8DDBDE8FF8F4E
:102ED00006E04FF4165100BF0A1EA1F10101FBD11B
:102EE000021EA0F10100F4D1704705E0092100BFE6
:102EF0000A1EA1F10101FBD1021EA0F10100F5D1D2
:102F0000704700B58BB04FF40010FEF7BCF880207E
:102F1000FEF7B7F901A8FDF7E6FC3020019000208C
:102F2000049012200290082006900120039001A92D
:102F3000FC48FDF7A8FCFC48FEF706FC07A8FEF7D6
:102F4000C9FC0020ADF82000ADF822003020ADF81B
:102F500024000020ADF826004FF48040ADF8280092
:102F6000F248079007A9F048FEF79BFCEE48FEF7F1
:102F7000C0FC00200BB000BD10B586B04FF48070CF
:102F8000FEF77FF90120FEF7A4F9E648FDF718FAED
:102F90006846FDF7A8FC1020009000200390012057
:102FA00001906946DF48FDF76EFC00240FE0102118
:102FB000DC48FDF7BCFC0520FFF797FF1021D9483E
:102FC000FDF7BDFC0520FFF790FF601CC4B2092C83
:102FD000EDDB06B010BD72B6D5A004F063FB00BFF8
:102FE00000BF00BF00BF00BFBFF34F8F00BF00BFD7
:102FF00000BFD848006800F4E060D7490843001DCE
:10300000D449086000BF00BF00BFBFF34F8F00BFAF
:1030100000BF00BF00BF00BFFDE710B5CF4800787C
:10302000032801DBFFF7D7FFCC480078401CCB49D1
:1030300008704FF40010FEF756F94FF40010FEF739
:1030400038F9C748006820F47040C549086001207D
:10305000FEF729F94FF48070FEF719F94FF40010CC
:10306000FEF741F9FFF788FFBEA004F01BFBFFF756
:1030700048FF10BD00B587B001A8FDF734FC302033
:10308000019000200490029001A9A648FDF7FBFBE7
:103090004FF42040BD49086000BFA24810300068CE
:1030A00000F03000302814D19F48008840F40040E0
:1030B0009D49088000BF00BF00BF00BF00BF9A4805
:1030C000008820F4004098490880B1A004F0EAFA92
:1030D00009E0AE490868411EAC4A11600028DCD105
:1030E000FFF79BFFD9E700BF07B000BD10B504464E
:1030F0002146B1A004F0D6FAFFF7BCFF10BD70B5B1
:1031000004460D4626464FF42040A049086008E0DA
:103110009E490868411E9D4A116010B90120FFF7C1
:10312000E5FF4FF400318048FEF729FD0028EFD17C
:10313000A548007828B90120A34908707A48FEF70D
:10314000F6FB4FF420409149086008E08F49086879
:10315000411E8E4A116010B90220FFF7C7FF9B493C
:103160007148FEF7EDFC0028F0D0002278216E486F
:10317000FEF727FC4FF420408449086008E08349AB
:103180000868411E814A116010B90320FFF7AEFFA5
:103190008F496548FEF7D4FC0028F0D000208A490A
:1031A000087019E016F8011B5F48FEF704FC4FF4A5
:1031B00020407649086008E074490868411E734A57
:1031C000116010B90520FFF791FF8149891E56480B
:1031D000FEF7B6FC0028EFD0281EA5F10105E1DCC2
:1031E0004FF420406949086008E068490868411EBA
:1031F000664A116010B90620FFF778FF7449891CF0
:103200004948FEF79DFC0028EFD06F48007828B9A8
:1032100002206D4908704448FEF793FB08E05B49C3
:103220000868411E594A116010B90120FFF75EFF7E
:103230004FF400313C48FEF7A2FC0028EFD1624970
:10324000087070BD70B506460D4634464FF42040F8
:103250004E49086008E04D490868411E4B4A11601C
:1032600010B90120FFF742FF4FF400312E48FEF75E
:1032700086FC0028EFD12C48FEF76DFB5248007801
:1032800028B90120504908702748FEF750FB4FF439
:1032900020403E49086008E03C490868411E3B4A1E
:1032A000116010B90220FFF721FF48491E48FEF7C0
:1032B00047FC0028F0D0012278211B48FEF781FB53
:1032C0004FF420403149086008E030490868411E49
:1032D0002E4A116010B90420FFF708FF3B49491C32
:1032E0001148FEF72DFC0028EFD000203649087069
:1032F000012D16D10C48FEF733FB0B481430008823
:103300000948183000883048007828B902202E4932
:1033100008700548FEF715FB4FF420401B49086074
:1033200061E06DE00034024000540040801A060065
:103330002A2A2A2A2A204E56494320737973746513
:103340006D20726573657421202A2A2A2A2A0D0AA3
:10335000000000000CED00E00000FA0581000020F4
:10336000003802402A2A2A2A2A20494943206D6F20
:1033700064756C65206279205243432072657365E1
:103380007421202A2A2A2A2A0D0A00007C00002003
:103390002A2A2A2A2A20494943206D6F64756C65C0
:1033A0002073656C6620726573657421202A2A2A51
:1033B0002A2A0D0A000000002E2E2E457272436F3D
:1033C00064653A25640D0A008000002001000300B6
:1033D000820007006D490868411E6C4A116010B9EF
:1033E0000720FFF783FE6A496A48FEF7C8FB0028FA
:1033F000F0D06848FEF7E1FA04F8010B6D1EADE06D
:10340000022D39D16348008840F40060614908808A
:103410006048143000885F48183000880846FEF77E
:103420009FFA4FF420405949086008E0574908685E
:10343000411E564A116010B90820FFF757FE544943
:103440003C395448FEF79BFB0028EFD052480078E7
:1034500028B90220504908704E48FEF772FA4D48CC
:10346000FEF7ABFA04F8010B6D1E4A48FEF7A5FA09
:1034700004F8010B6D1E71E04648FEF76CFA4548F2
:103480001430008843481830008864E0032D48D188
:103490004FF420403D49086008E03C490868411E5F
:1034A0003A4A116010B90820FFF720FE38493C392C
:1034B0003848FEF764FB0028EFD03648FEF750FA94
:1034C0003448FEF77AFA04F8010B6D1E4FF42040E1
:1034D0002E49086008E02D490868411E2B4A1160FA
:1034E00010B90820FFF702FE29493C392948FEF7A8
:1034F00046FB0028EFD02848007828B9022026494A
:1035000008702448FEF71DFA2248FEF756FA04F820
:10351000010B6D1E1F48FEF750FA04F8010B6D1EDB
:103520001BE04FF420401949086008E0174908687B
:10353000411E164A116010B90720FFF7D7FD174941
:103540001448FEF7FDFA0028F0D01248FEF735FACD
:1035500004F8010B6D1E002D98D100BF4FF42040E0
:103560000A49086008E009490868411E074A1160D5
:1035700010B90120FFF7BAFD4FF400310548FEF7FE
:10358000FEFA0028EFD10449087070BD7C000020CD
:103590004000001000540040800000204000030064
:1035A00000B587B04FF48070FDF76BFE01A8FDF702
:1035B0009AF94FF4C040019000200490012002903D
:1035C000039001A9C148FDF75EF900BF4FF4005117
:1035D000BE48FDF7ACF900BF00BF4FF48041BB48C7
:1035E000FDF7A5F900BF07B000BD10B5B7480068EA
:1035F00020F04050B54908600846006840F080500F
:10360000086000BF4FF48041B048FDF790F900BF5B
:1036100000BF4FF40051AD48FDF789F900BF042009
:1036200003F029FC00BF4FF48041A848FDF781F961
:1036300000BF042003F01FFC00BF4FF40051A3485B
:10364000FDF777F900BF10BD10B5A048006820F065
:1036500040509E4908600846006840F0805008606D
:1036600000BF4FF400519948FDF763F900BF00BF58
:103670004FF480419548FDF75CF900BF042003F04A
:10368000FAFB00BF4FF400519048FDF750F900BF1E
:1036900000BF4FF480418D48FDF749F900BF042079
:1036A00003F0E9FB10BD10B500248848006820F045
:1036B00040508649086008460068086000BF4FF423
:1036C00080418248FDF733F900BF012003F0D3FBAE
:1036D00000BF4FF400517D48FDF729F900BF0120DC
:1036E00003F0C9FB07E0601CC4B2FA2C03DDFFF74E
:1036F000ABFF012010BD4FF480417448FDF7FFF887
:103700000028F0D100BF4FF400517048FDF711F9C7
:1037100000BF0020EEE710B500BF4FF400516B482A
:10372000FDF707F900BF6948006820F0405067497D
:1037300008600846006840F08050086000BF4FF401
:1037400080416248FDF7F5F800BF022003F093FBCB
:1037500000BF4FF400515D48FDF7E9F800BF0220BB
:1037600003F089FB00BF4FF400515848FDF7E1F822
:1037700000BF10BD10B500BF4FF400515348FDF716
:10378000D8F800BF5148006820F040504F49086009
:103790000846006840F08050086000BF4FF4804148
:1037A0004A48FDF7C4F800BF022003F064FB00BFE5
:1037B0004FF400514548FDF7BAF800BF022003F06E
:1037C0005AFB00BF4FF400514048FDF7B2F800BF6C
:1037D00010BD70B504463D48006820F040503B499C
:1037E00008600846006840F08050086000BF4FF451
:1037F00000513648FDF79DF800BF00252AE0E0099A
:1038000030B100BF4FF480413048FDF790F806E03A
:1038100000BF4FF480412D48FDF78BF800BF6006D4
:10382000040E022003F027FB00BF4FF4005127488D
:10383000FDF77DF800BF022003F01DFB00BF4FF431
:1038400000512248FDF775F800BF022003F013FB7A
:10385000681CC5B2082DD2DB70BD70B505460024CA
:103860001A48006820F0405018490860084600686F
:10387000086000261FE000BF4FF400511348FDF719
:1038800058F800BF022003F0F6FA00BF4FF40051D1
:103890000E48FDF74CF800BF6006040E4FF480415F
:1038A0000A48FDF72CF808B1601CC4B2012003F0EF
:1038B000E2FA701CC6B2082EDDDB15B9FFF75AFF1D
:1038C00001E0FFF728FF204670BD000000380240ED
:1038D00070B505460C46FFF788FED020FFF779FF4C
:1038E000FFF7E1FE18B1FFF7AFFE012070BD2846DB
:1038F000FFF76FFFFFF7D7FE2046FFF76AFFFFF7DE
:10390000D2FE18B1FFF7A0FE0120EFE7FFF79CFE03
:103910000020EBE770B504460025BC2C01DB012537
:1039200010E0622C01DB02250CE02A2C01DB0325D0
:1039300008E0142C01DB042504E00A2C01DB05253A
:1039400000E0062529461A20FFF7C2FF70BD70B5BA
:103950000446B4F57A7F01DD4FF47A74042C00DA62
:1039600004244FF47A7090FBF4F0401EC5B229464F
:103970001920FFF7ADFF0546264604EBD671C1F3CB
:103980004F00FFF7C7FF70BD70B50446FFF72DFE6F
:10399000D020FFF71EFFFFF786FE2046FFF719FF36
:1039A000FFF781FEFFF721FED120FFF712FFFFF79F
:1039B0007AFE0020FFF751FF0546FFF745FE284637
:1039C00070BD10B50446E006010E1C20FFF780FF15
:1039D00010BD10B50446E006010E1B20FFF778FF6E
:1039E00010BD00B587B04FF48070FDF74AFC01A808
:1039F000FCF779FF04200190002004900120029040
:103A00000220039001A99F48FCF73DFF04219D4837
:103A1000FCF78FFF07B000BD10B5FFF7C1FDFFF742
:103A2000E0FF80216B20FFF753FF642003F047FA8B
:103A300000216B20FFF74CFF0320FFF7CAFF002097
:103A4000FFF7BFFF3220FFF782FF00213820FFF78A
:103A50003FFF00216A20FFF73BFF00212320FFF7F3
:103A600037FF80213720FFF733FF7520FFF78CFFEA
:103A70000446682C0ED101216B20FFF729FF00219D
:103A80006C20FFF725FF3220FFF761FF7EA003F0D7
:103A900009FE04E081A003F005FE012010BD002016
:103AA000FCE72DE9F04106460F4614461D46FFF798
:103AB0009CFD002141EA4601C8B2FFF78AFEFFF7EC
:103AC000F2FD20B1FFF7C0FD0120BDE8F0813846CE
:103AD000FFF77FFEFFF7E7FDFFF787FD012101EB11
:103AE0004601C8B2FFF775FEFFF7DDFD0DE0012CC2
:103AF00004D10020FFF7B1FE287003E00120FFF79A
:103B0000ACFE2870601EC4B26D1C002CEFD1FFF714
:103B10009BFD0020D9E710B52DED088B82B001ABDD
:103B2000022241216820FFF7BCFF9DF805009DF8A7
:103B3000041040EA012004B2204603F0D5FB41EC1A
:103B40001B0B9FED5B0B53EC102B03F05EFB41EC6A
:103B50001A0B9FED590B53EC102B03F03DFA41EC7F
:103B6000190B03F029FC08EE100A9FED550A28EE08
:103B7000000ABDEEC00A10EE100A00B202B0BDECA1
:103B8000088B10BD2DE9FC4104460D4616466B46D8
:103B9000062243216820FFF784FF0746BFB99DF83E
:103BA00001009DF8001040EA012000B220809DF83D
:103BB00003009DF8021040EA012000B228809DF821
:103BC00005009DF8041040EA012000B2308038461C
:103BD000BDE8FC812DE9FC4104460D4616466B46C6
:103BE00006223B216820FFF75CFF0746BFB99DF81E
:103BF00001009DF8001040EA012000B220809DF8ED
:103C000003009DF8021040EA012000B228809DF8D0
:103C100005009DF8041040EA012000B230803846CB
:103C2000BDE8FC812DE9F04105460E461746984651
:103C3000FFF7DBFC002141EA4501C8B2FFF7C9FDEF
:103C4000FFF731FD20B1FFF7FFFC0120BDE8F08157
:103C50003046FFF7BEFDFFF726FD00240CE018F804
:103C60000400FFF7B6FDFFF71EFD18B1FFF7ECFCEF
:103C70000120EBE7601CC4B2BC42F0DBFFF7E4FCC0
:103C80000020E3E7003802404D50555F496E6974EB
:103C900020737563636573730D0A00004D50555FA3
:103CA000496E6974206661696C65640D0A000000E4
:103CB0000000000000407540A4703D0AD743424018
:103CC0000000C84238B50446F74890F82400C0B157
:103CD00014B10220009001E000200090F24A126826
:103CE000D17BF14A526810786B460122FFF79AFFA8
:103CF00010B14FF0FF3038BD9DF80010EA48417414
:103D000023E0E948807A10B94FF0FF30F3E724B19F
:103D1000E548407C08B10020EDE714B10120009097
:103D200001E000200090E04A1268D17BDE4A526830
:103D300010786B460122FFF775FF10B14FF0FF308E
:103D4000D9E79DF80010D84841740020D3E738B572
:103D500000241FE0D4480068C07AA04204D0D248B2
:103D60000068407DA04200D112E0CF494968087840
:103D70006B4601222146FFF794FE10B14FF0FF3051
:103D800038BD9DF800202146C8A003F08BFC00BF81
:103D9000601CC4B2C44840680079A042DADC00204C
:103DA000EEE770B504460D46BF480068C07AA042F1
:103DB00004D0BD480068407DA04202D14FF0FF30E2
:103DC00070BDB94840680079A04202DC4FF0FF3076
:103DD000F6E7B549496808782B4601222146FFF7E6
:103DE00060FEEDE738B50446AF4890F82300A042E6
:103DF00001D1002038BD14B13020009001E0002036
:103E00000090A948807C20B19DF8000040F002009D
:103E10000090A54890F8220020B19DF8000040F0E5
:103E200080000090A04A1268117D9F4A5268107865
:103E30006B460122FFF7F6FE10B14FF0FF30D9E7D5
:103E4000994880F823400020D4E738B5044604F0B0
:103E5000700010B10120009005E014B10020009026
:103E600001E040200090904A1268917C8E4A52688E
:103E700010786B460122FFF7D5FE20B100218A4859
:103E80008172481E38BD9DF8000020F04001864830
:103E900001730020009004F0400020B99DF800005C
:103EA00040F00400009004F0200020B99DF80000CC
:103EB00040F00200009004F0100020B99DF80000CE
:103EC00040F00100009004F0080020B99DF80000C7
:103ED00040F038000090744A1268D17C724A5268EF
:103EE00010786B460122FFF79DFE20B100216E483D
:103EF0008172481EC6E724B1082C02D00020FFF7CB
:103F000071FF6948847200210175322002F0D7FFE9
:103F10000020B7E738B504466348807CA04201D151
:103F2000002038BD002C46D05F4A126811795E4AE5
:103F3000526810786B460122FFF7B3FD10B14FF0C5
:103F4000FF30EEE79DF8000020F020000090564A78
:103F500012681179544A526810786B460122FFF7B3
:103F600061FE10B14FF0FF30DBE7032002F0A7FF46
:103F7000022000904C4890F8220020B19DF80000EB
:103F800040F080000090484890F8230020B19DF850
:103F9000000040F030000090434A1268117D424A10
:103FA000526810786B460122FFF73CFE002851D082
:103FB0004FF0FF30B5E73C4A126811793A4A52682F
:103FC00010786B460122FFF76CFD10B14FF0FF3007
:103FD000A7E73548807A00F0010028B19DF800007D
:103FE00040F02000009004E09DF8000020F0200048
:103FF00000902D4A126811792B4A526810786B464E
:104000000122FFF70FFE10B14FF0FF3089E70320C8
:1040100002F055FF244890F8220010B18020009053
:1040200001E000200090204890F8230020B19DF886
:10403000000040F0300000901B4A1268117D1A4ABF
:10404000526810786B460122FFF7ECFD10B14FF07B
:10405000FF3066E714488474002062E708B5124810
:10406000807A10B94FF0FF3008BD002000900E4A52
:104070001268D17B0C4A526810786B460122FFF718
:10408000D1FD10B14FF0FF30EEE7074A12685179C9
:10409000054A526810786B460122FFF7C3FD68B1EC
:1040A0004FF0FF30E0E70000840000202523357842
:1040B0003A20252335780D0A00000000F84A1268DE
:1040C0001179F74A526810786B460122FFF7AAFD72
:1040D00010B14FF0FF30C7E7F14890F824000028F6
:1040E00053D00C200090EE4A12681179EC4A5268C5
:1040F00010786B460122FFF795FD10B14FF0FF30AD
:10410000B2E7322002F0DBFEC0200090E448807A63
:1041100000F0010020B19DF8000040F02000009068
:10412000DF4A12681179DE4A526810786B46012224
:10413000FFF778FD10B14FF0FF3095E7D848407C8D
:1041400010B10220009001E000200090D44A1268D3
:10415000D17BD34A526810786B460122FFF762FD8B
:1041600010B14FF0FF307FE700200090CC4A12687A
:104170005179CB4A526810786B460122FFF752FD05
:10418000002855D04FF0FF306EE704200090C44A5D
:1041900012681179C24A526810786B460122FFF703
:1041A00041FD10B14FF0FF305EE7BD48807C20B983
:1041B000BB48807A00F0010010B94020009001E077
:1041C00060200090B64A12681179B54A526810789A
:1041D0006B460122FFF726FD10B14FF0FF3043E799
:1041E000322002F06CFEAE48407C10B101200090FD
:1041F00001E000200090AA4A1268D17BA84A5268C8
:1042000010786B460122FFF70DFD10B14FF0FF3023
:104210002AE7A34A12685179A14A52681078A04B44
:1042200010330122FFF7FEFC10B14FF0FF301BE707
:10423000002019E770B50446002624F001049848D0
:1042400090F8240008B1002070BD9548807A10B91C
:104250004FF0FF30F8E79248057C807A2040904983
:1042600008740846007CA04202D04FF0FF3600E000
:10427000002614B98A48007D18B10120FFF722FDFD
:1042800002E00020FFF71EFD3CB1FFF7E7FE20B182
:10429000834805744FF0FF30D6E73046D4E738B591
:1042A00004467F48807A10B94FF0FF3038BDBC2CEF
:1042B00002DB0120009015E0622C02DB022000905E
:1042C00010E02A2C02DB032000900BE0142C02DB10
:1042D0000420009006E00A2C02DB0520009001E09B
:1042E000062000906E48C07A9DF80010884201D1E7
:1042F0000020DBE76A4A12689178694A52681078B0
:104300006B460122FFF78EFC10B14FF0FF30CDE776
:104310009DF800106248C1720020C7E738B5044616
:10432000282C02DD4FF0FF3038BDDCB90020FFF74C
:1043300059FD00208DF8000007208DF80100584A33
:104340001268917C564A526810786B460222FFF739
:1043500069FC10B14FF0FF30E6E7002150480175CD
:104360000020E1E70120FFF73DFD20208DF800004F
:10437000012C06D100208DF801000520FFF78FFFEA
:1043800017E0052C06DC01208DF801000520FFF761
:1043900086FF0EE0142C06DC02208DF801000A20B6
:1043A000FFF77DFF05E003208DF801001420FFF7E3
:1043B00076FF9DF80100072101EB8010C0B28DF857
:1043C0000100374A1268917C354A526810786B4672
:1043D0000222FFF727FC10B14FF0FF30A4E70821BD
:1043E0002F48817200210173012101750020FFF720
:1043F00021FF002098E738B504462948807A10B993
:104400004FF0FF3038BD264890F8240010B14FF02F
:10441000FF30F7E72248007D50B134B1282C04DC8E
:10442000E0B2FFF77BFF0020ECE70020FFF776FF0C
:10443000042C01DA042404E0B4F57A7F01DD4FF4A2
:104440007A744FF47A7090FBF4F0401EC0B2009082
:10445000134A12685178124A526810786B4601224A
:10446000FFF7E0FB10B14FF0FF30CBE79DF8000005
:10447000401C4FF47A7191FBF0F081B20848C18181
:104480000146C9894810FFF70AFF0020BAE738B58E
:1044900004460348807A28B94FF0FF3038BD000049
:1044A00084000020022C06D0042C07D0082C08D051
:1044B000102C0CD108E0002000900BE008200090A8
:1044C00008E01020009005E01820009002E04FF076
:1044D000FF30E3E700BFF748407A9DF80010B0EBEB
:1044E000E10F01D10020D9E7F24A1268D179F14AEF
:1044F000526810786B460122FFF794FB10B14FF021
:10450000FF30CBE79DF80000C110EA48417200205F
:10451000C4E738B50446E748807A10B94FF0FF3059
:1045200038BDFA2C09D0B4F5FA7F09D0B4F57A7FFA
:1045300009D0B4F5FA6F0CD108E0002000900BE030
:104540000820009008E01020009005E0182000905E
:1045500002E04FF0FF30E3E700BFD648007A9DF855
:104560000010B0EBE10F01D10020D9E7D14A126869
:104570009179D04A526810786B460122FFF752FBBE
:1045800010B14FF0FF30CBE79DF80000C010C949D3
:1045900008720020C4E71CB580208DF80000C54AD1
:1045A0001268917CC34A526810786B460122FFF76B
:1045B00039FB10B14FF0FF301CBD642002F07FFCCE
:1045C00000208DF80000BB4A1268917CB94A5268FD
:1045D00010786B460122FFF725FB10B14FF0FF303A
:1045E000EAE7B44A1268917DB24A526810786B4685
:1045F0000622FFF756FA10B14FF0FF30DCE79DF8C6
:104600000500C007400F9DF8031001F0010140EACA
:1046100041009DF8011001F0010140EA010494B14C
:10462000012C03D10121A348C17431E0022C03D134
:104630000021A048C1742BE021469FA003F032F86E
:104640004FF0FF30B8E79B4A1268D178994A526818
:1046500010786B460122FFF724FA10B14FF0FF30BB
:10466000AAE79DF8000000F00F042CB99C4803F065
:1046700019F84FF0FF309FE7042C06D199A003F002
:1046800011F801218B48C17402E000218948C174EE
:10469000FF2188488172FF2086490872FF218548E2
:1046A0004172C1724FF6FF71C181FF2101748174A3
:1046B0000121017380F82210002180F82310417538
:1046C00001751630016041608160163880F8241051
:1046D00080F82510C1844FF4FA60FFF71AFF10B17B
:1046E0004FF0FF3068E70220FFF7D1FE10B14FF026
:1046F000FF3061E72A20FFF7D2FD10B14FF0FF3005
:104700005AE73220FFF777FE10B14FF0FF3053E742
:104710000020FFF78FFD10B14FF0FF304CE7002075
:10472000FFF7F8FB10B14FF0FF3045E70020FFF72F
:104730008CFB002040E770477CB504460D465D4881
:10474000807A00F0700010B94FF0FF307CBD594AFC
:104750001268117B574A526810786B460622FFF7A1
:10476000A0F910B14FF0FF30F0E79DF801009DF87F
:10477000001040EA012000B220809DF803009DF85F
:10478000021040EA012000B260809DF805009DF80B
:10479000041040EA012000B2A08015B12846FFF7BE
:1047A000CAFF0020D2E77CB504460D464148807A16
:1047B00000F0080010B94FF0FF307CBD3D4A126890
:1047C000517B3C4A526810786B460622FFF769F924
:1047D00010B14FF0FF30F0E79DF801009DF8001098
:1047E00040EA012000B220809DF803009DF80210ED
:1047F00040EA012000B260809DF805009DF8041099
:1048000040EA012000B2A08015B12846FFF793FFCF
:104810000020D2E7F8B506460C462648807A10B943
:104820004FF0FF30F8BD234A1268917B214A52684D
:1048300010786B460222FFF734F910B14FF0FF30C9
:10484000F0E79DF801009DF8001040EA012005B254
:1048500014B12046FFF76FFF16484068B0F9080012
:1048600000EE100AF8EEC00A00EE105AB8EEC00AC8
:1048700070EE600A0F484068C08800EE100AB8EE7B
:10488000400A80EE801A9FED1F0A31EE000ADFED2C
:104890001E0A20EE200ABDEEC00A86ED000A0020A6
:1048A000C0E710B588B004461CB94FF0FF3008B01F
:1048B00010BD2BE084000020556E737570706F7210
:1048C00074656420736F6674776172652070726FAF
:1048D00064756374207265762025642E0A000000DA
:1048E000D8B4000848616C662073656E736974699A
:1048F00076697479207061727420666F756E642EAB
:104900000A00000000000C4200008047206830B917
:10491000606820B9A06810B9002008B010BDF9493E
:104920004968087806AB03221146FFF7BAF810B1C0
:104930004FF0FF30F1E79DF81800082101EB20103F
:1049400000F00F00ADF800009DF8190001EB2010F9
:1049500000F00F00ADF802009DF81A0001EB2010E6
:1049600000F00F00ADF8040020684100BDF9000020
:10497000403091FBF0F000B2ADF8100060684100EB
:10498000BDF90200403091FBF0F000B2ADF812002A
:10499000A0684100BDF90400403091FBF0F000B286
:1049A000ADF81400D7494968087806AB06221146CD
:1049B000FFF777F810B14FF0FF30AEE79DF8190020
:1049C0009DF8181040EA012000B2ADF808009DF8EB
:1049D0001B009DF81A1040EA012000B2ADF80A0051
:1049E0009DF81D009DF81C1040EA012000B2ADF8B2
:1049F0000C00BDF81000BDF80810084400B2ADF876
:104A00001000BDF81200BDF80A10084400B2ADF85D
:104A10001200BDF81400BDF80C10084400B2ADF847
:104A20001400BDF81000000A8DF81800BDF8100041
:104A3000C0B28DF81900BDF81200000A8DF81A00F6
:104A4000BDF81200C0B28DF81B00BDF81400000ABA
:104A50008DF81C00BDF81400C0B28DF81D00A949E6
:104A60004968087806AB06221146FFF7DBF810B15B
:104A70004FF0FF3051E700204FE70146A148007A90
:104A800030B1012807D0022809D003280FD10AE04D
:104A9000FA2008800EE04FF4FA7008800AE04FF424
:104AA0007A70088006E04FF4FA60088002E0002087
:104AB000088000BF00BF0020704701469148407A3F
:104AC00030B1012807D0022808D003280CD108E013
:104AD000022008700BE00420087008E0082008702D
:104AE00005E01020087002E04FF0FF30704700BF73
:104AF0008448C07C18B108784006000E0870002079
:104B0000F4E701467F48C07A082817D2DFE800F0B2
:104B10001704070A0D101318BC20088013E0622048
:104B2000088010E02A2008800DE0142008800AE0A8
:104B30000A20088007E00520088004E000BF00BFCD
:104B40000020088000BF00BF0020704701466D486C
:104B500090F8240010B14FF0FF3070476948C089C9
:104B600008800020F9E7014600200880401E7047B9
:104B700001464FF0FF30704701466248007A30B17D
:104B8000012809D002280CD0032814D10EE09FED93
:104B90005E0A81ED000A11E09FED5C0A81ED000ADA
:104BA0000CE09FED5B0A81ED000A07E09FED590ADA
:104BB00081ED000A02E04FF0FF30704700BF002097
:104BC000FBE701464F48407A30B1012808D002285F
:104BD0000AD0032810D10BE04FF4804008800EE08B
:104BE00041F69C7008800AE04FF48050088006E08F
:104BF0004FF40060088002E04FF0FF30704700BFC4
:104C00004048C07C10B10888401008800020F5E7BB
:104C100001463C48007C0870002070470146394836
:104C2000807A10B10120087001E000200870002097
:104C3000704738B504463348807A10B94FF0FF30DA
:104C400038BD304A1268117C2E4A526810786B4683
:104C50000222FEF726FF10B14FF0FF30F0E79DF87B
:104C600001009DF8001040EA012000B220800020E1
:104C7000E6E72DE9FE4F0746884692461D46DDF8D9
:104C800030B0002600241F4890F8240010B1601EA8
:104C9000BDE8FE8F002028701A48807A10B94FF0C6
:104CA000FF30F5E71748007C10B94FF0FF30EFE711
:104CB0001448007C00F0400008B1B01CC6B2114896
:104CC000007C00F0200008B1B01CC6B20D48007C8A
:104CD00000F0100008B1B01CC6B20A48007C00F019
:104CE000080008B1B01DC6B2064A1268917A054A9A
:104CF000526810786B460222FEF7D3FE60B14FF087
:104D0000FF30C5E784000020000003430000834219
:104D100033330342333383419DF801009DF8001083
:104D200040EA0129B14501DA0020B1E7FA484068BC
:104D30004088B9EB600F17DDF74A1268517CF64ADC
:104D4000526810786B460122FEF7ABFE10B14FF0AF
:104D5000FF309DE79DF8000000F0100020B1FFF744
:104D60007DF96FF0010093E75046FFF7E4FCEA4A53
:104D70001268D17AE84A526810786B463246FEF7DC
:104D800090FE10B14FF0FF3082E799FBF6F0401E25
:104D90008BF8000000202870B4422AD0DE48007C46
:104DA00000F0080028B3601C1DF800001DF8041076
:104DB00040EA012000B2A8F80000E01C1DF8001035
:104DC000A01C1DF8000041EA002000B2A8F8020073
:104DD000601D1DF80010201D1DF8000041EA002094
:104DE00000B2A8F80400287840F008002870A01D40
:104DF00084B2B44213D0C848007C00F0400070B1C7
:104E0000601C1DF800001DF8041040EA012000B2EB
:104E10003880287840F040002870A01C84B2B4424A
:104E200013D0BD48007C00F0200070B1601C1DF85C
:104E300000001DF8041040EA012000B278802878B4
:104E400040F020002870A01C84B2B44213D0B248B5
:104E5000007C00F0100070B1601C1DF800001DF80F
:104E6000041040EA012000B2B880287840F0100019
:104E70002870A01C84B200200AE7F8B504460F464B
:104E80001646A54890F8240010B94FF0FF30F8BD41
:104E9000A148807A10B94FF0FF30F8E79E4A1268B7
:104EA000917A9D4A526810786B460222FEF7F9FD0E
:104EB00010B14FF0FF30EAE79DF801009DF80010B7
:104EC00040EA0125A54203DA00203070401EDEE7EB
:104ED000914840684088B5EB600F17DD8E4A126834
:104EE000517C8D4A526810786B460122FEF7D9FD3D
:104EF00010B14FF0FF30CAE79DF8000000F010003D
:104F000020B1FFF7ABF86FF00100C0E7E2B2824BCF
:104F10001B68D97A804B5B6818783B46FEF7C1FD69
:104F200010B14FF0FF30B2E795FBF4F0401E307047
:104F30000020ACE70146784880F822100020704736
:104F40007CB5054674494968087801AB04220D21F7
:104F5000FEF7A7FD08B107207CBD9DF80700C0F350
:104F600001109DF8041001F0E00140EAE1008DF825
:104F700000009DF80700C0F381009DF8051001F0C6
:104F8000E00140EAE1008DF801009DF8070000F023
:104F900003009DF8061001F0E00140EAE1008DF801
:104FA0000200002427E01DF8040030B99FED5B0AE1
:104FB00005EB840080ED000A1BE09FED590A05EB2C
:104FC000840080ED000A0BE005EB840090ED000A00
:104FD000DFED540A20EE200A05EB840080ED000A84
:104FE0001DF80400401EC0B20DF804000028EBD1EB
:104FF00000BF601CC4B2032CD5DB0020ACE7F0B5C9
:105000002DED028B83B006460F4600256846FFF75C
:1050100097FF002447E056F8241057F82420881AF8
:10502000002801DB014600E0414200EE101AB8EE14
:10503000C00ADFED3D0A80EE208A684600EB84005E
:1050400090ED000AB5EEC00AF1EE10FA18D06846ED
:1050500000EB8400D0ED000A88EE200AF7EE000A8B
:1050600070EE608AB0EEE80A3048D0ED090AB4EE7E
:10507000E00AF1EE10FA15DD0120A040054311E031
:105080002A4890ED070AB4EEC80AF1EE10FA06DCE1
:1050900090ED080AB4EEC80AF1EE10FA02D201202F
:1050A000A0400543641C032CB5DB284603B0BDECCF
:1050B000028BF0BDF0B52DED048B81B006460F4696
:1050C00000251549496808786B4603220D21FEF733
:1050D000E8FC20B1072001B0BDEC048BF0BD9DF8C9
:1050E000000000F01F008DF800009DF8010000F0A6
:1050F0001F008DF801009DF8020000F01F008DF8E0
:105100000200002461E056F8241057F82420881A81
:1051100000280DDB01460CE08400002000000000A8
:105120007B14AE3E1D5A843F00008047A4A60008B1
:10513000414200EE101AB8EEC00A5FED050A80EE9B
:10514000208A1DF8040068B3FE4890ED000AB8EE0E
:10515000400ADFEDFD0A80EE801AF0EE418A05E09C
:105160009FEDFA0A28EE800AF0EE408A1DF804004E
:10517000401EC0B20DF804000028F1D188EE280AC4
:10518000F7EE000A30EE609AB0EEC90AED48D0EDB5
:10519000060AB4EEE00AF1EE10FA15DD0120A04097
:1051A000054311E0E74890ED040AB4EEC80AF1EEB9
:1051B00010FA06DC90ED050AB4EEC80AF1EE10FA1A
:1051C00002D20120A0400543641C032C9BDB28462F
:1051D00081E72DE9F04F87B005460C469146012046
:1051E0008DF8100000208DF81100D94A1268917CCA
:1051F000D74A5268107804AB0222FEF713FD20B1A3
:105200004FF0FF3007B0BDE8F08FC82001F057FE27
:1052100000208DF81000CE4A1268D17BCC4A52682B
:10522000107804AB0122FEF7FDFC10B14FF0FF3007
:10523000E8E7C74A12685179C54A5268107804AB4A
:105240000122FEF7EFFC10B14FF0FF30DAE7C04A61
:105250001268917CBE4A5268107804AB0122FEF7B6
:10526000E1FC10B14FF0FF30CCE7B94A1268D17DB4
:10527000B74A5268107804AB0122FEF7D3FC10B194
:105280004FF0FF30BEE7B24A12681179B04A526857
:10529000107804AB0122FEF7C5FC10B14FF0FF30CF
:1052A000B0E70C208DF81000A94A12681179A84ABD
:1052B0005268107804AB0122FEF7B4FC10B14FF035
:1052C000FF309FE70F2001F0FAFDA148806A407A85
:1052D0008DF810009E4A126891789D4A52681078A5
:1052E00004AB0122FEF79EFC10B14FF0FF3089E7BE
:1052F0009748806A007A8DF81000954A12685178B4
:10530000934A5268107804AB0122FEF78BFC10B16F
:105310004FF0FF3076E7B9F1000F07D08C48806A74
:10532000807A40F0E0008DF8100004E08848806A40
:10533000807A8DF81000864A12689179844A526802
:10534000107804AB0122FEF76DFC10B14FF0FF3076
:1053500058E7B9F1000F07D07D48806AC07A40F065
:10536000E0008DF8100003E07648C07A8DF8100058
:10537000774A1268D179764A5268107804AB0122D4
:10538000FEF750FC10B14FF0FF303BE7B9F1000FD2
:1053900002D0C82001F093FD40208DF810006C4A27
:1053A000126811796A4A5268107804AB0122FEF73C
:1053B00039FC10B14FF0FF3024E778208DF8100051
:1053C000634A12685179624A5268107804AB01222C
:1053D000FEF728FC10B14FF0FF3013E759498889D8
:1053E00001F06DFD00208DF81000594A12685179C6
:1053F000574A5268107804AB0122FEF713FC10B133
:105400004FF0FF30FEE6524A1268917A504A5268D5
:10541000107804AB0222FEF744FB10B14FF0FF30CE
:10542000F0E69DF811009DF8101040EA012B0C20C9
:105430009BFBF0F0C6B20020A86068602860A06006
:1054400060602060824665E0414A1268D17A404A35
:105450005268107804AB0C22FEF723FB10B14FF01A
:10546000FF30CFE69DF811009DF8101040EA0120B2
:1054700000B2ADF808009DF813009DF8121040EA44
:10548000012000B2ADF80A009DF815009DF8141037
:1054900040EA012000B2ADF80C00BDF90810206808
:1054A00008442060BDF90A10606808446060BDF9D6
:1054B0000C10A0680844A0609DF817009DF8161015
:1054C00040EA012000B2ADF800009DF819009DF8F7
:1054D000181040EA012000B2ADF802009DF81B0050
:1054E0009DF81A1040EA012000B2ADF80400BDF9A1
:1054F0000010286808442860BDF902106868084454
:105500006860BDF90410A8680844A8600AF10100A9
:1055100000F0FF0AB24597DB0A48D0F800C02868BF
:10552000C117090441EA10410704624600233846C6
:1055300001F0F0FC32460023CDE9020101F0EAFC63
:10554000286007E0A4A6000800B04C4554E3853F5E
:1055500084000020F848D0F800C06868C11709042A
:1055600041EA1041070462460023384601F0D2FCAC
:1055700032460023CDE9020101F0CCFC6860EE4820
:10558000D0F800C0A868C117090441EA1041070417
:1055900062460023384601F0BDFC32460023CDE9C7
:1055A000020101F0B7FCA860E348D0F804C021680C
:1055B000C817000440EA11480F0462460023384629
:1055C000414601F0A7FC32460023CDE9020101F07B
:1055D000A1FC2060D848D0F804C06068C117090455
:1055E00041EA1041070462460023384601F092FC6C
:1055F00032460023CDE9020101F08CFC6060CE4808
:10560000D0F804C0A068C117090441EA104107049A
:1056100062460023384601F07DFC32460023CDE986
:10562000020101F077FCA060A068002804DDA068FA
:10563000A0F58030A06003E0A06800F58030A06095
:105640000020DFE538B50446BC4890F82400A042AD
:1056500001D1002038BD24B3B84890F8250010B916
:105660004FF0FF30F6E70020FEF72CFB0020FEF79E
:1056700051FCB249C88CFEF7BEFE00200090AF4935
:10568000496808786B4601222321FEF7CBFA0121F5
:10569000AA4880F824100120FEF714FBFEF7DEFC78
:1056A00013E00020FEF70EFBA448007C0090A34905
:1056B000496808786B4601222321FEF7B3FA0021DE
:1056C0009E4880F82410FEF7C9FC0020C2E72DE9AF
:1056D000F04F8DB083460F4602200C90974890F80B
:1056E000240020B10020FFF7ADFF012600E00026D6
:1056F00003A8FFF7C2F905A8FFF7DFF901A8FFF734
:1057000000FA02A8FFF722FA8C4890F80AA004A831
:10571000FFF77EFA002407E0002239465846FFF7DB
:1057200058FD00B902E0641C022CF5DB00BF022C1E
:1057300001D1002528E0002407E0012206A909A8DC
:10574000FFF747FD00B902E0641C022CF5DB00BF47
:10575000022C01D1002517E006A93846FFF74FFCBF
:1057600000F0FF0809A95846FFF7A4FC00F0FF0964
:105770000025B9F1000F01D145F00105B8F1000F86
:1057800001D145F0020500BFFF206C490872FF21DE
:105790006A484172C1724FF6FF71C181FF21817267
:1057A000017401210173BDF80C00FEF7B2FE9DF8F3
:1057B0001400FEF76CFEBDF80400FEF770FDBDF8A6
:1057C0000800FEF718FE5046FEF73FFB9DF810005C
:1057D000FEF730FD16B10120FFF734FF28460DB06B
:1057E000BDE8F08FF8B504460D46164616B94FF0E1
:1057F000FF30F8BD5148807A10B94FF0FF30F8E71C
:1058000020128DF80000E0B28DF801009DF8010033
:1058100028444A4949684989884202DD4FF0FF30EF
:10582000E7E7464A1268117E444A526810786B4690
:105830000222FEF7F7F910B14FF0FF30D9E7EAB2D4
:105840003E4B1B68597D3D4B5B6818783346FEF72D
:10585000E9F910B14FF0FF30CBE70020C9E7F8B508
:1058600004460D46164616B94FF0FF30F8BD3348D2
:10587000807A10B94FF0FF30F8E720128DF8000061
:10588000E0B28DF801009DF8010028442B494968D9
:105890004989884202DD4FF0FF30E7E7274A126866
:1058A000117E264A526810786B460222FEF7BAF93A
:1058B00010B14FF0FF30D9E7EAB2204B1B68597D99
:1058C0001E4B5B6818783346FEF7EBF810B14FF0CB
:1058D000FF30CBE70020C9E72DE9F04385B005464E
:1058E0000E4690469946154890F8250020B14FF095
:1058F000FF3005B0BDE8F08316B94FF0FF30F8E790
:10590000002428E0281B102801DD102000E0281BBF
:1059100087B2321939462046FFF764FF10B14FF0C5
:10592000FF30E6E701AA39462046FFF798FF38B175
:105930004FF0FF30DDE70000A4A60008840000203F
:1059400030193A4601A901F03AFB10B16FF001009D
:10595000CFE7E01984B2AC42D4DB4FEA28208DF8BF
:10596000000008F0FF008DF80100F94A1268917EEE
:10597000F74A526810786B460222FEF753F910B1CD
:105980004FF0FF30B5E70121F14880F82510A0F86D
:1059900026900020ADE70146ED4890F824000870FD
:1059A000002070474FF0FF30704702464FF0FF3045
:1059B000704701464FF0FF307047F8B505460F4677
:1059C0001446002C70D0B5F5FF5F01DDFF2605E021
:1059D000202D01DA012601E0C5F3471607B901279A
:1059E000282C02DD4FF0FF30F8BDD948407D28BBA0
:1059F000D74890F8240038B10020FFF723FE01219A
:105A0000D34880F8201003E00021D14880F820100E
:105A1000CF481630FFF731F8CD481830FFF74DF872
:105A2000CB481A30FFF76DF8C9481C30FFF78EF8E5
:105A3000C748817A81771F30FFF7EAF80020FEF728
:105A400041F90020FEF76AFC00208DF80000C04AF2
:105A500012689178BE4A526810786B460122FEF7B0
:105A6000E1F810B14FF0FF30BEE740208DF80000A4
:105A7000B74A1268D17BB64A526810786B46012249
:105A8000FEF7D0F800B165E08DF800608DF8017088
:105A9000AF4A1268117AAE4A526810786B460222F9
:105AA000FEF7C0F808B155E047E0052001F007FA1D
:105AB000A748407A072101EBC000C0B28DF8000072
:105AC000A34A1268D179A24A526810786B46012223
:105AD000FEF7A8F800B13DE020208DF80000012C71
